:020000040800F2
:1000000000000220D1A6000821A7000821A70008AF
:1000100021A7000821A7000821A700080000000070
:1000200000000000000000000000000021A7000800
:1000300021A700080000000021A70008F12C0008FB
:10004000A9230008F5240008AF230008B523000801
:10005000BB230008C1230008C7230008CD230008E4
:10006000D3230008D9230008DF23000889250008CE
:10007000A9250008C9250008E92500080926000867
:100080002926000849260008E5230008EB2300087C
:10009000F1230008F7230008FD23000803240008CB
:1000A0009F240008A5240008AB240008B124000800
:1000B000B7240008BD240008C32400080924000850
:1000C0000F240008152400081B24000889270008B5
:1000D0009D270008292500084925000869250008F2
:1000E00021240008272400082D240008DB24000810
:1000F000E1240008E7240008ED2400086926000830
:100100003324000839240008C9240008B127000856
:100110003F24000845240008CF240008D524000807
:1001200089260008A9260008C9260008E926000833
:100130000927000800000000000000004B24000810
:1001400051240008572400085D2400086324000897
:1001500029270008492700086927000869240008A2
:100160006F240008752400087B24000881240008FF
:10017000872400088D240008000000000000000013
:080180009324000899240008F3
:1001880010B5054C237833B9044B13B10448AFF3C9
:1001980000800123237010BD7000002000000000C3
:1001A800A0A8000808B5034B1BB103490348AFF3E7
:1001B800008008BD0000000074000020A0A800080E
:1001C80081F0004102E000BF83F0004330B54FEA00
:1001D80041044FEA430594EA050F08BF90EA020F6D
:1001E8001FBF54EA000C55EA020C7FEA645C7FEA00
:1001F800655C00F0E2804FEA5454D4EB5555B8BF23
:100208006D420CDD2C4480EA020281EA030382EA93
:10021800000083EA010180EA020281EA0303362D25
:1002280088BF30BD11F0004F4FEA01314FF4801CF8
:100238004CEA113102D0404261EB410113F0004F0A
:100248004FEA03334CEA133302D0524263EB4303C1
:1002580094EA050F00F0A780A4F10104D5F1200E5F
:100268000DDB02FA0EFC22FA05F2801841F10001BA
:1002780003FA0EF2801843FA05F359410EE0A5F18E
:1002880020050EF1200E012A03FA0EFC28BF4CF0BF
:10029800020C43FA05F3C01851EBE37101F0004575
:1002A80007D54FF0000EDCF1000C7EEB00006EEB82
:1002B8000101B1F5801F1BD3B1F5001F0CD349080C
:1002C8005FEA30004FEA3C0C04F101044FEA445263
:1002D80012F5800F80F09A80BCF1004F08BF5FEAEA
:1002E800500C50F1000041EB045141EA050130BDCA
:1002F8005FEA4C0C404141EB010111F4801FA4F16D
:100308000104E9D191F0000F04BF01460020B1FAC1
:1003180081F308BF2033A3F10B03B3F120020CDAF9
:100328000C3208DD02F1140CC2F10C0201FA0CF0D7
:1003380021FA02F10CE002F11402D8BFC2F1200C3C
:1003480001FA02F120FA0CFCDCBF41EA0C019040F2
:10035800E41AA2BF01EB0451294330BD6FEA04043B
:100368001F3C1CDA0C340EDC04F11404C4F1200226
:1003780020FA04F001FA02F340EA030021FA04F338
:1003880045EA030130BDC4F10C04C4F1200220FA8F
:1003980002F001FA04F340EA0300294630BD21FACD
:1003A80004F0294630BD94F0000F83F4801306BF93
:1003B80081F480110134013D4EE77FEA645C18BF87
:1003C8007FEA655C29D094EA050F08BF90EA020F1E
:1003D80005D054EA000C04BF1946104630BD91EA16
:1003E800030F1EBF0021002030BD5FEA545C05D119
:1003F8004000494128BF41F0004130BD14F5800458
:100408003CBF01F5801130BD01F0004545F0FE41CB
:1004180041F470014FF0000030BD7FEA645C1ABF00
:10042800194610467FEA655C1CBF0B46024650EA37
:10043800013406BF52EA033591EA030F41F4002163
:1004480030BD00BF90F0000F04BF0021704730B5E9
:100458004FF4806404F132044FF000054FF00001BE
:1004680050E700BF90F0000F04BF0021704730B57F
:100478004FF4806404F1320410F0004548BF404254
:100488004FF000013EE700BF42004FEAE2014FEAA9
:1004980031014FEA02701FBF12F07F4393F07F4F84
:1004A80081F06051704732F07F4208BF704793F087
:1004B8007F4F04BF41F40021704730B54FF460749A
:1004C80001F0004521F000411CE700BF50EA01029D
:1004D80008BF704730B54FF000050AE050EA010246
:1004E80008BF704730B511F0004502D5404261EBB6
:1004F80041014FF4806404F132045FEA915C3FF4F7
:10050800D8AE4FF003025FEADC0C18BF03325FEA93
:10051800DC0C18BF033202EBDC02C2F1200300FA44
:1005280003FC20FA02F001FA03FE40EA0E0021FA69
:1005380002F11444BDE600BF70B54FF0FF0C4CF457
:10054800E06C1CEA11541DBF1CEA135594EA0C0F09
:1005580095EA0C0F00F0DEF82C4481EA030621EA44
:100568004C5123EA4C5350EA013518BF52EA03357F
:1005780041F4801143F4801338D0A0FB02CE4FF031
:100588000005E1FB02E506F00042E0FB03E54FF061
:100598000006E1FB03569CF0000F18BF4EF0010E59
:1005A800A4F1FF04B6F5007F64F5407404D25FEA55
:1005B8004E0E6D4146EB060642EAC62141EA555108
:1005C8004FEAC52040EA5E504FEACE2EB4F1FD0C4A
:1005D80088BFBCF5E06F1ED8BEF1004F08BF5FEAC8
:1005E800500E50F1000041EB045170BD06F000467A
:1005F80046EA010140EA020081EA0301B4EB5C0427
:10060800C2BFD4EB0C0541EA045170BD41F480111E
:100618004FF0000E013C00F3AB8014F1360FDEBF43
:10062800002001F0004170BDC4F10004203C35DA1F
:100638000C341BDC04F11404C4F1200500FA05F3A2
:1006480020FA04F001FA05F240EA020001F0004243
:1006580021F0004110EBD37021FA04F642EB0601B9
:100668005EEA430E08BF20EAD37070BDC4F10C04E3
:10067800C4F1200500FA04F320FA05F001FA04F2A7
:1006880040EA020001F0004110EBD37041F1000193
:100698005EEA430E08BF20EAD37070BDC4F120059E
:1006A80000FA05F24EEA020E20FA04F301FA05F206
:1006B80043EA020321FA04F001F0004121FA04F2AE
:1006C80020EA020000EBD3705EEA430E08BF20EA7E
:1006D800D37070BD94F0000F0FD101F000464000B8
:1006E80041EB010111F4801F08BF013CF7D041EA3A
:1006F800060195F0000F18BF704703F0004652003E
:1007080043EB030313F4801F08BF013DF7D043EA0E
:100718000603704794EA0C0F0CEA135518BF95EAC4
:100728000C0F0CD050EA410618BF52EA4306D1D14B
:1007380081EA030101F000414FF0000070BD50EA6A
:10074800410606BF1046194652EA430619D094EAF4
:100758000C0F02D150EA013613D195EA0C0F05D1DE
:1007680052EA03361CBF104619460AD181EA030132
:1007780001F0004141F0FE4141F470014FF00000EA
:1007880070BD41F0FE4141F4780170BD70B54FF085
:10079800FF0C4CF4E06C1CEA11541DBF1CEA135505
:1007A80094EA0C0F95EA0C0F00F0A7F8A4EB0504E7
:1007B80081EA030E52EA03354FEA013100F08880DE
:1007C8004FEA03334FF0805545EA131343EA1263A7
:1007D8004FEA022245EA111545EA10654FEA00265C
:1007E8000EF000419D4208BF964244F1FD0404F515
:1007F800407402D25B084FEA3202B61A65EB030571
:100808005B084FEA32024FF480104FF4002CB6EB2D
:10081800020E75EB030E22BFB61A754640EA0C00AD
:100828005B084FEA3202B6EB020E75EB030E22BFED
:10083800B61A754640EA5C005B084FEA3202B6EB2E
:10084800020E75EB030E22BFB61A754640EA9C00ED
:100858005B084FEA3202B6EB020E75EB030E22BFBD
:10086800B61A754640EADC0055EA060E18D04FEA7B
:10087800051545EA16754FEA06164FEAC30343EA1B
:1008880052734FEAC2025FEA1C1CC0D111F4801FE8
:100898000BD141EA00014FF000004FF0004CB6E7E1
:1008A80011F4801F04BF01430020B4F1FD0C88BF80
:1008B800BCF5E06F3FF6AFAEB5EB030C04BFB6EB8B
:1008C800020C5FEA500C50F1000041EB045170BD7E
:1008D8000EF0004E4EEA113114EB5C04C2BFD4EBAB
:1008E8000C0541EA045170BD41F480114FF0000E2F
:1008F800013C90E645EA060E8DE60CEA135594EAAB
:100908000C0F08BF95EA0C0F3FF43BAF94EA0C0FAD
:100918000AD150EA01347FF434AF95EA0C0F7FF422
:1009280025AF104619462CE795EA0C0F06D152EA76
:1009380003353FF4FDAE1046194622E750EA41065A
:1009480018BF52EA43067FF4C5AE50EA41047FF46B
:100958000DAF52EA43057FF4EBAE12E74A0011D21D
:1009680012F5001211D20DD56FF47873B3EB625201
:100978000ED44FEAC12343F0004343EA505323FA0D
:1009880002F070474FF00000704750EA013002D182
:100998004FF0FF3070474FF00000704780B483B0CD
:1009A80000AF0346FB7197F9073003F01F020749B0
:1009B80097F907305B09012000FA02F241F8232079
:1009C80000BF0C37BD465DF8047B704700E100E0CE
:1009D80080B483B000AF78600B46FB70FB7803F0FF
:1009E8000F03D9B27A68936861F3071393607B6841
:1009F80018460C37BD465DF8047B704780B483B059
:100A080000AF78600B46FB70FB7803F00703D9B2A0
:100A18007A68936861F38C2393607B6818460C3777
:100A2800BD465DF8047B704780B483B000AF786042
:100A38000B46FB70FB7803F00703D9B27A6893681A
:100A480061F34F3393607B6818460C37BD465DF8F9
:100A5800047B704780B483B000AF78600B46FB70AE
:100A6800FB7803F00303D9B27A68936861F3010352
:100A780093607B6818460C37BD465DF8047B704769
:100A880080B483B000AF78600B46FB70FB7803F04E
:100A98000303D9B27A68536861F3114353607B68E2
:100AA80018460C37BD465DF8047B704780B483B0A8
:100AB80000AF78600B46FB70FB7803F00103D9B2F6
:100AC8007A68536861F3965353607B6818460C370D
:100AD800BD465DF8047B704780B582B000AF786092
:100AE8007B689B68C3F38223DBB21946786800F001
:100AF80089F8034618460837BD4680BD80B582B0E0
:100B080000AF78607B689B68C3F34233DBB2194659
:100B1800786800F077F8034618460837BD4680BD68
:100B280080B483B000AF78607A68136843F4803388
:100B380013607B6818460C37BD465DF8047B704728
:100B480080B483B000AF78607B681B68C3F3404310
:100B5800DBB283F00103DBB2002B00D0F4E77B6843
:100B680018460C37BD465DF8047B704780B483B0E7
:100B780000AF78607A68136843F0807313607B680D
:100B880018460C37BD465DF8047B704780B483B0C7
:100B980000AF78607B681B68C3F34063DBB283F007
:100BA8000103DBB2002B00D0F4E77B6818460C3752
:100BB800BD465DF8047B704780B582B000AF7860B1
:100BC80039603B680C2B02D03B68112B04D1786844
:100BD800FFF794FF034611E03B680D2B08D03B68F4
:100BE8000E2B05D03B680F2B02D03B68102B04D18D
:100BF8007868FFF771FF034600E0002318460837BE
:100C0800BD4680BD80B483B000AF78600B46FB70F2
:100C1800FB78002B10D0FB78042B0BD0FB78052B2E
:100C280006D0FB78062B01D1074B06E0074B04E002
:100C3800074B02E0074B00E0074B18460C37BD4650
:100C48005DF8047B704700BF406F4001A037A000EB
:100C580080DE800200BD0105007A030A80B483B0FB
:100C680000AF78600B46FB70FB7803F00703D9B23E
:100C78007A68136861F3020313607B6818460C37BF
:100C8800BD465DF8047B704780B483B000AF7860E0
:100C98007A68136943F0004313617B6818460C3780
:100CA800BD465DF8047B704780B483B000AF7860C0
:100CB8007B681B69C3F3C073DBB218460C37BD46AB
:100CC8005DF8047B704780B483B000AF78607A68C1
:100CD80013696FF3410313617A68136943F00103E1
:100CE80013617B6818460C37BD465DF8047B704776
:100CF80080B483B000AF78607B68DB68C3F300031F
:100D0800DBB218460C37BD465DF8047B704780B4EB
:100D180083B000AF78607A68D36843F00103D3608A
:100D28007B6818460C37BD465DF8047B704780B475
:100D380083B000AF78607B68DB68C3F30043DBB245
:100D480018460C37BD465DF8047B704780B483B005
:100D580000AF78600B46FB70FB7803F00303D9B251
:100D68007A68136961F3092313617B6818460C37A5
:100D7800BD465DF8047B704780B483B000AF7860EF
:100D88007A68136943F0807313617B6818460C37DF
:100D9800BD465DF8047B704780B584B000AF7860CD
:100DA8000A4BFB600A4BBB607868FFF77DFF034680
:100DB800002B05D07B68054A5A607B68044A5A6054
:100DC8007B6818461037BD4680BD00BF23016745C4
:100DD800AB89EFCD80B483B000AF78600B46FB7071
:100DE8007A6813696FF3000313617A68136943F033
:100DF80002031361FB7803F00F03D9B27A68136911
:100E080061F3C60313617A68136943F4803313618D
:100E18007B6818460C37BD465DF8047B704780B484
:100E280083B000AFC7E900013B6818460C37BD46E0
:100E38005DF8047B704780B483B000AFC7E9000158
:100E48003B684FF47A7202FB03F318460C37BD4631
:100E58005DF8047B704780B483B000AFC7E9000138
:100E68003B6818460C37BD465DF8047B704780B474
:100E780083B000AFC7E900013B684FF47A7202FB08
:100E880003F318460C37BD465DF8047B704780B401
:100E980083B000AFC7E900013B6818460C37BD4670
:100EA8005DF8047B704780B483B000AF7860396028
:100EB80001223B6802FA03F31A467B689A6100BF75
:100EC8000C37BD465DF8047B704780B483B000AF33
:100ED800786039603B681033012202FA03F31A463E
:100EE8007B689A6100BF0C37BD465DF8047B70478C
:100EF80080B483B000AF786039607B681B690121DA
:100F08003A6801FA02F21340002B14BF01230023B0
:100F1800DBB218460C37BD465DF8047B704780B5D8
:100F280082B000AF7860396039687868FFF7E0FF11
:100F38000346002B04D039687868FFF7C6FF03E042
:100F480039687868FFF7AFFF00BF0837BD4680BD36
:100F580080B483B000AF786039603B6818460C37BE
:100F6800BD465DF8047B704780B485B000AFF8607B
:100F7800B9607A60FB68BA681A60FB687A685A6078
:100F8800FB6818461437BD465DF8047B704780B58A
:100F980082B000AF78607B681A687B685B68194626
:100FA8001046FFF780FF00BF0837BD4680BD80B5FB
:100FB80082B000AF78607B681A687B685B68194606
:100FC8001046FFF782FF00BF0837BD4680BD80B5D9
:100FD80082B000AF78607B681A687B685B681946E6
:100FE8001046FFF785FF034618460837BD4680BD03
:100FF80080B582B000AF78607B681A687B685B68F0
:1010080019461046FFF78BFF00BF0837BD4680BD65
:1010180080B582B000AF78600B46FB70FB78002B80
:1010280003D07868FFF7B3FF02E07868FFF7BFFFE7
:10103800FB7818460837BD4680BD80B584B000AF40
:1010480078600B46FB707868FFF7C1FF0346FB73B7
:10105800FB78002B02D07868FFF7CAFFFA7BFB7891
:101068009A4214BF01230023DBB218461037BD464D
:1010780080BD80B483B000AF78607A68136843F0AD
:10108800010313607B6818460C37BD465DF8047B86
:10109800704780B483B000AF78607A68136843F013
:1010A800800313607B6818460C37BD465DF8047BE7
:1010B800704780B483B000AF78600B467B807A8835
:1010C8007B68DA627B6818460C37BD465DF8047B9E
:1010D800704780B483B000AF78607B6818460C37DF
:1010E800BD465DF8047B704780B582B000AF78607C
:1010F80039607B6820331846FFF7EBFF0346196811
:101108003A680A431A607B6818460837BD4680BDAE
:1011180080B483B000AF786039607B682033196889
:101128003B68DA437B6820330A401A607B681846BC
:101138000C37BD465DF8047B704780B483B000AFC0
:1011480078600B46FB70FB78012B05D17B681B6A26
:10115800C3F30003DBB21BE0FB78022B05D17B68ED
:101168001B6AC3F30013DBB212E0FB78032B05D133
:101178007B681B6AC3F30023DBB209E0FB78042B0E
:1011880005D17B681B6AC3F30033DBB200E00023A0
:1011980018460C37BD465DF8047B704780B485B0AF
:1011A80000AFF8600B467A60FB72FB7A012B03D123
:1011B800FB687A685A6313E0FB7A022B03D1FB6859
:1011C8007A689A630CE0FB7A032B03D1FB687A6890
:1011D800DA6305E0FB7A042B02D1FB687A681A64AB
:1011E800FB6818461437BD465DF8047B704780B429
:1011F80083B000AF786039607B6800221A807B6812
:101208003A685A607B6818460C37BD465DF8047B1F
:10121800704780B483B000AF78607B681B8818463D
:101228000C37BD465DF8047B704780B582B000AFCF
:1012380078600B467B807B681A887B8813449BB256
:101248001946786800F004F800BF0837BD4680BD2D
:1012580080B582B000AF78600B467B807B681B88C6
:101268007A889A4223D07B8840F6022293421ED97C
:101278007B687A881A807B681B881A460E4BB3FBFA
:10128800F2F3013B5A087B685B6892B21A817B686B
:101298005B681A687B685B681B8919461046FFF70C
:1012A80008FF7B685B681833184600F06BF800BFCE
:1012B8000837BD4680BD00BF007A030A80B483B0FA
:1012C80000AF786039607B6800221A807B683A68D2
:1012D8005A607B6818460C37BD465DF8047B70473A
:1012E80080B483B000AF78607B681B8818460C37E1
:1012F800BD465DF8047B704780B582B000AF78606A
:101308000B467B807B681A887B8813449BB21946FE
:10131800786800F005F8034618460837BD4680BDD2
:1013280080B582B000AF78600B467B807B681B88F5
:101338007A889A421FD07B685B68DB897A889A42F0
:1013480019D87B687A881A807B685B6818687B681C
:101358005B68997A7B685B681B891A467B681B887F
:1013680003FB02F3064A82FB03C29211DB17D31A6E
:101378001A46FFF713FF7B8818460837BD4680BD1D
:10138800D34D621080B582B000AF78607B685B682F
:1013980018687B685B68997A7B685B681B891A4662
:1013A8007B681B8803FB02F3064A82FB03C2921187
:1013B800DB17D31A1A46FFF7F1FE00BF0837BD4600
:1013C80080BD00BFD34D621080B584B000AFF86017
:1013D800B9607A60FB70FB68BA681A60FB687A6863
:1013E8005A60FB684FF6FF721A81FB68FA789A72A6
:1013F800FB683A8B9A81FB68BA8BDA81FB681033F9
:10140800F9681846FFF7F3FEFB681833F9681846C1
:10141800FFF754FFFB6818461037BD4680BD80B5FE
:1014280082B000AF78607B681A687B689B89194630
:101438001046FFF759FE00BF0837BD4680BD80B58E
:1014480082B000AF78607B681A687B689B89194610
:101458001046FFF75DFE00BF0837BD4680BD80B56A
:1014680082B000AF78607B681A687B689B7A1946FF
:101478001046FFF762FE034618460837BD4680BD92
:1014880080B483B000AF78607A68936843F0010352
:1014980093607B6818460C37BD465DF8047B70473F
:1014A80080B483B000AF78607B689B68C3F30003A7
:1014B800DBB218460C37BD465DF8047B704780B434
:1014C80083B000AF78607A68936843F08043936094
:1014D8007B6818460C37BD465DF8047B704780B4BE
:1014E80083B000AF78607A68936843F48073936040
:1014F8007B6818460C37BD465DF8047B704780B49E
:1015080083B000AF78600B46FB70FB7803F00303F1
:10151800D9B27A68536861F3196353607B681846D7
:101528000C37BD465DF8047B704780B483B000AFCC
:1015380078607A68536843F4807353607B68184610
:101548000C37BD465DF8047B704780B483B000AFAC
:1015580078607A68936843F0020393607B68184662
:101568000C37BD465DF8047B704780B483B000AF8C
:1015780078600B46FB70FB7803F00103D9B27A68F8
:10158800936861F3492393607B6818460C37BD461E
:101598005DF8047B704780B483B000AF78607B68E7
:1015A8004C3318460C37BD465DF8047B704780B451
:1015B80083B000AF78600B46FB701346BB70FB78B6
:1015C800002B09D1BB7803F00703D9B27A681369F5
:1015D80061F302031361E8E0FB78012B09D1BB78C2
:1015E80003F00703D9B27A68136961F3C50313617D
:1015F800DBE0FB78022B09D1BB7803F00703D9B2F3
:101608007A68136961F388131361CEE0FB78032BC2
:1016180009D1BB7803F00703D9B27A68136961F37B
:101628004B231361C1E0FB78042B09D1BB7803F08D
:101638000703D9B27A68136961F30E331361B4E012
:10164800FB78052B09D1BB7803F00703D9B27A6878
:10165800136961F3D1331361A7E0FB78062B09D135
:10166800BB7803F00703D9B27A68136961F394432E
:1016780013619AE0FB78072B09D1BB7803F00703C5
:10168800D9B27A68136961F3575313618DE0FB7817
:10169800082B09D1BB7803F00703D9B27A6813691C
:1016A80061F31A63136180E0FB78092B09D1BB78D9
:1016B80003F00703D9B27A68136961F3DD63136134
:1016C80073E0FB780A2B09D1BB7803F00703D9B282
:1016D8007A68D36861F30203D36066E0FB780B2B6A
:1016E80009D1BB7803F00703D9B27A68D36861F3EC
:1016F800C503D36059E0FB780C2B09D1BB7803F004
:101708000703D9B27A68D36861F38813D3604CE0D1
:10171800FB780D2B09D1BB7803F00703D9B27A689F
:10172800D36861F34B23D3603FE0FB780E2B09D1DC
:10173800BB7803F00703D9B27A68D36861F30E3334
:10174800D36032E0FB780F2B09D1BB7803F0070395
:10175800D9B27A68D36861F3D133D36025E0FB78D6
:10176800102B09D1BB7803F00703D9B27A68D36884
:1017780061F39443D36018E0FB78112B09D1BB784F
:1017880003F00703D9B27A68D36861F35753D3607B
:101798000BE0FB78122B08D1BB7803F00703D9B212
:1017A8007A68D36861F31A63D3607B6818460C378C
:1017B800BD465DF8047B704780B485B000AFF86023
:1017C800B9601346FB71BB68012B09D1FB7903F0A3
:1017D8001F03D9B2FA68536B61F304035363C1E082
:1017E800BB68022B09D1FB7903F01F03D9B2FA6851
:1017F800536B61F349135363B4E0BB68032B09D1FE
:10180800FB7903F01F03D9B2FA68536B61F38E2397
:101818005363A7E0BB68042B09D1FB7903F01F03CE
:10182800D9B2FA68536B61F3D33353639AE0BB6858
:10183800052B09D1FB7903F01F03D9B2FA68536B62
:1018480061F3185353638DE0BB68062B09D1FB790C
:1018580003F01F03D9B2FA68536B61F35D635363F6
:1018680080E0BB68072B09D1FB7903F01F03D9B2CD
:10187800FA68136B61F30403136373E0BB68082B06
:1018880009D1FB7903F01F03D9B2FA68136B61F32E
:101898004913136366E0BB68092B09D1FB7903F090
:1018A8001F03D9B2FA68136B61F38E23136359E0EF
:1018B800BB680A2B09D1FB7903F01F03D9B2FA6878
:1018C800136B61F3D33313634CE0BB680B2B09D163
:1018D800FB7903F01F03D9B2FA68136B61F318534D
:1018E80013633FE0BB680C2B09D1FB7903F01F039E
:1018F800D9B2FA68136B61F35D63136332E0BB68B6
:101908000D2B09D1FB7903F01F03D9B2FA68D36A0A
:1019180061F30403D36225E0BB680E2B09D1FB7980
:1019280003F01F03D9B2FA68D36A61F34913D3628B
:1019380018E0BB680F2B09D1FB7903F01F03D9B25C
:10194800FA68D36A61F38E23D3620BE0BB68102B6D
:1019580008D1FB7903F01F03D9B2FA68D36A61F39F
:10196800D333D362FB6818461437BD465DF8047B51
:10197800704780B483B000AF786039603B68DBB2F1
:10198800013BDBB203F00F03D9B27A68D36A61F383
:101998001753D3627B6818460C37BD465DF8047B45
:1019A800704780B483B000AF78600B46FB70FB785B
:1019B80003F00303D9B27A68536861F311435360A3
:1019C8007B6818460C37BD465DF8047B704780B4C9
:1019D80083B000AF78607B6818460C37BD465DF869
:1019E800047B704780B483B000AF78607B6818468A
:1019F8000C37BD465DF8047B704780B582B000AFF8
:101A080078600B46FB70FB78002B08D17B680833A5
:101A18001846FFF7DCFF02463D23136058E0FB78C9
:101A2800012B09D17B6808331846FFF7D0FF02461F
:101A38004FF4746313604BE0FB78022B09D17B6889
:101A480008331846FFF7C3FF02464FF474131360B8
:101A58003EE0FB78032B09D17B6808331846FFF773
:101A6800B6FF02464FF07463136031E0FB78042B35
:101A780008D17B680C331846FFF7B4FF02463D23B4
:101A8800136025E0FB78052B09D17B680C331846D9
:101A9800FFF7A8FF02464FF47463136018E0FB7861
:101AA800062B09D17B680C331846FFF79BFF0246CB
:101AB8004FF4741313600BE0FB78072B08D17B6895
:101AC8000C331846FFF78EFF02464FF0746313601D
:101AD80000BF0837BD4680BD80B483B000AF7860D2
:101AE8007B6818460C37BD465DF8047B704780B4A8
:101AF80083B000AF78607B6818460C37BD465DF848
:101B0800047B704780B582B000AF78600B46FB70ED
:101B1800FB78002B0DD17B681846FFF7DDFF0346E5
:101B28001B6803F02003002B14BF01230023DBB242
:101B38007BE0FB78012B0DD17B681846FFF7CCFFC3
:101B480003461B6803F40063002B14BF0123002322
:101B5800DBB26AE0FB78022B0DD17B681846FFF7F1
:101B6800BBFF03461B6803F40013002B14BF0123BB
:101B78000023DBB259E0FB78032B0DD17B681846B4
:101B8800FFF7AAFF03461B6803F00063002B14BF8E
:101B980001230023DBB248E0FB78042B0ED17B68DD
:101BA80004331846FFF7A3FF03461B6803F020031E
:101BB800002B14BF01230023DBB236E0FB78052B92
:101BC8000ED17B6804331846FFF791FF03461B6864
:101BD80003F40063002B14BF01230023DBB224E0CD
:101BE800FB78062B0ED17B6804331846FFF77FFF7E
:101BF80003461B6803F40013002B14BF01230023C2
:101C0800DBB212E0FB78072B0ED17B680433184651
:101C1800FFF76DFF03461B6803F00063002B14BF3A
:101C280001230023DBB200E0002318460837BD4635
:101C380080BD80B483B000AF78607A68136843F0E1
:101C4800010313607B681B68C3F30003DBB283F0F6
:101C58000103DBB2002B00D0F4E77B6818460C3791
:101C6800BD465DF8047B704780B483B000AF7860F0
:101C78007A6813686FF3000313607B6818460C37A3
:101C8800BD465DF8047B704780B483B000AF7860D0
:101C98007A68136843F4806313607B6818460C37CE
:101CA800BD465DF8047B704780B483B000AF7860B0
:101CB8007A68136843F4807313607B6818460C379E
:101CC800BD465DF8047B704780B483B000AF786090
:101CD80039607B683A68DA607B6818460C37BD461D
:101CE8005DF8047B704780B483B000AF78603960DA
:101CF8007B683A689A607B6818460C37BD465DF881
:101D0800047B704780B483B000AF78600B467B805B
:101D18007A887B685A607B6818460C37BD465DF840
:101D2800047B704780B483B000AF78600B46FB70CB
:101D3800FB7803F00303D9B27A68136861F3871359
:101D480013607B6818460C37BD465DF8047B704706
:101D580080B483B000AF78600B46FB70FB7803F06B
:101D68000303D9B27A68136861F34E3313607B6852
:101D780018460C37BD465DF8047B704780B483B0C5
:101D880000AF78600B46FB70FB7803F00303D9B211
:101D98007A68136861F3CC2313607B6818460C37A4
:101DA800BD465DF8047B704780B483B000AF7860AF
:101DB8000B46FB70FB7803F00703D9B27A68136807
:101DC80061F35B6313607B6818460C37BD465DF8AA
:101DD800047B704780B483B000AF78607A6813687A
:101DE80043F0100313607B6818460C37BD465DF856
:101DF800047B704780B483B000AF78607B685B6811
:101E08009BB218460C37BD465DF8047B704780B41A
:101E180083B000AF78607B680022C3F800217B683C
:101E2800002283F804217B6818460C37BD465DF80C
:101E3800047B704780B483B000AF78607B68184635
:101E48000C37BD465DF8047B704780B483B000AFA3
:101E580078607B6818460C37BD465DF8047B704790
:101E680080B483B000AF78607B6800229A607B689A
:101E780018460C37BD465DF8047B704780B582B0C4
:101E880000AF78607B689B68002B05D07B689B68F7
:101E980078687968032298477B6818460837BD46F2
:101EA80080BD80B483B000AF78607B689B68002BEE
:101EB8000CBF01230023DBB218460C37BD465DF882
:101EC800047B704780B483B000AF786039603B68AA
:101ED8001A687B681B689A4201D23B6800E07B68FD
:101EE80018460C37BD465DF8047B704780B483B054
:101EF80000AF78607B6818460C37BD465DF8047BF8
:101F0800704780B483B000AF78600B46FB707B6885
:101F180000221A607B68FA781A717B6818460C37B9
:101F2800BD465DF8047B704780B582B000AF78602D
:101F3800054B1B687A6892F904201046984700BF41
:101F48000837BD4680BD00BF0400002080B485B0BE
:101F580000AF786039607B681B68FB60FB68002B0A
:101F68000BD0FB685B68002B03D0FB685B68FB60E9
:101F7800F7E7FB683A685A6002E07B683A681A60DB
:101F880000BF1437BD465DF8047B704780B584B048
:101F980000AF78607B681B68FB60FB68002B08D08B
:101FA800FB681B681B68F8689847FB685B68FB6000
:101FB800F3E700BF1037BD4680BD80B483B000AFE3
:101FC80078600B46FB70FB7803F00103D9B27A689E
:101FD800D36861F34923D3607B6818460C37BD4644
:101FE8005DF8047B704780B483B000AF78600B461F
:101FF800FB70FB7803F00103D9B27A68D36861F308
:102008000C33D3607B6818460C37BD465DF8047BFB
:10201800704780B483B000AF78600B46FB70FB78E4
:1020280003F00303D9B27A68136961F30D331361BE
:102038007B6818460C37BD465DF8047B704780B452
:1020480083B000AF78607A68D36843F40053D360F4
:102058007B6818460C37BD465DF8047B704780B432
:1020680083B000AF78607A68D36843F00403D36024
:102078007B6818460C37BD465DF8047B704780B412
:1020880083B000AF78607A68D36843F00803D36000
:102098007B6818460C37BD465DF8047B704780B4F2
:1020A80083B000AF78607A68536943F08003536166
:1020B8007B6818460C37BD465DF8047B704780B4D2
:1020C80083B000AF78607A68536943F04003536186
:1020D8007B6818460C37BD465DF8047B704780B4B2
:1020E80083B000AF78607A68D36843F48063D360C4
:1020F8007B6818460C37BD465DF8047B704780B492
:1021080083B000AF78607A68D3686FF38A23D360AE
:102118007B6818460C37BD465DF8047B704780B570
:1021280082B000AF78600B46FB70FB78002B03D0C1
:102138007868FFF7D4FF02E07868FFF7E0FF7B6874
:1021480018460837BD4680BD80B483B000AF7860BC
:102158000B46FB707A68D368F97861F30413D3608F
:102168007B6818460C37BD465DF8047B704780B421
:1021780083B000AF78607B681B68C3F30013DBB2E1
:1021880018460C37BD465DF8047B704780B483B0B1
:1021980000AF78607B681B6818460C37BD465DF851
:1021A800047B704780B483B000AF78607B685B685D
:1021B80018460C37BD465DF8047B704780B584B07F
:1021C80000AF78607868FFF7E1FFF8607868FFF79C
:1021D800E9FFF8607B6818461037BD4680BD80B4BB
:1021E80083B000AF78607B68043318460C37BD466F
:1021F8005DF8047B704780B483B000AF78607B687B
:10220800043318460C37BD465DF8047B7047000060
:1022180080B586B000AFF8600B467A60FB7201F0BB
:1022280085FB034679681846FEF7C6FC7861FB7A99
:10223800072B53D801A252F823F000BF65220008EB
:10224800752200088522000895220008A5220008AA
:10225800B5220008C5220008D52200087B69224A59
:10226800A2FB03239A0AFB689A6037E07B691F4A3E
:10227800A2FB03235A0BFB689A602FE07B691A4A7A
:10228800A2FB0323DA0AFB689A6027E07B69174AF6
:10229800A2FB03239A0BFB689A601FE07B69124A32
:1022A800A2FB03231A0BFB689A6017E07B690F4AAD
:1022B800A2FB0323DA0BFB689A600FE07B690A4AEA
:1022C800A2FB03235A0BFB689A6007E07B69074A65
:1022D800A2FB03231A0CFB689A6000BFFB68184630
:1022E8001837BD4680BD00BFB5814E1BC5B3A2914E
:1022F80080B483B000AF78607B6803F01F03184692
:102308000C37BD465DF8047B704780B582B000AFDE
:1023180078607868FFF7ECFF02460123934018467F
:102328000837BD4680BD80B483B000AF786039609F
:102338007B6818460C37BD465DF8047B704780B44F
:1023480083B000AF78607B681B6818460C37BD46C1
:102358005DF8047B704780B483B000AF78607B6819
:1023680018460C37BD465DF8047B704780B582B0CF
:1023780000AF786039607B6814331846FFF7EBFFCD
:1023880003461B6801213A6801FA02F21340002B48
:1023980014BF01230023DBB218460837BD4680BDB1
:1023A80080B400AFFEE780B400AFFEE780B400AFB2
:1023B800FEE780B400AFFEE780B400AFFEE780B46C
:1023C80000AFFEE780B400AFFEE780B400AFFEE7E1
:1023D80080B400AFFEE780B400AFFEE780B400AF82
:1023E800FEE780B400AFFEE780B400AFFEE780B43C
:1023F80000AFFEE780B400AFFEE780B400AFFEE7B1
:1024080080B400AFFEE780B400AFFEE780B400AF51
:10241800FEE780B400AFFEE780B400AFFEE780B40B
:1024280000AFFEE780B400AFFEE780B400AFFEE780
:1024380080B400AFFEE780B400AFFEE780B400AF21
:10244800FEE780B400AFFEE780B400AFFEE780B4DB
:1024580000AFFEE780B400AFFEE780B400AFFEE750
:1024680080B400AFFEE780B400AFFEE780B400AFF1
:10247800FEE780B400AFFEE780B400AFFEE780B4AB
:1024880000AFFEE780B400AFFEE780B400AFFEE720
:1024980080B400AFFEE780B400AFFEE780B400AFC1
:1024A800FEE780B400AFFEE780B400AFFEE780B47B
:1024B80000AFFEE780B400AFFEE780B400AFFEE7F0
:1024C80080B400AFFEE780B400AFFEE780B400AF91
:1024D800FEE780B400AFFEE780B400AFFEE780B44B
:1024E80000AFFEE780B400AFFEE7000080B500AFA4
:1024F80001F026FA034610211846FFF737FF034676
:10250800002B02D00548FFF741FD01F019FA0346F8
:10251800184601F01FFA00BF80BD00BF94010020DB
:1025280080B500AF0548FFF731FD01F03FFA0346DB
:102538001846FFF743FE00BF80BD00BFB40100206E
:1025480080B500AF0548FFF721FD01F039FA0346D1
:102558001846FFF733FE00BF80BD00BFBC01002056
:1025680080B500AF0548FFF711FD01F033FA0346C7
:102578001846FFF723FE00BF80BD00BFC40100203E
:1025880080B500AF0548FFF701FD01F02DFA0346BD
:1025980000211846FFF731FA00BF80BDD4010020A2
:1025A80080B500AF0548FFF7F1FC01F01DFA0346BE
:1025B80001211846FFF721FA00BF80BDDC01002089
:1025C80080B500AF0548FFF7E1FC01F00DFA0346BE
:1025D80002211846FFF711FA00BF80BDE401002070
:1025E80080B500AF0548FFF7D1FC01F0FDF90346BF
:1025F80003211846FFF701FA00BF80BDEC01002057
:1026080080B500AF0548FFF7C1FC01F0EDF90346BE
:1026180005211846FFF7F1F900BF80BDF40100203D
:1026280080B500AF0548FFF7B1FC01F0DDF90346BE
:1026380005211846FFF7E1F900BF80BDFC01002025
:1026480080B500AF0548FFF7A1FC01F0CDF90346BE
:1026580006211846FFF7D1F900BF80BD040200200B
:1026680080B500AF0548FFF791FC01F0BDF90346BE
:1026780007211846FFF7C1F900BF80BD0C020020F2
:1026880080B500AF0548FFF781FC01F0B7F90346B4
:1026980000211846FFF7B1F900BF80BD14020020E1
:1026A80080B500AF0548FFF771FC01F0A7F90346B4
:1026B80001211846FFF7A1F900BF80BD1C020020C8
:1026C80080B500AF0548FFF761FC01F097F90346B4
:1026D80002211846FFF791F900BF80BD24020020AF
:1026E80080B500AF0548FFF751FC01F087F90346B4
:1026F80003211846FFF781F900BF80BD2C02002096
:1027080080B500AF0548FFF741FC01F077F90346B3
:1027180004211846FFF771F900BF80BD340200207C
:1027280080B500AF0548FFF731FC01F067F90346B3
:1027380005211846FFF761F900BF80BD3C02002063
:1027480080B500AF0548FFF721FC01F057F90346B3
:1027580006211846FFF751F900BF80BD440200204A
:1027680080B500AF0548FFF711FC01F047F90346B3
:1027780007211846FFF741F900BF80BD4C02002031
:1027880080B500AF0248FFF701FC00BF80BD00BF65
:102798009C01002080B500AF0248FFF7F7FB00BF9F
:1027A80080BD00BFA401002080B500AF0248FFF73C
:1027B800EDFB00BF80BD00BFAC01002080B483B03A
:1027C80000AF78607B689B6818460C37BD465DF89B
:1027D800047B704780B483B000AF786039607B6851
:1027E8003A689A607B689B6818460C37BD465DF866
:1027F800047B704780B483B000AF786039607B6831
:102808009A683B681A447B689A607B689B6818469C
:102818000C37BD465DF8047B704780B483B000AFC9
:1028280078607B6800221A607B6800225A607B68A7
:1028380018460C37BD465DF8047B704780B582B0FA
:1028480000AF786039607B681846FFF7E6FF7B6861
:102858003A68DA607B684FF0FF321A617B68184685
:102868000837BD4680BD80B483B000AF78607B6810
:1028780000221A607B6800225A607B6818460C3771
:10288800BD465DF8047B704780B582B000AF7860C4
:102898007B681846FFF7F2FA7B6818460837BD468A
:1028A80080BD80B483B000AF78607B681B68184631
:1028B8000C37BD465DF8047B704780B483B000AF29
:1028C80078607B6800221A607B6800225A607B6807
:1028D80018460C37BD465DF8047B704780B483B05A
:1028E80000AF7860064A7B681A607B6800225A60ED
:1028F8007B6818460C37BD465DF8047B704700BFFF
:102908004CAB000880B584B000AFF860B9607A605D
:102918003B60FB6808331846FFF7CFFFFB68184693
:10292800FFF7DCFF184AFB681A60FB6800221A618F
:10293800FB6800225A61FB6810331846FFF793FFC3
:10294800FB68BA689A61FB680022DA61FB687A68FA
:102958001A62FB683A685A62FB68BA699A62FB684D
:10296800FA69DA62FB683A6A1A63FB683433184614
:1029780001F04EF8FB681946F869FFF7E7FAFB68BB
:1029880018461037BD4680BD40AB000880B582B000
:1029980000AF78607B689B6A1846FFF74AF97B6846
:1029A8001B6A1846FEF76CFD7B681B6A1846FEF723
:1029B80077FD034683F00103DBB2002B00D0F3E779
:1029C8007B681B6A1846FEF77AFD00BF0837BD46CC
:1029D80080BD80B483B000AF78607B681B68184600
:1029E8000C37BD465DF8047B704780B483B000AFF8
:1029F80078607B681A687B685B685B0013441846DC
:102A08000C37BD465DF8047B704790B58DB000AFBC
:102A180078607B68BB62BB6A0833184601F005F82A
:102A280003463B61BB6A0833184601F01DF80346AC
:102A3800FB6007F10C0207F110031146184601F07C
:102A480023F80346002B0FD007F11003184601F0B6
:102A58003FF8F8610021F869FFF7BCFE07F11003A1
:102A6800184601F025F8E4E77B680833184600F0BB
:102A7800DCFF03467B617B6810337B62786AFFF773
:102A8800A8FFF862786AFFF7B0FF3862FA6A3B6A13
:102A98009A423CD0FB6A1B883B8107F10803184621
:102AA80001F022F803461C4607F11403184601F00A
:102AB8000FF8034621461846FFF79CFE07F114035A
:102AC800184600F0F5FF0346184601F019F80446C9
:102AD8007B680833184600F0C7FF0346BB6107F15F
:102AE8001803184601F00CF803469C420CBF01235A
:102AF8000023DBB2002B06D07B680833184600F0B1
:102B080094FF03467B61FB6A0233FB62BEE77B6886
:102B18003433184601F000F80346002B04D07B68D4
:102B28003433184601F008F800BF3437BD4690BD6D
:102B380080B483B000AF786039607B683A685A60C7
:102B480000BF0C37BD465DF8047B704780B483B086
:102B580000AF78607B6800229A6000BF0C37BD46E2
:102B68005DF8047B704780B483B000AF78600B4693
:102B7800FB70FB7803F00103D9B27A68136861F33C
:102B88008203136000BF0C37BD465DF8047B7047B5
:102B980080B483B000AF78607A68136843F00203AA
:102BA800136000BF0C37BD465DF8047B704780B4E6
:102BB80083B000AF78600B46FB707A681368F978C9
:102BC80061F30003136000BF0C37BD465DF8047B5A
:102BD800704780B582B000AF786039607B6839682B
:102BE800184600F0BFFF00BF0837BD4680BD80B55E
:102BF80082B000AF786039607B683968184600F0A9
:102C0800D2FF00BF0837BD4680BD80B586B000AF93
:102C180078607B687B617B69184601F016F803468B
:102C2800FB607B69184601F02FF80346BB6007F18B
:102C3800080207F10C031146184601F035F803465F
:102C4800002B10D007F10C03184601F051F8386139
:102C58003B691B681B683869984707F10C031846DD
:102C680001F036F8E3E700BF1837BD4680BD80B4F1
:102C780083B000AF78607B6800221A607B6800220E
:102C88005A607B6818460C37BD465DF8047B704770
:102C980080B582B000AF78607B681846FFF7E7FF21
:102CA8007B6818460837BD4680BD80B582B000AF46
:102CB80078607B681846FFF7EBFF7B6800229A6014
:102CC8007B680022DA607B6800221A617B68012237
:102CD8005A6101F019F80346184601F01FF87B689D
:102CE80018460837BD4680BD80B500AF024800F0E1
:102CF8007BF800BF80BD00BF5402002080B483B0C1
:102D080000AF78607B6800221A607B6800225A60F6
:102D18007B6818460C37BD465DF8047B7047000099
:102D280080B582B000AF78607B6804331846FFF73F
:102D3800E5FF044A7B681A607B6818460837BD4679
:102D480080BD00BF34AB000880B582B000AF7860AA
:102D58007B681846FFF7E4FF054A7B681A607B68C2
:102D680000221A737B6818460837BD4680BD00BF2D
:102D780028AB000880B582B000AF786039607B6806
:102D88001846FFF7E1FF094A7B681A607B68002252
:102D98001A617B6800225A613968786800F03AF84D
:102DA8007B6818460837BD4680BD00BF1CAB0008CD
:102DB80080B483B000AF78607B685B695A1C7B681D
:102DC8005A6100BF0C37BD465DF8047B704780B57B
:102DD80082B000AF78607B681B681846FFF715FF64
:102DE80000BF0837BD4680BD80B582B000AF7860AF
:102DF8007B6808331846FFF708FF7B6803F110006B
:102E08007B685B697A68194600F0AAFF00BF08373B
:102E1800BD4680BD80B582B000AF786039607B6800
:102E28003A681A617B68184600F058F800BF0837FE
:102E3800BD4680BD80B483B000AF78607B685A69B6
:102E48007B681B699A422CBF01230023DBB2002B4D
:102E580004D07B6800225A61012300E00023184651
:102E68000C37BD465DF8047B704780B582B000AF73
:102E780078607B6800225A617B68184600F018F871
:102E880000BF0837BD4680BD80B483B000AF78600E
:102E98007B685A697B681B699A422CBF012300230F
:102EA800DBB218460C37BD465DF8047B704700005E
:102EB80080B582B000AF78607B681B7B002B07D0A1
:102EC8007B6800221A737B6819460348FFF78FFE58
:102ED80000BF0837BD4680BD5402002080B582B0CF
:102EE80000AF78607B681B7B83F00103DBB2002BAB
:102EF80007D07B6801221A737B6819460348FFF7DD
:102F080068FE00BF0837BD4680BD00BF54020020E0
:102F180080B483B000AF78607B685B781B021AB21C
:102F28007B681B781BB213431BB29BB218460C3745
:102F3800BD465DF8047B704780B485B000AFF8608B
:102F4800B9607A60FB68BA681A60FB687A685A6088
:102F5800FB6818461437BD465DF8047B704780B49B
:102F680083B000AF786039607B683A681A607B6824
:102F780018460C37BD465DF8047B704780B483B0B3
:102F880000AF78607B681B6818460C37BD465DF853
:102F9800047B704780B483B000AF78607B681B689F
:102FA80018460C37BD465DF8047B704780B483B083
:102FB80000AF78607B681B6818460C37BD465DF823
:102FC800047B704780B483B000AF786039607B6859
:102FD8001A683B681B689A4214BF01230023DBB2BE
:102FE80018460C37BD465DF8047B704780B483B043
:102FF80000AF78607B681B689A1C7B681A607B68E6
:1030080018460C37BD465DF8047B704780B584B020
:1030180000AF78607B681A6807F10C031146184600
:10302800FFF79DFFFB6818461037BD4680BD80B589
:1030380084B000AF78607B681A687B685B685B0067
:103048001A4407F10C0311461846FFF788FFFB687E
:1030580018461037BD4680BD80B483B000AF786095
:103068007B681B78C3F30013DBB2002B0DD17B68A0
:103078001B78C3F34013DBB2002B06D17B681B78A7
:10308800C3F38013DBB2002B01D0012300E000233F
:1030980018460C37BD465DF8047B704780B500AF15
:1030A80001F0BBF800BF80BD80B582B000AF78608A
:1030B80039603968786801F0F7F878680837BD46EC
:1030C80080BD000080B500AF0F4B1B6803F0010303
:1030D800002B0AD101F000F90346052219460B48D6
:1030E800FDF742FF084B01221A6000F01FFC03465F
:1030F800184601F0FBF8054B1B68184601F005F966
:10310800024B184680BD00BF740200206C020020EC
:1031180080B500AF0F4B1B6803F00103002B0AD1E9
:1031280001F004F90346002219460B48FDF71CFF7D
:10313800084B01221A6000F0F9FB0346184601F01B
:10314800FFF8054B1B68184601F009F9024B1846B1
:1031580080BD00BF800200207802002080B500AF4B
:103168000F4B1B6803F00103002B0AD101F00EF985
:103178000346092219460B48FDF7F6FE084B0122C3
:103188001A6000F0D3FB0346184601F009F9054B15
:103198001B68184601F013F9024B184680BD00BFA2
:1031A8008C0200208402002080B500AF0F4B1B6802
:1031B80003F00103002B0AD101F0E8F803460A22C4
:1031C80019460B48FDF7D0FE084B01221A6000F0A3
:1031D800ADFB0346184601F0E3F8054B1B6818469B
:1031E80001F001F9024B184680BD00BF980200208B
:1031F8009002002080B500AF0F4B1B6803F001035D
:10320800002B0AD101F0C2F803460B2219460B48DD
:10321800FDF7AAFE084B01221A6000F087FB03465F
:10322800184601F0BDF8054B1B68184601F0EFF889
:10323800024B184680BD00BFA40200209C0200205B
:1032480080B400AF07231846BD465DF8047B70477D
:1032580080B400AF024B1846BD465DF8047B70474A
:10326800B401002080B483B000AF78607B68184652
:103278000C37BD465DF8047B704780B582B000AF5F
:1032880078607868FFF7EEFF0346184601F04AF9C0
:1032980002467B68D3F80031134418460837BD4608
:1032A80080BD000080B400AF024B1846BD465DF8F3
:1032B800047B70474C02002080B400AF04231846FA
:1032C800BD465DF8047B70472DE9F0478EB006AF28
:1032D80001F055F82323FB611E23BB6113237B6197
:1032E8000A233B610A23FB60684B1B6803F0010358
:1032F800002B28D1FFF732FF8046FFF755FF8146A4
:10330800FFF778FF824600F051FB044600F076FB99
:10331800054601F08DF8064601F094F87860FFF74D
:103328008FFF034605930C2304937B68039302964F
:103338000195009453464A464146554801F09FF886
:10334800524B01221A6000F0F1FAB860B86801F037
:10335800CBF84F4BD3F818311846FEF790FE0346CA
:103368001846FEF77CFE03461846FEF798FE03460D
:103378001846FEF7A4FEFFF76BFF03461846FEF754
:10338800D3FDB86801F0BFF8414BD3F81C310121D7
:103398001846FEF7C7FC04463D48FFF76EFF034694
:1033A80019462046FEF790FC0446394BD3F81831ED
:1033B8001846FEF720FF034619462046FEF793FC01
:1033C80003461846FEF760FC034600211846FEF740
:1033D800BFFC034600211846FEF7D0FC03461846FA
:1033E800FEF7F8FCFFF75EFF03461846FEF79CFD64
:1033F800274BD3F8203100211846FEF793FC0446EA
:103408002348FFF73AFF034619462046FEF75CFCBF
:1034180004461F4BD3F818311846FEF7E0FE034662
:1034280019462046FEF75FFC0346FF211846FEF7C3
:1034380069FC03461846FEF727FC03460021184698
:10344800FEF786FC034600211846FEF797FC034664
:103458001846FEF729FC0E4BD3F82041FFF72CFF46
:10346800034619462046FEF79FFC094BD3F81C413A
:10347800FFF722FF034619462046FEF795FC044B4A
:1034880018462037BD46BDE8F08700BFD4030020AA
:10349800A802002080B582B000AF78607B6818462B
:1034A800FEF7ECFC7B6818460837BD4680BD90B532
:1034B80083B000AF78607B68002B0AD07B6803F18B
:1034C80020047B689C4204D0103C2046FFF7E2FFB2
:1034D800F7E77B6818460C37BD4690BD80B582B0CB
:1034E80000AF7860064A7B681A607B68DC33184650
:1034F800FFF7DDFF7B6818460837BD4680BD00BF73
:10350800ECAA000890B587B002AF0346B980FB71FA
:10351800FFF7DAFEF860274B1B6803F00103002B66
:1035280014D1FFF795FE0446FFF7BCFE0346F97970
:1035380000932346FA68204801F014F81D4B012235
:103548001A601E4A1E491C4807F0FBF83B7923F015
:103558001F03DBB2002B19D03B7923F01F03DBB22A
:10356800202B11D03B7923F01F03DBB2402B09D06D
:103578003B7923F01F03DBB2602B01D1022306E065
:10358800012304E0022302E0032300E004230A4AA3
:103598001362094B1B693A1D1146184601F050F891
:1035A800054B1B69184601F08FF8034B1846143772
:1035B800BD4690BDE8040020D8030020000000208C
:1035C800E534000880B483B000AF78600B46FB7028
:1035D800FB78002B05D07B681A68137843F0010349
:1035E8001370FB7883F00103DBB2002B05D07B68F6
:1035F8001A6813786FF30003137000BF0C37BD46C9
:103608005DF8047B704780B483B000AF78600B46E8
:10361800FB70FB78002B04D07B681B68012283F8C1
:103628002620FB7883F00103DBB2002B04D07B68F3
:103638001B68002283F8262000BF0C37BD465DF8C2
:10364800047B704780B400AF01231846BD465DF87F
:10365800047B704780B500AF0F4B1B6803F0010374
:10366800002B0AD100F092FE0346062219460B48A9
:10367800FDF77AFC084B01221A6000F057F903465F
:10368800184600F08DFE054B1B68184601F0C2F87D
:10369800024B184680BD00BFF4040020EC04002053
:1036A80080B400AF01231846BD465DF8047B70471F
:1036B800F0B587B002AF0346FB8001F099F8052307
:1036C800FB600123FB72214B1B6803F00103002BF5
:1036D80019D101F095F80446FFF7BCFF0546FFF73E
:1036E800B1FF03461E46FFF7DBFF03461A46FB8879
:1036F8000193009233462A4621461548FDF764FE99
:10370800124B01221A6000F011F90346184601F025
:1037180095F80F4B1B680621184601F09EF80346E2
:10372800184601F0B0F803461846FDF7B2FC034608
:103738001846FDF79EFC40F603210648FDF788FD74
:10374800034B18461437BD46F0BD00BF18050020CE
:10375800F80400200805002080B582B000AF78602A
:10376800102000F045FB02467B681A607B681B68E6
:10377800184600F0E7FB02467B685A607B681B68C6
:10378800184600F058FC02467B689A607B681B6804
:10379800184600F0C9FC02467B68DA607B68184668
:1037A8000837BD4680BD0000B0B5ADF5147D04AF47
:1037B8005D4B07F500741D460FCD0FC40FCD0FC428
:1037C80095E8070003C4228007F5CA7307F500725D
:1037D80011461846FFF768FCFFF774FCC7F83C026F
:1037E800FFF796FCC7F8380297F80432B7F80212C8
:1037F8001846FFF787FE0346C7F89031D7F890318F
:103808009433C7F83432D7F83432C7F82C32D7F8A3
:103818009031DC330021184600F087FF024607F597
:103828000B731946104600F09AFF07F50073C7F8A6
:103838003032D7F89031DC330121184600F075FF9B
:10384800024607F50C731946104600F0B2FFD7F888
:1038580090310A22A3F87220B7F80022D7F89031E5
:10386800A3F8742097F804329AB2D7F89031A3F8E5
:103878007820D7F89031B7F80222A3F87620D7F845
:103888009031FF22A3F8B820D7F890310122A3F88D
:103898009820D7F89031FF22A3F8BA20D7F89031B2
:1038A8000022A3F8A820D7F890317822A3F8CA20DC
:1038B800D7F890310022A3F8AA20D7F890317822BF
:1038C800A3F8CC204FF4C870FFF7F2FE0346C7F800
:1038D8008C3107F5BE731846FFF73EFFD7F88C21E9
:1038E80007F5BE7107F10C0007F500730293D7F8CE
:1038F80034320193D7F838320093D7F83C3200F0CD
:10390800EBFFD7F8901107F10C023B1D184601F0A8
:1039180047F907F10C03184601F056F93B1D184604
:1039280001F092FD30BFF4E7B8A8000880B400AFFA
:10393800024B1846BD465DF8047B704700380240CC
:1039480080B400AF024B1846BD465DF8047B704753
:10395800003C014090B589B000AF78600023FB605F
:1039680007F1100307F10C011022184601F06CFE54
:1039780007F110030121184601F080FE07F110033A
:10398800184601F070FE07F10C03184601F0A0FE7E
:1039980004467B6814331846FEF7DDFC03461C60BA
:1039A8007B6818462437BD4690BD000080B400AF40
:1039B800024B1846BD465DF8047B70470010014075
:1039C80080B400AF024B1846BD465DF8047B7047D3
:1039D8000044004080B400AF024B1846BD465DF875
:1039E800047B70470048004080B400AF024B184683
:1039F800BD465DF8047B70470060024080B400AFAC
:103A0800024B1846BD465DF8047B704700640240CF
:103A180080B582B000AF78607B681846FEF720FA60
:103A28007B6818460837BD4680BD80B584B000AFB6
:103A380078607B681A6807F10C031146184601F094
:103A480063FEFB6818461037BD4680BD80B483B05E
:103A580000AF78607B6800221A607B6818460C37D4
:103A6800BD465DF8047B704780B584B000AF7860D0
:103A78000023FB6007F10C031846FFF7E7FFFB681C
:103A880018461037BD4680BD80B483B000AF78605B
:103A980039607B681A683B681B689A4214BF012327
:103AA8000023DBB218460C37BD465DF8047B70472F
:103AB80080B483B000AF78607B681B685A687B6805
:103AC8001A607B6818460C37BD465DF8047B704762
:103AD80080B483B000AF78607B681B6818460C37E9
:103AE800BD465DF8047B704780B483B000AF786052
:103AF8007B681B8818460C37BD465DF8047B704709
:103B080080B483B000AF78607B681B6818460C37B8
:103B1800BD465DF8047B704780B582B000AF786021
:103B28007B681846FEF7BDF9034683F00103DBB254
:103B380018460837BD4680BD80B582B000AF7860B2
:103B48007B681846FEF7ADF90346002B01D006F056
:103B5800FDFD7B68DB687A681046984700BF083728
:103B6800BD4680BD80B483B000AF786039607B68A3
:103B78005A683B685A607B685B68002B03D07B6897
:103B88005B683A689A607B683A685A607B681B6829
:103B9800002B02D17B683A681A6000BF0C37BD461B
:103BA8005DF8047B704780B483B000AF78603960FB
:103BB8003B685B68002B0ED03B689B68002B0AD0E3
:103BC8003B685B683A6892689A603B689B683A68A9
:103BD80052685A602DE03B689B68002B0FD03B6809
:103BE8009A687B681A607B681B6800225A607B6849
:103BF8001B68002B1DD17B6800225A6019E03B68C6
:103C08005B68002B0FD03B685A687B685A607B68FA
:103C18005B6800229A607B685B68002B09D17B682F
:103C280000221A6005E07B6800221A607B68002287
:103C38005A603B6800225A603B6800229A6000BFC5
:103C48000C37BD465DF8047B704780B584B000AF83
:103C580078607B681A6807F10C031146184601F072
:103C680062FDFB6818461037BD4680BD80B483B03E
:103C780000AF78607B6800221A607B6818460C37B2
:103C8800BD465DF8047B704780B584B000AF7860AE
:103C98000023FB6007F10C031846FFF7E7FFFB68FA
:103CA80018461037BD4680BD80B483B000AF786039
:103CB80039607B681A683B681B689A4214BF012305
:103CC8000023DBB218460C37BD465DF8047B70470D
:103CD80080B483B000AF78607B681B689A687B68A3
:103CE8001A607B6818460C37BD465DF8047B704740
:103CF80080B483B000AF78607B681B6818460C37C7
:103D0800BD465DF8047B704780B400AF024B18468F
:103D1800BD465DF8047B704710E000E080B584B0D4
:103D280000AF78600D4BFB6000217868FEF73FFF1D
:103D38000A497868FEF7FCFE7868FEF707FF01215C
:103D48007868FEF710FF7868FEF722FF012178688F
:103D5800FEF72DFF00BF1037BD4680BD3F90020023
:103D680080B584B000AFF860B9607A60FB681B6802
:103D7800591CFA681160BA68B3FBF2F2B96801FB22
:103D880002F29B1A002B0CBF01230023DBB2002B8D
:103D980003D03B1D1846FFF71AF800BF1037BD4681
:103DA80080BD000080B400AF024B1846BD465DF8E8
:103DB800047B70471402002080B582B000AF7860A1
:103DC800064A7B681A607B6834331846FEF75CFD48
:103DD8007B6818460837BD4680BD00BF40AB000869
:103DE80080B400AF00231846BD465DF8047B7047D9
:103DF800B0B58AB004AF78601C237B61FFF7D2FFAF
:103E08003861464B1B6803F00103002B1BD101F0FE
:103E180099FC044601F0A0FC054601F0A7FC024607
:103E2800242302933B69019300922B46224679682A
:103E38003B48FEF767FD394B01221A60394A3A4977
:103E4800374806F07EFCFFF771FD0346184601F07F
:103E580097FC334B1B6A00211846FDF750FB0346BD
:103E68001846FDF772FB03461846FDF738FB034674
:103E780001211846FDF779FB294B5B6A0321184697
:103E8800FDF78FFD264B1B6A1846FDF74EFBFFF723
:103E98004DFD0346184601F082FC214B1B6A18466B
:103EA800FDF779FB0346FB601D4B9B6AF9681846D2
:103EB800FDF719FF034600211846FDF733FF0346B7
:103EC80001211846FDF744FF034601211846FDF776
:103ED80055FF03461846FDF7D7FE03461846FDF77B
:103EE80079FF03461846FDF7DFFE0D4B9B6A18461F
:103EF800FDF7DAFE0A4B9C6AFFF772FF0346194684
:103F08002046FDF751FF064BDB6A1846FEF70CF812
:103F1800034B18461837BD46B0BD00BF60050020EA
:103F28001C05002000000020C13D000880B483B0BB
:103F380000AF78607B685B6818460C37BD465DF853
:103F4800047B7047B0B584B000AF786001F05CFCCA
:103F5800F8607B681A6A7B681B6B1946104601F08B
:103F68006DFCB860FB68BA681A617B681B6ABA683E
:103F7800D1B207221846FDF71AFB7B68186A7B68DE
:103F8800DB695A1C7B68DA617B68DB69BA68D2B284
:103F98001946FDF711FC7B681A6A7B68DB691946CC
:103FA8001046FDF7E6FC7B6803F108047B680833DC
:103FB8001846FFF73AFD05467B6808331846FFF7B1
:103FC80053FD0146BB681A46284601F0ACFC03467F
:103FD800FA681946204601F045FC7B6803F1100297
:103FE8007B689B691946104601F0B2FC7B689B6AA6
:103FF8001846FDF739FE04467B6810331846FEF76D
:1040080050FC034619462046FDF75EFE04467B68D1
:1040180010331846FFF78AFF03469BB2194620461D
:10402800FDF770FE03461846FDF703FEFB681846C9
:104038001037BD46B0BDB0B584B000AF786001F0B0
:10404800DBFCF8607B681A6A7B681B6B19461046B4
:1040580001F0ECFCB860FB68BA681A617B681B6AFF
:10406800BA68D1B207221846FDF7A1FA7B68186A28
:104078007B68DB695A1C7B68DA617B68DB69BA6834
:10408800D2B21946FDF798FB7B681A6A7B68DB6930
:1040980019461046FDF76DFC7B6803F108047B6840
:1040A80008331846FFF7C1FC05467B6808331846F5
:1040B800FFF7DAFC0146BB681A46284601F0CAFC3D
:1040C8000346FA681946204601F0CCFB7B6803F1E9
:1040D80010027B689B691946104601F039FC7B6821
:1040E8009B6A1846FDF7C0FD04467B6810331846E6
:1040F800FEF7D7FB034619462046FDF7E5FD0446C3
:104108007B6810331846FFF711FF03469BB2194628
:104118002046FDF7F7FD03461846FDF78AFDFB68C4
:1041280018461037BD46B0BDB0B584B000AF786052
:1041380001F0CAFCF8607B681A6A7B681B6B194639
:10414800104601F0DBFCB860FB68BA681A617B684E
:104158001B6ABA68D1B207221846FDF728FA7B68AD
:10416800186A7B68DB695A1C7B68DA617B68DB69E3
:10417800BA68D2B21946FDF71FFB7B681A6A7B68DA
:10418800DB6919461046FDF7F4FB7B6803F1080468
:104198007B6808331846FFF748FC05467B680833F8
:1041A8001846FFF761FC0146BB681A46284601F02D
:1041B800B9FC0346FA681946204601F053FB7B68B0
:1041C80003F110027B689B691946104601F0C0FB99
:1041D8007B689B6A1846FDF747FD04467B681033E9
:1041E8001846FEF75EFB034619462046FDF76CFDB0
:1041F80004467B6810331846FFF798FE03469BB2C7
:1042080019462046FDF77EFD03461846FDF711FDC9
:10421800FB6818461037BD46B0BD80B500AF01F049
:1042280095FC034605211846FCF718FDFFF77EFBB1
:1042380003461846FCF774FC03461846FCF780FC56
:10424800034600211846FCF7C3FB03460521184620
:10425800FCF7D4FB034604211846FCF7E5FB0346AC
:1042680002211846FCF7F6FB0346184601F078FCD5
:104278000346184601F085FC0346184601F092FCF7
:10428800034600211846FCF7FBFB034601211846AC
:10429800FCF70CFC03461846FCF768FC0346184676
:1042A800FCF774FC00BF80BD80B582B000AF7860B9
:1042B8003960786801F0CAFC7B683A685A613968E5
:1042C800786801F02DFD7B681846FEF707FE7B68CD
:1042D80018460837BD4680BD80B400AF024B18466B
:1042E800BD465DF8047B70470008024080B483B087
:1042F80000AF78607A68136B43F00403136300BF60
:104308000C37BD465DF8047B704780B582B000AFBE
:1043180078600121786801F0C8FD0021786801F013
:10432800DAFD00BF0837BD4680BD000080B400AF8D
:10433800024B1846BD465DF8047B704700040240F6
:1043480080B483B000AF78607A68136B43F00203DF
:10435800136300BF0C37BD465DF8047B704780B51A
:1043680082B000AF78600121786801F0CAFD0021B1
:10437800786801F0DCFD00BF0837BD4680BD80B419
:1043880000AF00BFBD465DF8047B704780B400AF46
:10439800024B1846BD465DF8047B7047000002409A
:1043A80080B483B000AF78607A68136B43F0010380
:1043B800136300BF0C37BD465DF8047B704780B5BA
:1043C80082B000AF78600221786801F0C6FD07214D
:1043D800786801F0D8FD0021786801F0EAFD00BF97
:1043E8000837BD4680BD80B582B000AF7860022135
:1043F800786801F0F4FD0721786801F006FE0021D5
:10440800786801F018FE00BF0837BD4680BD80B54A
:1044180082B000AF78600121786801F022FE0021A7
:10442800786801F034FE00BF0837BD4680BD000043
:1044380080B400AF024B1846BD465DF8047B704758
:10444800B864024080B400AF024B1846BD465DF820
:10445800047B70474064024080B483B000AF78604A
:104468007B680022C3F800217B680022C3F804217E
:104478007B6818460C37BD465DF8047B704780B5ED
:1044880084B000AFF860B9607A603B60FB6818469A
:10449800FFF7E2FFFB68BA68C3F80821FB687A688F
:1044A800C3F80C21FB683A68C3F81021FB68FA6965
:1044B800C3F81421FB68BA69C3F81821FB683A6A83
:1044C800C3F81C21FB687A6AC3F82021FB68BA6A22
:1044D800C3F82421FB6897F82C2083F82821FB686F
:1044E80018461037BD4680BD80B483B000AF7860F1
:1044F8007A68536C43F01003536400BF0C37BD4611
:104508005DF8047B704780B483B000AF78607A6848
:10451800136B43F48003136300BF0C37BD465DF88B
:10452800047B704780B582B000AF7860786801F08E
:10453800C4FD034618460837BD4680BDB0B582B0F5
:1045480000AF78607B6801241D46002C05DB2846F7
:1045580001F0FCFD1035013CF7E77B681846083789
:10456800BD46B0BD80B584B000AFF8607A603B60EE
:104578000B46FB72FB681846FEF7E6FB2F4AFB6802
:104588001A60FB687A681A61FB683A685A61FB68C6
:10459800BA699A61FB680022DA61FB6800221A6234
:1045A800FB68FA7A83F82420FB680022DA84FB6827
:1045B80000221A85FB6800225A85FB68002283F8CE
:1045C8002C20FB6800221A86FB683833F9681846E5
:1045D80001F080FDFB684433F968184601F098FD46
:1045E800FB68503322220021184606F0F6F8FB68D3
:1045F800723324220021184606F0EFF8FB68963340
:1046080022220021184606F0E8F8FB68B833222277
:104618000021184606F0E1F8FB68DC331846FFF77E
:104628008DFFFB68FC3300221A605A609A60DA60DA
:104638001A74FB6818461037BD4680BDECAA0008FE
:1046480080B582B000AF786039607B68D3F8180114
:104658003B681B78C3F34213DBB219467B68D3F877
:1046680024311A46FDF7D4FD02463B681B78C3F394
:104678004003DBB219461046FDF79FFC02463B6833
:104688001B78C3F38003DBB219461046FDF7ABFC79
:1046980002463B681B78C3F3C103DBB219461046D8
:1046A800FDF7B7FC02463B681B78C3F30003DBB297
:1046B80019461046FDF733FD03461846FDF7BFFCC3
:1046C80000BF0837BD4680BD80B582B000AF7860B6
:1046D8007B68184601F047FD7B68D3F8103100214C
:1046E8001846FCF795FC7B68D3F81C311846FDF793
:1046F800BBFA7B68D3F820311846FDF7B5FA0346B4
:10470800FF211846FDF7FEFA7B68D3F820311846DA
:10471800FDF78FFA7B68D3F8183101211846FDF7A9
:1047280013FD00BF0837BD4680BD80B582B000AF1D
:10473800786039607B683968184601F026FD0346C1
:1047480018460837BD4680BD80B483B000AF786096
:104758007B6818460C37BD465DF8047B704780B50A
:1047680086B000AF786039603868FFF7EDFF024621
:1047780007F108031168184601F022FD07F1080344
:104788007968184601F046FD07F108031846FEF758
:1047980081FE7B6818461837BD4680BD80B483B05B
:1047A80000AF78607B6818460C37BD465DF8047B1F
:1047B800704780B586B000AF786039603868FFF719
:1047C800EDFF024607F108031168184601F04EFD97
:1047D80007F108037968184601F01CFD07F1080382
:1047E8001846FEF757FE7B6818461837BD4680BD49
:1047F80080B400AF00BFBD465DF8047B7047000081
:1048080080B400AF024B1846BD465DF8047B704784
:104818000004004080B582B000AF7860022178685B
:1048280001F04EFD0221786801F060FD00217868F2
:1048380001F072FD00BF0837BD4680BD80B483B06B
:1048480000AF78607A68136C43F00203136400BF0A
:104858000C37BD465DF8047B704780B483B000AF69
:1048680078600B46FB70FB7803F00703D9B27A68CF
:10487800936961F3061393617B6818460C37BD464C
:104888005DF8047B704780B483B000AF78607A68C5
:10489800936943F0080393617B6818460C37BD465B
:1048A8005DF8047B7047000080B582B000AF786087
:1048B8007B681846FEF748FA064A7B681A607B68E8
:1048C80000221A617B6800225A617B681846083703
:1048D800BD4680BD1CAB000890B585B000AFF86040
:1048E800B9607A603B60FB6801221A70FB6800229D
:1048F8005A70FB6800229A70FB680022DA70FB6825
:1049080003221A71FB6800225A71FB68BA689A6020
:10491800FB687A68DA60FB683A681A61FB683A6A89
:104928005A61FB687A6A9A61FB68BA6ADA61FB685D
:1049380003F120044FF0C8004FF00001FCF78BFA98
:10494800034619462046FEF715FAFB6803F13804BA
:104958004FF4FA704FF00001FCF77DFA0346194650
:104968002046FEF707FAFB6803F150044FF00100F8
:104978004FF00001FCF77BFA034619462046FEF784
:10498800F9F9FB6803F168044FF001004FF00001EA
:10499800FCF76DFA034619462046FEF7EBF9FB686B
:1049A800803300221A605A609A60DA601A615A618C
:1049B800FB6880331846FFF777FFFB6803F198041C
:1049C8004FF032004FF00001FCF745FA0346194654
:1049D8002046FEF7CFF9FB68B03300221A605A6010
:1049E8009A60DA601A615A61FB68B0331846FFF7BB
:1049F8005BFFFB6803F1C802FB68DB691B8B194688
:104A08001046FEF7B7F9FB68E03300221A605A60D7
:104A18009A60DA601A615A61FB68E0331846FFF75A
:104A280043FFFB68F83300221A605A609A60DA6024
:104A38001A615A61FB68F8331846FFF735FFFB68BF
:104A480003F5887300221A605A609A60DA601A6166
:104A58005A61FB6803F588731846FFF725FFFB6862
:104A68000022A3F82821FB680022A3F82A21FB686A
:104A78000022A3F82C21FB680022A3F82E21FB6852
:104A88000022A3F83021FB680022A3F83221FB683A
:104A98000022A3F83421FB680022A3F83621FB6822
:104AA8000022A3F83821FB680022A3F83A21FB680A
:104AB8000022A3F83C21FB680022A3F83E214FF016
:104AC80001004FF00001FCF7B6F903469AB2FB6803
:104AD800A3F840214FF013004FF00001FCF7ABF9A9
:104AE80003469AB2FB68A3F842214FF019004FF031
:104AF8000001FCF7A0F903469AB2FB68A3F8442129
:104B0800FB68C822A3F846214FF00A004FF00001C5
:104B1800FCF785F903461AB2FB68A3F848214FF061
:104B280000004FF00001FCF77AF903461AB2FB685F
:104B3800A3F84A21FB68002283F84C21FB68012274
:104B480083F84D21FB68002283F84E21FB6803F5AA
:104B5800A87300221A605A609A60DA601A61FB68CA
:104B6800002283F86421FB682122C3F86821FB68CE
:104B780041F2EC32C3F86C21BB681B681846FDF79C
:104B880005FF4FF005004FF00001FCF764F90246FD
:104B9800FB68C3F89020FB6818461437BD4690BDE3
:104BA80080B485B000AFF860B9607A60FB68BA6815
:104BB8001A60FB687A685A60FB6818461437BD4665
:104BC8005DF8047B7047000090B583B000AF786053
:104BD8007B689B691B78C3F30013DBB219467B68BB
:104BE800B3F828217B68DB6993F822309BB29A429C
:104BF8008CBF01230023DBB241EA03027B689B6977
:104C0800002A14BF01220022D1B21A7861F30412DB
:104C18001A701B78C3F30013DBB2002B15D07B6826
:104C2800B3F828117B68DB6993F823309BB27A6864
:104C3800926999428CBF01230023D9B2137861F39A
:104C4800041313707B6806225A707B689B691B7873
:104C5800C3F30003DBB2002B0CD07B689B691846BA
:104C6800FEF7FAF9034683F00103DBB2002B01D00B
:104C7800012200E000227B6883F84C217B6893F8CE
:104C88004C31002B0AD07B6893F84D31002B05D0AE
:104C98007B68DB681846FCF7C2FB04E07B68DB68CE
:104CA8001846FCF7CCFB786801F04CFB7B689B68E6
:104CB8009B681846FDF782FD03469BB21946786843
:104CC80001F086FB03461A467B68A3F830217B680F
:104CD8009B68DB681846FDF771FD03469BB21946D1
:104CE800786801F0DFFB7B68DB6993F82630002BDE
:104CF80006D07B689B691B78C3F34003D9B200E0F8
:104D080000217B689A69137861F3410313707B680B
:104D1800DB6993F82630002B09D07B68DB681846DE
:104D2800FCF79DFB0346002B01D0012300E0002384
:104D3800002B0DD07B6838331846FEF77BF8034606
:104D48001A467B681B6911461846FCF776F90CE091
:104D58007B68DB681846FCF782FB03461A467B68CB
:104D68001B6911461846FCF753F97B68DB691A89F9
:104D78007B68B3F84031D31A9AB27B68A3F8422112
:104D88007B68DB691A897B68B3F8403113449AB2AF
:104D98007B68A3F844217B68DB6993F821309BB2D8
:104DA8009B009AB27B68A3F846217B685B78062B48
:104DB80000F2D68101A252F823F000BFE14D0008AD
:104DC800594F0008AD4F000865500008DD50000835
:104DD80023500008115100087B6893F84E31002BCE
:104DE80000F083807B68DB6993F82630002B46D07F
:104DF8007B689A69137843F0020313707B68DB6958
:104E080093F82430002B18D07B68B3F846217B68D0
:104E1800DB68183311461846FCF782FA7B68DB69B1
:104E28001A897B68DB68103311461846FCF710FABC
:104E38000221786801F05CFB74E07B680022A3F82B
:104E48002C217B680022A3F832217B680022A3F87A
:104E580034217B68DB68183364211846FCF760FA54
:104E68007B68B3F844217B68DB6810331146184629
:104E7800FCF7EEF90121786801F03AFB52E07B6813
:104E8800DB6993F8263083F00103DBB2002B09D0ED
:104E98007B68DB681846FCF7E2FA0346002B01D072
:104EA800012300E00023002B03D0786801F033FBD6
:104EB80038E07B68DB6993F82430002B0AD07B68E4
:104EC800DB695A8A7B68DB68103311461846FCF7A1
:104ED800BFF927E07B68DB699A8A7B68DB68103357
:104EE80011461846FCF7B4F91CE07B68DB681833F8
:104EF80064211846FCF714FA7B68DB691A897B6819
:104F0800DB68103311461846FCF7A2F97B68DB68AA
:104F18001846FCF7A4FA0346002B03D07B6801224D
:104F280083F84E217B68DB6993F82830002B00F06A
:104F38000C817B68F8331846FDF797FF7B6803F50B
:104F480088731846FDF791FF7B6803221A71FCE00D
:104F58007B68DB681846FCF782FA0346002B11D001
:104F6800786801F01DFB034683F00103DBB2002BD8
:104F780008D07B689A6913786FF3410313707868D7
:104F880001F0C9FA7B68DB681846FCF768FA034643
:104F980083F00103DBB2002B00F0D9807B6800228C
:104FA8005A70D4E07B68B3F82A217B68DB68103339
:104FB80011461846FCF74CF97B68DB6993F82630F4
:104FC80083F00103DBB2002B19D07B689A69137850
:104FD8006FF3410313707B68DB6803F110027B6891
:104FE800DC691046FCF715F9034663827B68DB69C8
:104FF8007A68B2F82C211A82786801F08CFA7B68FA
:10500800DB6993F8243083F00103DBB2002B00F056
:10501800A0807B6800225A709BE0786801F096FBBC
:105028000346002B09D00321786801F061FA7B68F8
:10503800DB697A68B2F83021DA837B68DB68184666
:10504800FCF70DFA034683F00103DBB2002B00F0F6
:1050580082800021786801F04BFA7CE07B68DB698C
:1050680093F82730002B03D0786801F0C9FB1BE0C8
:105078007B68DB6993F82830002B03D0786801F04F
:1050880087FC11E07B689B695B78C3F30003DBB2A4
:10509800002B03D0786801F007FD05E07B689A696A
:1050A80053786FF3410353707B689B691B78C3F394
:1050B8000003DBB283F00103DBB2002B4DD00021EB
:1050C800786801F015FA7B6800221A707B68002264
:1050D800DA7042E07B68B3F82A217B68DB6810331A
:1050E80011461846FCF7B4F87B68DB681846FCF7ED
:1050F800B6F9034683F00103DBB2002B2FD0002161
:10510800786801F0F5F92AE07B689B691846FDF795
:10511800A3FF0346002B0DD07B6838331846FDF7F4
:1051280089FE03461A467B685B6911461846FBF7F9
:1051380084FF15E07B685B6900211846FBF768FF70
:105148007B685A797B685A700AE000BF08E000BFA4
:1051580006E000BF04E000BF02E000BF00E000BFBF
:1051680000BF0C37BD4690BD80B483B000AF7860F7
:105178000B467B807B88102B00F25D8101A252F8E0
:1051880023F000BFD1510008FD5100082352000848
:1051980041520008795200088F520008A5520008B1
:1051A800D5520008BF520008EB520008055300080A
:1051B8001F530008355300084F5300086553000873
:1051C8007B530008915300087B681B681A687B684A
:1051D8001B681B68B2F85020A3F876207B681B6810
:1051E8001B6803F176027B681B685B68DB691288C1
:1051F8005A8020E17B681B681A687B681B681B68FB
:10520800B2F85220A3F87820B3F878207B681B689E
:105218005B68DB69D2B21A710DE17B681B681B6899
:10522800B3F8543040F2B74293420CBF0123002335
:10523800DAB2844B1A70FEE0824B1B78002B13D035
:10524800804B00221A707B681B681A687B681B6891
:105258001B68B2F85620A3F874207A68126852685E
:10526800D269B3F874301380764B01221A70E2E0E9
:105278007B681B681A687B681B685B68B2F85820F3
:10528800A3F82A21D7E07B681B681A687B681B682B
:105298005B68DB69B2F85A201A81CCE07B681B682E
:1052A8001B68B3F85C207B681B685B68DB69D2B25B
:1052B80083F82120BFE07B681B681A687B681B683D
:1052C8005B68DB69B2F860209A81B4E07B681B6890
:1052D8001A687B681B685B68DB69B2F85E205A81D4
:1052E800A9E07B681B681B68B3F862207B681B68B1
:1052F8005B68DB69D2B283F822209CE07B681B687C
:105308001B68B3F864207B681B685B68DB69D2B2F2
:1053180083F823208FE07B681B681A687B681B680A
:105328005B68DB69B2F86620DA8284E07B681B6818
:105338001B68B3F868207B681B685B68DB69D2B2BE
:1053480083F8202077E07B681B681A687B681B68F5
:105358005B68DB69B2F86A201A836CE07B681B68BB
:105368001A687B681B685B68DB69B2F86C205A8333
:1053780061E07B681B681A687B681B685B68DB698F
:10538800B2F86E209A8356E07B681B681A687B68BF
:105398001B685B68DB6992F87020C2F38002D2B2A6
:1053A80083F825207B681B681A687B681B685B6824
:1053B800DB6992F87020C2F3C002D2B283F82420CD
:1053C8007B681B681B687A6812685268926993F850
:1053D8007130C3F30003D9B2537861F300035370FB
:1053E8007B681B681A687B681B685B68DB6992F8D6
:1053F8007120C2F38002D2B283F827207B681B6831
:105408001A687B681B685B68DB6992F87120C2F3D5
:10541800C002D2B283F828207B681B681A687B68B0
:105428001B685B68DB6992F87120C2F30012D2B284
:1054380083F8292000BF00BF0C37BD465DF8047B08
:10544800704700BF64050020B0B582B000AF786037
:105458007B685B68DA697B681B681289A3F87E2021
:105468007B685B68DB6803F110027B681C68104688
:10547800FBF7CFFE0346A4F880307B685B68DA69E7
:105488007B681B685289A3F884207B685B68DA69AB
:105498007B681B68528AA3F882207B685B68DA699C
:1054A8007B681B689289A3F888207B685A687B68A8
:1054B8001B68B2F83021A3F886207B685A687B689D
:1054C8001B68B2F82821A3F88E207B685B68DB692B
:1054D80093F822207B681B6892B2A3F890207B681F
:1054E8005B68DB6993F823207B681B6892B2A3F89A
:1054F80092207B685A687B685B68DB69D9897B681E
:105508001C68104600F064FF0346A4F88A307B68E4
:105518005A687B685B68DB69198A7B681C68104677
:1055280000F056FF0346A4F88C307B685B68DB69A3
:1055380093F821207B681B6892B2A3F87A207B68D5
:105548005B68DB6818331846FBF7CAFE03461A4641
:105558007B681B68920892B2A3F87C207B685B6822
:10556800DB697A68126893F8251092F8943061F331
:10557800820382F894307B685B68DB697A6812681A
:1055880093F8241092F8943061F3C30382F89430AE
:105598007B681A6892F8943043F0800382F894305C
:1055A8007B685B689B697A6812681B78C3F3001391
:1055B800D9B292F8943061F3041382F894307B687E
:1055C8005B689B697A6812681B78C3F34013D9B289
:1055D80092F8943061F3451382F894307B685B68E5
:1055E8009B697A6812681B78C3F38013D9B292F862
:1055F800943061F3861382F894307B685B689B690A
:105608007A6812685B78C3F34003D9B292F8953090
:1056180061F3410382F895307B685B68DB697A68DF
:10562800126893F8271092F8953061F3820382F894
:1056380095307B681B6879682A46184601F013FC88
:1056480000BF0837BD46B0BD80B584B000AFF86074
:10565800B9607A607A68B968F86801F08FFCF86810
:105668001037BD4680BD80B483B000AF78607B68DA
:1056780018460C37BD465DF8047B704780B582B08C
:1056880000AF78600B46FB70FB78002B0DD07B6871
:105698005B681846FCF739FE01467B681B681A6888
:1056A8007B681B680A431A600DE07B685B681846D4
:1056B800FCF72BFE0346D9437B681B681A687B6896
:1056C8001B680A401A607B6818460837BD4680BDCB
:1056D80080B582B000AF78607B681846FCF72FFE73
:1056E800034618460837BD4680BD000080B582B025
:1056F80000AF78607968034801F059FC00BF0837AB
:10570800BD4680BD8C00002080B483B000AF7860B7
:1057180039607B683A681A607B6818460C37BD4662
:105728005DF8047B704780B483B000AF786039605F
:105738007B683A681A607B6818460C37BD465DF886
:10574800047B704780B400AF024B1846BD465DF835
:10575800047B70470020014080B400AF024B18461C
:10576800BD465DF8047B70470023014080B400AF5C
:10577800024B1846BD465DF8047B70471064024032
:1057880080B483B000AF78607A68536C43F4807358
:10579800536400BF0C37BD465DF8047B704780B486
:1057A80083B000AF78607A68136B43F480031363A7
:1057B80000BF0C37BD465DF8047B704780B500AF6D
:1057C8000F4B1B6803F00103002B0AD1FEF7DEFD27
:1057D8000346002219460B48FBF7C6FB084B01227B
:1057E8001A60FEF7A3F803461846FEF7D9FD054BE5
:1057F8001B68184601F0F1FB024B184680BD00BF3C
:10580800700500206805002080B500AF094B1B68B3
:1058180003F00103002B09D1FFF7D0FF0346194617
:105828000548FDF70BF8034B01221A60024B184696
:1058380080BD00BF880500207405002080B483B0B7
:1058480000AF786039603B68242B02D03B68252B79
:1058580001D1002300E0002318460C37BD465DF84F
:10586800047B704790B587B000AFF860B9607A6084
:1058780007F108031846FEF743F90446F868FEF7EF
:10588800D4F803463B6107F110031846FEF738F9D0
:1058980003469C420CBF01230023DBB2002B04D03B
:1058A8007968F86801F0A9FB39E007F108031846A0
:1058B800FEF726F90446F868FEF7D6F803467B613A
:1058C80007F114031846FEF71BF903469C420CBF68
:1058D80001230023DBB2002B04D07968F86801F0BB
:1058E800ADFB1CE007F10803184601F0C8FB0346AE
:1058F8001A687B681A6007F108031846FEF700F972
:1059080002467B685A607C6807F10803184601F074
:10591800B6FB03461C607B681B687A685A6000BF48
:105928001C37BD4690BD80B584B000AFF860B96043
:105938007A60786801F0BAFB03461A46B968F868D5
:1059480001F0D2FB034618461037BD4680BD000063
:1059580080B582B000AF786039607B681B68002B27
:1059680008D07B681B68002B04D07B681B6818462E
:10597800FFF7BCFE7B685A683B681A447B685A602C
:105988007B685B68084A934201D85B0001E04FF0EE
:10599800FF33184601F0BEFB02467B681A6000BF61
:1059A8000837BD4680BD00BFFCFFFF3F80B500AF94
:1059B8000F4B1B6803F00103002B0AD1FEF7E6FC2E
:1059C8000346012219460B48FBF7CEFA084B012281
:1059D8001A60FDF7ABFF03461846FEF7E1FC054BDE
:1059E8001B68184601F0A6FB024B184680BD00BF95
:1059F800940500208C05002080B500AF094B1B687A
:105A080003F00103002B09D1FFF7D0FF0346194625
:105A18000548FCF713FF034B01221A60024B184696
:105A280080BD00BFAC0500209805002080B483B07D
:105A380000AF786039603B68242B02D03B68252B87
:105A480001D1012300E0002318460C37BD465DF85C
:105A5800047B704780B584B000AFF860B9607A60A5
:105A6800786801F082FB03461A46B968F86801F0C5
:105A780090FB034618461037BD4680BD80B500AF81
:105A88000F4B1B6803F00103002B0AD1FEF77EFCC5
:105A98000346022219460B48FBF766FA084B012217
:105AA8001A60FDF743FF03461846FEF779FC054BDD
:105AB8001B68184601F083FB024B184680BD00BFE7
:105AC800B8050020B005002080B500AF094B1B6861
