:020000040800F2
:100000000000022009AD000859AD000859AD0008F4
:1000100059AD000859AD000859AD000800000000B6
:1000200000000000000000000000000059AD0008C2
:1000300059AD00080000000059AD0008D531000896
:100040008B280008D5290008912800089728000867
:100050009D280008A3280008A9280008AF28000848
:10006000B5280008BB280008C1280008692A000834
:10007000892A0008A92A0008C92A0008E92A0008D4
:10008000092B0008292B0008C7280008CD280008E4
:10009000D3280008D9280008DF280008E528000830
:1000A00081290008872900088D2900089329000864
:1000B000992900089F290008A5290008EB280008B5
:1000C000F1280008F7280008FD280008692C00081E
:1000D0007D2C0008092A0008292A0008492A00085E
:1000E00003290008092900080F290008BD29000874
:1000F000C3290008C9290008CF290008492B000896
:10010000152900081B290008AB290008912C0008BC
:100110002129000827290008B1290008B72900086B
:10012000692B0008892B0008A92B0008C92B00089F
:10013000E92B000800000000000000002D29000845
:1001400033290008392900083F29000845290008FB
:10015000092C0008292C0008492C00084B2900080C
:1001600051290008572900085D2900086329000863
:10017000692900086F290008000000000000000045
:08018000752900087B29000825
:100188000348044B834202D0034B03B1184770471E
:10019800700000207000002000000000054806499B
:1001A8000B1AD90F01EBA301491002D0034B03B17D
:1001B8001847704770000020700000200000000001
:1001C80010B5064C237843B9FFF7DAFF044B13B197
:1001D8000448AFF300800123237010BD7000002095
:1001E8000000000094AD000808B5044B1BB1044999
:1001F8000448AFF30080BDE80840CFE700000000E6
:100208007400002094AD000808B5062000F082FABA
:10021800012000F02FFE00BF10B5054C34B1134685
:100228000A460146022000F0ADFA10BD204610BD76
:100238008D07000870B50D4E0D4D761BB61006D013
:100248000024013455F8043B9847A642F9D1094ED9
:10025800094D761B0AF09AFDB61006D00024013429
:1002680055F8043B9847A642F9D170BDDCB10008A7
:10027800DCB10008E4B10008DCB10008024B01461B
:10028800186800F04BB900BF04000020024B01467B
:10029800186800F0EDB800BF04000020844641EA69
:1002A800000313F003036DD1403A41D351F8043BE6
:1002B80040F8043B51F8043B40F8043B51F8043B38
:1002C80040F8043B51F8043B40F8043B51F8043B28
:1002D80040F8043B51F8043B40F8043B51F8043B18
:1002E80040F8043B51F8043B40F8043B51F8043B08
:1002F80040F8043B51F8043B40F8043B51F8043BF8
:1003080040F8043B51F8043B40F8043B51F8043BE7
:1003180040F8043B51F8043B40F8043B51F8043BD7
:1003280040F8043B51F8043B40F8043B403ABDD246
:10033800303211D351F8043B40F8043B51F8043BE8
:1003480040F8043B51F8043B40F8043B51F8043BA7
:1003580040F8043B103AEDD20C3205D351F8043B77
:1003680040F8043B043AF9D2043208D0D2071CBF43
:1003780011F8013B00F8013B01D30B88038060466C
:10038800704700BF082A13D38B078DD010F00303E2
:100398008AD0C3F10403D21ADB071CBF11F8013B52
:1003A80000F8013B80D331F8023B20F8023B7BE7A1
:1003B800043AD9D3013A11F8013B00F8013BF9D2CC
:1003C8000B7803704B7843708B7883706046704766
:1003D800F0B4860746D0541E002A3CD0CAB2034661
:1003E80002E014F1FF3436D303F8012B9D07F8D14E
:1003F800032C29D9CDB245EA05250F2C45EA054538
:1004080033D9A4F11006360903F1200707EB0617C4
:1004180003F1100242E9045542E902551032BA428A
:10042800F8D1721C14F00C0F03EB021204F00F0643
:1004380013D0331F23F003030433134442F8045B3F
:100448009342FBD106F003042CB1C9B21C4403F853
:10045800011B9C42FBD1F0BC704734461346002C6C
:10046800F3D1F8E714460346C2E71A462646E0E702
:1004780000293CD038B551F8043C0C1F002BB8BFFC
:10048800E418054600F0CEF9234B1A682AB1A242B7
:100498000DD921686018824223D0626028461C600A
:1004A800BDE8384000F0C0B9A34203D81A465368E3
:1004B800002BF9D111685018A04219D024D821680E
:1004C8006018834206D0636054602846BDE838400F
:1004D80000F0AAB9D3E900030144636021605460C5
:1004E800F3E7D2E90002014462602160D6E7704771
:1004F80020680144501883421160E6D1D3E9000313
:10050800014453601160E0E70C232B602846BDE8E6
:10051800384000F089B900BF8C000020F8B5CD1C28
:1005280025F0030508350C2D38BF0C25002D06468F
:1005380033DBA94231D82A4F00F074F93A6852B136
:1005480013685B1B04D43FE023685B1B29D5224654
:100558005468002CF8D1796800293BD029463046E8
:1005680000F040F8431C28D0C41C24F00304A04227
:1005780005D0211A304600F035F801301DD025602D
:10058800304600F051F904F10B0020F00700231D5C
:10059800C21A01D01B1AA350F8BD0C2232600020E9
:1005A800F8BD0B2B05D8A242636811D05360E7E76A
:1005B800144623601C442560E2E70C233046336070
:1005C80000F032F90020F8BD0B2BF1D8536814461F
:1005D8003B60D5E7304600F005F87860BEE700BF1D
:1005E8008C00002038B5074C0023054608462360D8
:1005F80000F032FC431C00D038BD2368002BFBD030
:100608002B6038BD7807002010B580210446FFF71D
:1006180085FF606440B1031F00227C3043F8042F3B
:100628008342FBD1002010BD4FF0FF3010BD00BF4A
:10063800436C0BB100207047E6E700BF1F2970B577
:10064800054608D8436C16460C464BB153F82400AF
:1006580043F8246070BD162202604FF0FF3070BD71
:10066800FFF7D2FF08B96B6CF0E74FF0FF3070BDB1
:100678001F2938B521D8426C05460C466AB152F894
:10068800213053B1012B16D0591C10D0002520461B
:1006980042F824509847284638BD284600F070F89C
:1006A800224601462846BDE8384000F055B81623D2
:1006B8000360012038BD002038BD162303604FF0C9
:1006C800FF3038BD1F2921D838B5436C05460C4684
:1006D80083B153F8242003EB84034AB1511C10D092
:1006E800012A0CD0002520461D609047284638BDB9
:1006F800012038BDFFF788FF28B96B6CE9E70320B4
:1007080038BD022038BD4FF0FF3038BD4FF0FF3004
:10071800704700BF024B01461868FFF7A9BF00BF2A
:1007280004000020024B0A4601461868FFF786BFFE
:1007380004000020034B1868436C0BB1002070477D
:1007480062E700BF04000020024B01461868FFF76B
:10075800B9BF00BF0400002038B50B46074C05465A
:10076800114618460023236000F06EFB431C00D09E
:1007780038BD2368002BFBD02B6038BD78070020DC
:1007880000F05ABB2DE9F843224C25680DB36C687C
:100798001F2C3BDC984691460F46064688B1D5F893
:1007A800880028B3D0F8003140F824900122A240F4
:1007B80000EB84011343022EC0F80031C1F8808099
:1007C80010D0A31C01346C6045F823700020BDE8EC
:1007D800F883114E114D2560002ED8D03468C5F825
:1007E8008840D4E7D0F804311A43C0F80421E8E778
:1007F8000B4B5BB14FF48470FFF740FD30B1002321
:100808006C68C0E94033C5F88800CDE74FF0FF3089
:10081800DDE700BF28020020D8AD00089C010020B9
:1008280085020008704700BF704700BF70B54FF0E1
:10083800FF0C4CF4E06C1CEA11541DBF1CEA135564
:1008480094EA0C0F95EA0C0F00F0DEF82C4481EACC
:10085800030621EA4C5123EA4C5350EA013518BFEC
:1008680052EA033541F4801143F4801338D0A0FBD9
:1008780002CE4FF00005E1FB02E506F00042E0FB86
:1008880003E54FF00006E1FB03569CF0000F18BF8C
:100898004EF0010EA4F1FF04B6F5007F64F5407434
:1008A80004D25FEA4E0E6D4146EB060642EAC621C7
:1008B80041EA55514FEAC52040EA5E504FEACE2E34
:1008C800B4F1FD0C88BFBCF5E06F1ED8BEF1004F37
:1008D80008BF5FEA500E50F1000041EB045170BDB3
:1008E80006F0004646EA010140EA020081EA0301F7
:1008F800B4EB5C04C2BFD4EB0C0541EA045170BDF3
:1009080041F480114FF0000E013C00F3AB8014F16C
:10091800360FDEBF002001F0004170BDC4F10004B5
:10092800203C35DA0C341BDC04F11404C4F1200536
:1009380000FA05F320FA04F001FA05F240EA020091
:1009480001F0004221F0004110EBD37021FA04F6C7
:1009580042EB06015EEA430E08BF20EAD37070BD81
:10096800C4F10C04C4F1200500FA04F320FA05F0E0
:1009780001FA04F240EA020001F0004110EBD370E2
:1009880041F100015EEA430E08BF20EAD37070BD52
:10099800C4F1200500FA05F24EEA020E20FA04F32B
:1009A80001FA05F243EA020321FA04F001F00041DA
:1009B80021FA04F220EA020000EBD3705EEA430E4B
:1009C80008BF20EAD37070BD94F0000F0FD101F07A
:1009D8000046400041EB010111F4801F08BF013CB3
:1009E800F7D041EA060195F0000F18BF704703F0F1
:1009F8000046520043EB030313F4801F08BF013D78
:100A0800F7D043EA0603704794EA0C0F0CEA135533
:100A180018BF95EA0C0F0CD050EA410618BF52EAED
:100A28004306D1D181EA030101F000414FF00000F3
:100A380070BD50EA410606BF1046194652EA430601
:100A480019D094EA0C0F02D150EA013613D195EA75
:100A58000C0F05D152EA03361CBF104619460AD1BD
:100A680081EA030101F0004141F0FE4141F47001C7
:100A78004FF0000070BD41F0FE4141F4780170BDB7
:100A880081F0004102E000BF83F0004330B54FEA37
:100A980041044FEA430594EA050F08BF90EA020FA4
:100AA8001FBF54EA000C55EA020C7FEA645C7FEA37
:100AB800655C00F0E2804FEA5454D4EB5555B8BF5A
:100AC8006D420CDD2C4480EA020281EA030382EACB
:100AD800000083EA010180EA020281EA0303362D5D
:100AE80088BF30BD11F0004F4FEA01314FF4801C30
:100AF8004CEA113102D0404261EB410113F0004F42
:100B08004FEA03334CEA133302D0524263EB4303F8
:100B180094EA050F00F0A780A4F10104D5F1200E96
:100B28000DDB02FA0EFC22FA05F2801841F10001F1
:100B380003FA0EF2801843FA05F359410EE0A5F1C5
:100B480020050EF1200E012A03FA0EFC28BF4CF0F6
:100B5800020C43FA05F3C01851EBE37101F00045AC
:100B680007D54FF0000EDCF1000C7EEB00006EEBB9
:100B78000101B1F5801F1BD3B1F5001F0CD3490843
:100B88005FEA30004FEA3C0C04F101044FEA44529A
:100B980012F5800F80F09A80BCF1004F08BF5FEA21
:100BA800500C50F1000041EB045141EA050130BD01
:100BB8005FEA4C0C404141EB0101013C28BFB1F513
:100BC800801FE9D291F0000F04BF01460020B1FA5E
:100BD80081F308BF2033A3F10B03B3F120020CDA31
:100BE8000C3208DD02F1140CC2F10C0201FA0CF00F
:100BF80021FA02F10CE002F11402D8BFC2F1200C74
:100C080001FA02F120FA0CFCDCBF41EA0C01904029
:100C1800E41AA2BF01EB0451294330BD6FEA040472
:100C28001F3C1CDA0C340EDC04F11404C4F120025D
:100C380020FA04F001FA02F340EA030021FA04F36F
:100C480045EA030130BDC4F10C04C4F1200220FAC6
:100C580002F001FA04F340EA0300294630BD21FA04
:100C680004F0294630BD94F0000F83F4801306BFCA
:100C780081F480110134013D4EE77FEA645C18BFBE
:100C88007FEA655C29D094EA050F08BF90EA020F55
:100C980005D054EA000C04BF1946104630BD91EA4D
:100CA800030F1EBF0021002030BD5FEA545C05D150
:100CB8004000494128BF41F0004130BD14F580048F
:100CC8003CBF01F5801130BD01F0004545F0FE4103
:100CD80041F470014FF0000030BD7FEA645C1ABF38
:100CE800194610467FEA655C1CBF0B46024650EA6F
:100CF800013406BF52EA033591EA030F41F400219B
:100D080030BD00BF90F0000F04BF0021704730B520
:100D18004FF4806404F132044FF000054FF00001F5
:100D280050E700BF90F0000F04BF0021704730B5B6
:100D38004FF4806404F1320410F0004548BF40428B
:100D48004FF000013EE700BF42004FEAE2014FEAE0
:100D580031014FEA02701FBF12F07F4393F07F4FBB
:100D680081F06051704732F07F4208BF704793F0BE
:100D78007F4F04BF41F40021704730B54FF46074D1
:100D880001F0004521F000411CE700BF50EA0102D4
:100D980008BF704730B54FF000050AE050EA01027D
:100DA80008BF704730B511F0004502D5404261EBED
:100DB80041014FF4806404F132045FEA915C3FF42E
:100DC800D8AE4FF003025FEADC0C18BF03325FEACB
:100DD800DC0C18BF033202EBDC02C2F1200300FA7C
:100DE80003FC20FA02F001FA03FE40EA0E0021FAA1
:100DF80002F11444BDE600BF4A0011D212F50012F8
:100E080011D20DD56FF47873B3EB62520ED44FEA5A
:100E1800C12343F0004343EA505323FA02F07047DA
:100E28004FF00000704750EA013002D14FF0FF3018
:100E380070474FF000007047024B58221A604FF07D
:100E4800FF30704778070020024B58221A604FF095
:100E5800FF30704778070020044A05491368002BC3
:100E680008BF0B4618441060184670472C02002033
:100E780080070020FEE700BF80B483B000AF0346C0
:100E8800FB7197F9073003F01F02074997F90730FC
:100E98005B09012000FA02F241F8232000BF0C3759
:100EA800BD465DF8047B704700E100E080B483B084
:100EB80000AF78600B46FB70FB7803F00F03D9B2E4
:100EC8007A68936861F3071393607B6818460C3758
:100ED800BD465DF8047B704780B483B000AF78608E
:100EE8000B46FB70FB7803F00703D9B27A68936866
:100EF80061F38C2393607B6818460C37BD465DF818
:100F0800047B704780B483B000AF78600B46FB70F9
:100F1800FB7803F00703D9B27A68936861F34F331B
:100F280093607B6818460C37BD465DF8047B7047B4
:100F380080B483B000AF78600B46FB70FB7803F099
:100F48000303D9B27A68936861F3010393607B68FD
:100F580018460C37BD465DF8047B704780B483B0F3
:100F680000AF78600B46FB70FB7803F00303D9B23F
:100F78007A68536861F3114353607B6818460C37ED
:100F8800BD465DF8047B704780B483B000AF7860DD
:100F98000B46FB70FB7803F00103D9B27A685368FB
:100FA80061F3965353607B6818460C37BD465DF86D
:100FB800047B704780B582B000AF78607B689B681F
:100FC800C3F38223DBB21946786800F089F8034638
:100FD80018460837BD4680BD80B582B000AF78603E
:100FE8007B689B68C3F34233DBB21946786800F02C
:100FF80077F8034618460837BD4680BD80B483B0ED
:1010080000AF78607A68136843F4803313607B68B4
:1010180018460C37BD465DF8047B704780B483B032
:1010280000AF78607B681B68C3F34043DBB283F092
:101038000103DBB2002B00D0F4E77B6818460C37BD
:10104800BD465DF8047B704780B483B000AF78601C
:101058007A68136843F0807313607B6818460C370E
:10106800BD465DF8047B704780B483B000AF7860FC
:101078007B681B68C3F34063DBB283F00103DBB218
:10108800002B00D0F4E77B6818460C37BD465DF8A6
:10109800047B704780B582B000AF786039603B68E8
:1010A8000C2B02D03B68112B04D17868FFF794FF12
:1010B800034611E03B680D2B08D03B680E2B05D08A
:1010C8003B680F2B02D03B68102B04D17868FFF7E0
:1010D80071FF034600E0002318460837BD4680BD6F
:1010E80080B483B000AF78600B46FB70FB78002BB0
:1010F80010D0FB78042B0BD0FB78052B06D0FB789F
:10110800062B01D1074B06E0074B04E0074B02E032
:10111800074B00E0074B18460C37BD465DF8047BCB
:10112800704700BF406F4001A037A00080DE8002FA
:1011380000BD0105007A030A80B483B000AF78606F
:101148000B46FB70FB7803F00703D9B27A68136883
:1011580061F3020313607B6818460C37BD465DF8DF
:10116800047B704780B483B000AF78607A681369F5
:1011780043F0004313617B6818460C37BD465DF8A1
:10118800047B704780B483B000AF78607B681B69CC
:10119800C3F3C073DBB218460C37BD465DF8047B59
:1011A800704780B483B000AF78607A6813696FF3D2
:1011B800410313617A68136943F0010313617B6883
:1011C80018460C37BD465DF8047B704780B483B081
:1011D80000AF78607B68DB68C3F30003DBB21846B6
:1011E8000C37BD465DF8047B704780B483B000AF10
:1011F80078607A68D36843F00103D3607B68184647
:101208000C37BD465DF8047B704780B483B000AFEF
:1012180078607B68DB68C3F30043DBB218460C37A1
:10122800BD465DF8047B704780B483B000AF78603A
:101238000B46FB70FB7803F00303D9B27A68136995
:1012480061F3092313617B6818460C37BD465DF8C6
:10125800047B704780B483B000AF78607A68136904
:1012680043F0807313617B6818460C37BD465DF800
:10127800047B704780B584B000AF78600A4BFB6090
:101288000A4BBB607868FFF77DFF0346002B05D04B
:101298007B68054A5A607B68044A5A607B6818462E
:1012A8001037BD4680BD00BF23016745AB89EFCD30
:1012B80080B483B000AF78600B46FB707A6813691E
:1012C8006FF3000313617A68136943F00203136133
:1012D800FB7803F00F03D9B27A68136961F3C60388
:1012E80013617A68136943F4803313617B68184685
:1012F8000C37BD465DF8047B704780B483B000AFFF
:10130800C7E900013B6818460C37BD465DF8047B09
:10131800704780B483B000AFC7E900013B684FF461
:101328007A7202FB03F318460C37BD465DF8047B5E
:10133800704780B483B000AFC7E900013B68184626
:101348000C37BD465DF8047B704780B483B000AFAE
:10135800C7E900013B684FF47A7202FB03F31846B1
:101368000C37BD465DF8047B704780B483B000AF8E
:10137800C7E900013B6818460C37BD465DF8047B99
:10138800704780B483B000AFC7E900013B681846D6
:101398000C37BD465DF8047B704780B483B000AF5E
:1013A8007860396001223B6802FA03F31A467B68C9
:1013B8009A6100BF0C37BD465DF8047B704780B466
:1013C80083B000AF786039603B681033012202FABD
:1013D80003F31A467B689A6100BF0C37BD465DF877
:1013E800047B704780B483B000AF786039607B6855
:1013F8001B6901213A6801FA02F21340002B14BF5D
:1014080001230023DBB218460C37BD465DF8047B88
:10141800704780B582B000AF786039603968786805
:10142800FFF7E0FF0346002B04D039687868FFF720
:10143800C6FF03E039687868FFF7AFFF00BF0837D9
:10144800BD4680BD80B483B000AF786039603B682A
:1014580018460C37BD465DF8047B704780B485B0EC
:1014680000AFF860B9607A60FB68BA681A60FB6818
:101478007A685A60FB6818461437BD465DF8047BE5
:10148800704780B582B000AF78607B681A687B6867
:101498005B6819461046FFF780FF00BF0837BD4656
:1014A80080BD80B582B000AF78607B681A687B68C1
:1014B8005B6819461046FFF782FF00BF0837BD4634
:1014C80080BD80B582B000AF78607B681A687B68A1
:1014D8005B6819461046FFF785FF0346184608372C
:1014E800BD4680BD80B582B000AF78607B681A6861
:1014F8007B685B6819461046FFF78BFF00BF08370B
:10150800BD4680BD80B582B000AF78600B46FB70E9
:10151800FB78002B03D07868FFF7B3FF02E0786808
:10152800FFF7BFFFFB7818460837BD4680BD80B57A
:1015380084B000AF78600B46FB707868FFF7C1FF96
:101548000346FB73FB78002B02D07868FFF7CAFFCD
:10155800FA7BFB789A4214BF01230023DBB21846BA
:101568001037BD4680BD80B483B000AF78607A681C
:10157800136843F0010313607B6818460C37BD46B7
:101588005DF8047B704780B483B000AF78607A68F8
:10159800136843F0800313607B6818460C37BD4618
:1015A8005DF8047B704780B483B000AF78600B4669
:1015B8007B807A887B68DA627B6818460C37BD4680
:1015C8005DF8047B704780B483B000AF78607B68B7
:1015D80018460C37BD465DF8047B704780B582B06D
:1015E80000AF786039607B6820331846FFF7EBFF5F
:1015F800034619683A680A431A607B681846083730
:10160800BD4680BD80B483B000AF786039607B6828
:10161800203319683B68DA437B6820330A401A6034
:101628007B6818460C37BD465DF8047B704780B46C
:1016380083B000AF78600B46FB70FB78012B05D1B7
:101648007B681B6AC3F30003DBB21BE0FB78022B49
:1016580005D17B681B6AC3F30013DBB212E0FB7889
:10166800032B05D17B681B6AC3F30023DBB209E0B7
:10167800FB78042B05D17B681B6AC3F30033DBB20C
:1016880000E0002318460C37BD465DF8047B704720
:1016980080B485B000AFF8600B467A60FB72FB7AC5
:1016A800012B03D1FB687A685A6313E0FB7A022B9B
:1016B80003D1FB687A689A630CE0FB7A032B03D1A9
:1016C800FB687A68DA6305E0FB7A042B02D1FB68D1
:1016D8007A681A64FB6818461437BD465DF8047BBF
:1016E800704780B483B000AF786039607B680022AF
:1016F8001A807B683A685A607B6818460C37BD4682
:101708005DF8047B704780B483B000AF78607B6875
:101718001B8818460C37BD465DF8047B704780B5BA
:1017280082B000AF78600B467B807B681A887B8824
:1017380013449BB21946786800F004F800BF0837D4
:10174800BD4680BD80B582B000AF78600B467B8017
:101758007B681B887A889A4223D07B8840F60222CD
:1017680093421ED97B687A881A807B681B881A4640
:101778000E4BB3FBF2F3013B5A087B685B6892B2ED
:101788001A817B685B681A687B685B681B891946E5
:101798001046FFF708FF7B685B681833184600F0AF
:1017A8006BF800BF0837BD4680BD00BF007A030A4A
:1017B80080B483B000AF786039607B6800221A80FB
:1017C8007B683A685A607B6818460C37BD465DF8F6
:1017D800047B704780B483B000AF78607B681B8857
:1017E80018460C37BD465DF8047B704780B582B05B
:1017F80000AF78600B467B807B681A887B8813442F
:101808009BB21946786800F005F803461846083771
:10181800BD4680BD80B582B000AF78600B467B8046
:101828007B681B887A889A421FD07B685B68DB8953
:101838007A889A4219D87B687A881A807B685B68AC
:1018480018687B685B68997A7B685B681B891A46AD
:101858007B681B8803FB02F3064A82FB03C29211D2
:10186800DB17D31A1A46FFF713FF7B881846083789
:10187800BD4680BDD34D621080B582B000AF7860A0
:101888007B685B6818687B685B68997A7B685B68CB
:101898001B891A467B681B8803FB02F3064A82FBF6
:1018A80003C29211DB17D31A1A46FFF7F1FE00BFE5
:1018B8000837BD4680BD00BFD34D621080B584B0E7
:1018C80000AFF860B9607A60FB70FB68BA681A60AC
:1018D800FB687A685A60FB684FF6FF721A81FB68EA
:1018E800FA789A72FB683A8B9A81FB68BA8BDA812C
:1018F800FB681033F9681846FFF7F3FEFB681833E6
:10190800F9681846FFF754FFFB6818461037BD46BC
:1019180080BD80B582B000AF78607B681A687B684C
:101928009B8919461046FFF759FE00BF0837BD4688
:1019380080BD80B582B000AF78607B681A687B682C
:101948009B8919461046FFF75DFE00BF0837BD4664
:1019580080BD80B582B000AF78607B681A687B680C
:101968009B7A19461046FFF762FE03461846083769
:10197800BD4680BD80B483B000AF78607A68936854
:1019880043F0010393607B6818460C37BD465DF849
:10199800047B704780B483B000AF78607B689B6835
:1019A800C3F30003DBB218460C37BD465DF8047B71
:1019B800704780B483B000AF78607A68936843F06A
:1019C800804393607B6818460C37BD465DF8047BFE
:1019D800704780B483B000AF78607A68936843F446
:1019E800807393607B6818460C37BD465DF8047BAE
:1019F800704780B483B000AF78600B46FB70FB780B
:101A080003F00303D9B27A68536861F3196353602A
:101A18007B6818460C37BD465DF8047B704780B478
:101A280083B000AF78607A68536843F4807353607A
:101A38007B6818460C37BD465DF8047B704780B458
:101A480083B000AF78607A68936843F002039360CC
:101A58007B6818460C37BD465DF8047B704780B438
:101A680083B000AF78600B46FB70FB7803F001038E
:101A7800D9B27A68936861F3492393607B68184602
:101A88000C37BD465DF8047B704780B483B000AF67
:101A980078607B684C3318460C37BD465DF8047B8C
:101AA800704780B483B000AF78600B46FB70134674
:101AB800BB70FB78002B09D1BB7803F00703D9B2C0
:101AC8007A68136961F302031361E8E0FB78012B7C
:101AD80009D1BB7803F00703D9B27A68136961F3B7
:101AE800C5031361DBE0FB78022B09D1BB7803F057
:101AF8000703D9B27A68136961F388131361CEE0DA
:101B0800FB78032B09D1BB7803F00703D9B27A68B5
:101B1800136961F34B231361C1E0FB78042B09D1EE
:101B2800BB7803F00703D9B27A68136961F30E33FF
:101B38001361B4E0FB78052B09D1BB7803F00703E8
:101B4800D9B27A68136961F3D1331361A7E0FB78DE
:101B5800062B09D1BB7803F00703D9B27A68136959
:101B680061F3944313619AE0FB78072B09D1BB78A2
:101B780003F00703D9B27A68136961F35753136105
:101B88008DE0FB78082B09D1BB7803F00703D9B2A5
:101B98007A68136961F31A63136180E0FB78092B93
:101BA80009D1BB7803F00703D9B27A68136961F3E6
:101BB800DD63136173E0FB780A2B09D1BB7803F06E
:101BC8000703D9B27A68D36861F30203D36066E089
:101BD800FB780B2B09D1BB7803F00703D9B27A68DD
:101BE800D36861F3C503D36059E0FB780C2B09D1A6
:101BF800BB7803F00703D9B27A68D36861F3881316
:101C0800D3604CE0FB780D2B09D1BB7803F00703B8
:101C1800D9B27A68D36861F34B23D3603FE0FB788D
:101C28000E2B09D1BB7803F00703D9B27A68D368C1
:101C380061F30E33D36032E0FB780F2B09D1BB7808
:101C480003F00703D9B27A68D36861F3D133D3605C
:101C580025E0FB78102B09D1BB7803F00703D9B234
:101C68007A68D36861F39443D36018E0FB78112B4A
:101C780009D1BB7803F00703D9B27A68D36861F356
:101C88005753D3600BE0FB78122B08D1BB7803F0D5
:101C98000703D9B27A68D36861F31A63D3607B68A3
:101CA80018460C37BD465DF8047B704780B485B094
:101CB80000AFF860B9601346FB71BB68012B09D10E
:101CC800FB7903F01F03D9B2FA68536B61F304037D
:101CD8005363C1E0BB68022B09D1FB7903F01F03F2
:101CE800D9B2FA68536B61F349135363B4E0BB6824
:101CF800032B09D1FB7903F01F03D9B2FA68536BA0
:101D080061F38E235363A7E0BB68042B09D1FB79E9
:101D180003F01F03D9B2FA68536B61F3D3335363EB
:101D28009AE0BB68052B09D1FB7903F01F03D9B2F0
:101D3800FA68536B61F3185353638DE0BB68062B45
:101D480009D1FB7903F01F03D9B2FA68536B61F329
:101D58005D63536380E0BB68072B09D1FB7903F00F
:101D68001F03D9B2FA68136B61F30403136373E0BA
:101D7800BB68082B09D1FB7903F01F03D9B2FA68B5
:101D8800136B61F34913136366E0BB68092B09D130
:101D9800FB7903F01F03D9B2FA68136B61F38E2342
:101DA800136359E0BB680A2B09D1FB7903F01F03C1
:101DB800D9B2FA68136B61F3D33313634CE0BB6891
:101DC8000B2B09D1FB7903F01F03D9B2FA68136B07
:101DD80061F3185313633FE0BB680C2B09D1FB79FF
:101DE80003F01F03D9B2FA68136B61F35D631363E1
:101DF80032E0BB680D2B09D1FB7903F01F03D9B280
:101E0800FA68D36A61F30403D36225E0BB680E2B3A
:101E180009D1FB7903F01F03D9B2FA68D36A61F3D9
:101E28004913D36218E0BB680F2B09D1FB7903F083
:101E38001F03D9B2FA68D36A61F38E23D3620BE029
:101E4800BB68102B08D1FB7903F01F03D9B2FA68DD
:101E5800D36A61F3D333D362FB6818461437BD469F
:101E68005DF8047B704780B483B000AF7860396058
:101E78003B68DBB2013BDBB203F00F03D9B27A68EF
:101E8800D36A61F31753D3627B6818460C37BD4693
:101E98005DF8047B704780B483B000AF78600B4670
:101EA800FB70FB7803F00303D9B27A68536861F3D7
:101EB800114353607B6818460C37BD465DF8047BB8
:101EC800704780B483B000AF78607B6818460C37E1
:101ED800BD465DF8047B704780B483B000AF78607E
:101EE8007B6818460C37BD465DF8047B704780B5A3
:101EF80082B000AF78600B46FB70FB78002B08D1EE
:101F08007B6808331846FFF7DCFF03463D221A605A
:101F180058E0FB78012B09D17B6808331846FFF796
:101F2800D0FF03464FF474621A604BE0FB78022B33
:101F380009D17B6808331846FFF7C3FF03464FF4FF
:101F480074121A603EE0FB78032B09D17B680833D2
:101F58001846FFF7B6FF03464FF074621A6031E087
:101F6800FB78042B08D17B680C331846FFF7B4FFC5
:101F780003463D221A6025E0FB78052B09D17B68D2
:101F88000C331846FFF7A8FF03464FF474621A6033
:101F980018E0FB78062B09D17B680C331846FFF74D
:101FA8009BFF03464FF474121A600BE0FB78072B73
:101FB80008D17B680C331846FFF78EFF03464FF0B5
:101FC80074621A6000BF0837BD4680BD80B483B014
:101FD80000AF78607B6818460C37BD465DF8047B17
:101FE800704780B483B000AF78607B6818460C37C0
:101FF800BD465DF8047B704780B582B000AF78605D
:102008000B46FB70FB78002B0DD17B681846FFF759
:10201800DDFF03461B6803F02003002B14BF0123D8
:102028000023DBB27BE0FB78012B0DD17B681846DF
:10203800FFF7CCFF03461B6803F40063002B14BFB3
:1020480001230023DBB26AE0FB78022B0DD17B6809
:102058001846FFF7BBFF03461B6803F40013002B69
:1020680014BF01230023DBB259E0FB78032B0DD109
:102078007B681846FFF7AAFF03461B6803F0006356
:10208800002B14BF01230023DBB248E0FB78042BAC
:102098000ED17B6804331846FFF7A3FF03461B687D
:1020A80003F02003002B14BF01230023DBB236E02A
:1020B800FB78052B0ED17B6804331846FFF791FF98
:1020C80003461B6803F40063002B14BF012300239D
:1020D800DBB224E0FB78062B0ED17B68043318466C
:1020E800FFF77FFF03461B6803F40013002B14BFA0
:1020F80001230023DBB212E0FB78072B0ED17B68AB
:1021080004331846FFF76DFF03461B6803F00063AE
:10211800002B14BF01230023DBB200E00023184684
:102128000837BD4680BD80B483B000AF78607A6858
:10213800136843F0010313607B681B68C3F3000353
:10214800DBB283F00103DBB2002B00D0F4E77B683D
:1021580018460C37BD465DF8047B704780B483B0E1
:1021680000AF78607A6813686FF3000313607B68C8
:1021780018460C37BD465DF8047B704780B483B0C1
:1021880000AF78607A68136843F4806313607B68F3
:1021980018460C37BD465DF8047B704780B483B0A1
:1021A80000AF78607A68136843F4807313607B68C3
:1021B80018460C37BD465DF8047B704780B483B081
:1021C80000AF786039607B683A68DA607B681846E7
:1021D8000C37BD465DF8047B704780B483B000AF10
:1021E800786039607B683A689A607B6818460C3773
:1021F800BD465DF8047B704780B483B000AF78605B
:102208000B467B807A887B685A607B6818460C3757
:10221800BD465DF8047B704780B483B000AF78603A
:102228000B46FB70FB7803F00303D9B27A68136896
:1022380061F3871313607B6818460C37BD465DF859
:10224800047B704780B483B000AF78600B46FB70A6
:10225800FB7803F00303D9B27A68136861F34E334D
:1022680013607B6818460C37BD465DF8047B7047E1
:1022780080B483B000AF78600B46FB70FB7803F046
:102288000303D9B27A68136861F3CC2313607B68BF
:1022980018460C37BD465DF8047B704780B483B0A0
:1022A80000AF78600B46FB70FB7803F00703D9B2E8
:1022B8007A68136861F35B6313607B6818460C37B0
:1022C800BD465DF8047B704780B483B000AF78608A
:1022D8007A68136843F0100313607B6818460C375C
:1022E800BD465DF8047B704780B483B000AF78606A
:1022F8007B685B689BB218460C37BD465DF8047B6B
:10230800704780B483B000AF78607B6818460C379C
:10231800BD465DF8047B704780B483B000AF786039
:102328007B6818460C37BD465DF8047B704780B45F
:1023380083B000AF78607B6800229A607B6818469B
:102348000C37BD465DF8047B704780B582B000AF9E
:1023580078607B689B68002B05D07B689B687868F1
:102368007968032298477B6818460837BD4680BDC0
:1023780080B483B000AF78607B689B68002B0CBF8B
:1023880001230023DBB218460C37BD465DF8047BF9
:10239800704780B483B000AF786039603B681A68D2
:1023A8007B681B689A4201D23B6800E07B6818464C
:1023B8000C37BD465DF8047B704780B483B000AF2E
:1023C80078607B680022C3F800217B68002283F8CC
:1023D80004217B6818460C37BD465DF8047B7047BE
:1023E80080B483B000AF78600B46FB707B68002236
:1023F8001A607B68FA781A717B6818460C37BD46F4
:102408005DF8047B7047000080B582B000AF78604B
:10241800054B1B687A6892F904201046984700BF5C
:102428000837BD4680BD00BF6800002080B485B075
:1024380000AF786039607B681B68FB60FB68002B25
:102448000BD0FB685B68002B03D0FB685B68FB6004
:10245800F7E7FB683A685A6002E07B683A681A60F6
:1024680000BF1437BD465DF8047B704780B584B063
:1024780000AF78607B681B68FB60FB68002B08D0A6
:10248800FB681B681B68F8689847FB685B68FB601B
:10249800F3E700BF1037BD4680BD80B483B000AFFE
:1024A80078600B46FB70FB7803F00103D9B27A68B9
:1024B800D36861F34923D3607B6818460C37BD465F
:1024C8005DF8047B704780B483B000AF78600B463A
:1024D800FB70FB7803F00103D9B27A68D36861F323
:1024E8000C33D3607B6818460C37BD465DF8047B17
:1024F800704780B483B000AF78600B46FB70FB7800
:1025080003F00303D9B27A68136961F30D331361D9
:102518007B6818460C37BD465DF8047B704780B46D
:1025280083B000AF78607A68D36843F40053D3600F
:102538007B6818460C37BD465DF8047B704780B44D
:1025480083B000AF78607A68D36843F00403D3603F
:102558007B6818460C37BD465DF8047B704780B42D
:1025680083B000AF78607A68D36843F00803D3601B
:102578007B6818460C37BD465DF8047B704780B40D
:1025880083B000AF78607A68536943F08003536181
:102598007B6818460C37BD465DF8047B704780B4ED
:1025A80083B000AF78607A68536943F040035361A1
:1025B8007B6818460C37BD465DF8047B704780B4CD
:1025C80083B000AF78607A68D36843F48063D360DF
:1025D8007B6818460C37BD465DF8047B704780B4AD
:1025E80083B000AF78607A68D3686FF38A23D360CA
:1025F8007B6818460C37BD465DF8047B704780B58C
:1026080082B000AF78600B46FB70FB78002B03D0DC
:102618007868FFF7D4FF02E07868FFF7E0FF7B688F
:1026280018460837BD4680BD80B483B000AF7860D7
:102638000B46FB707A68D368F97861F30413D360AA
:102648007B6818460C37BD465DF8047B704780B43C
:1026580083B000AF78607B681B68C3F30013DBB2FC
:1026680018460C37BD465DF8047B704780B483B0CC
:1026780000AF78607B681B6818460C37BD465DF86C
:10268800047B704780B483B000AF78607B685B6878
:1026980018460C37BD465DF8047B704780B584B09A
:1026A80000AF78607868FFF7E1FFF8607868FFF7B7
:1026B800E9FFF8607B6818461037BD4680BD80B4D6
:1026C80083B000AF78607B68043318460C37BD468A
:1026D8005DF8047B704780B483B000AF78607B6896
:1026E800043318460C37BD465DF8047B704700007C
:1026F80080B586B000AFF8600B467A60FB7201F0D7
:102708007DFB034679681846FEF7C4FC7861FB7ABE
:10271800072B53D801A252F823F000BF4527000821
:102728005527000865270008752700088527000831
:1027380095270008A5270008B52700087B69224AC5
:10274800A2FB03239A0AFB689A6037E07B691F4A59
:10275800A2FB03235A0BFB689A602FE07B691A4A95
:10276800A2FB0323DA0AFB689A6027E07B69174A11
:10277800A2FB03239A0BFB689A601FE07B69124A4D
:10278800A2FB03231A0BFB689A6017E07B690F4AC8
:10279800A2FB0323DA0BFB689A600FE07B690A4A05
:1027A800A2FB03235A0BFB689A6007E07B69074A80
:1027B800A2FB03231A0CFB689A6000BFFB6818464B
:1027C8001837BD4680BD00BFB5814E1BC5B3A29169
:1027D80080B483B000AF78607B6803F01F031846AD
:1027E8000C37BD465DF8047B704780B582B000AFFA
:1027F80078607868FFF7ECFF0346012202FA03F3DA
:1028080018460837BD4680BD80B483B000AF7860F5
:1028180039607B6818460C37BD465DF8047B704705
:1028280080B483B000AF78607B681B6818460C37AB
:10283800BD465DF8047B704780B483B000AF786014
:102848007B6818460C37BD465DF8047B704780B539
:1028580082B000AF786039607B6814331846FFF7A0
:10286800EBFF03461B6801213A6801FA02F21340A4
:10287800002B14BF01230023DBB218460837BD46DE
:1028880080BD80B400AFFEE780B400AFFEE780B43F
:1028980000AFFEE780B400AFFEE780B400AFFEE70C
:1028A80080B400AFFEE780B400AFFEE780B400AFAD
:1028B800FEE780B400AFFEE780B400AFFEE780B467
:1028C80000AFFEE780B400AFFEE780B400AFFEE7DC
:1028D80080B400AFFEE780B400AFFEE780B400AF7D
:1028E800FEE780B400AFFEE780B400AFFEE780B437
:1028F80000AFFEE780B400AFFEE780B400AFFEE7AC
:1029080080B400AFFEE780B400AFFEE780B400AF4C
:10291800FEE780B400AFFEE780B400AFFEE780B406
:1029280000AFFEE780B400AFFEE780B400AFFEE77B
:1029380080B400AFFEE780B400AFFEE780B400AF1C
:10294800FEE780B400AFFEE780B400AFFEE780B4D6
:1029580000AFFEE780B400AFFEE780B400AFFEE74B
:1029680080B400AFFEE780B400AFFEE780B400AFEC
:10297800FEE780B400AFFEE780B400AFFEE780B4A6
:1029880000AFFEE780B400AFFEE780B400AFFEE71B
:1029980080B400AFFEE780B400AFFEE780B400AFBC
:1029A800FEE780B400AFFEE780B400AFFEE780B476
:1029B80000AFFEE780B400AFFEE780B400AFFEE7EB
:1029C80080B400AFFEE780B400AFFEE780B500AF8B
:1029D80001F01EFA034610211846FFF738FF034698
:1029E800002B02D00548FFF741FD01F011FA03461C
:1029F800184601F017FA00BF80BD00BF3803002059
:102A080080B500AF0548FFF731FD01F037FA0346FE
:102A18001846FFF743FE00BF80BD00BF58030020E3
:102A280080B500AF0548FFF721FD01F031FA0346F4
:102A38001846FFF733FE00BF80BD00BF60030020CB
:102A480080B500AF0548FFF711FD01F02BFA0346EA
:102A58001846FFF723FE00BF80BD00BF68030020B3
:102A680080B500AF0548FFF701FD01F025FA0346E0
:102A780000211846FFF73BFA00BF80BD780300200D
:102A880080B500AF0548FFF7F1FC01F015FA0346E1
:102A980001211846FFF72BFA00BF80BD80030020F4
:102AA80080B500AF0548FFF7E1FC01F005FA0346E1
:102AB80002211846FFF71BFA00BF80BD88030020DB
:102AC80080B500AF0548FFF7D1FC01F0F5F90346E2
:102AD80003211846FFF70BFA00BF80BD90030020C2
:102AE80080B500AF0548FFF7C1FC01F0E5F90346E2
:102AF80005211846FFF7FBF900BF80BD98030020A9
:102B080080B500AF0548FFF7B1FC01F0D5F90346E1
:102B180005211846FFF7EBF900BF80BDA003002090
:102B280080B500AF0548FFF7A1FC01F0C5F90346E1
:102B380006211846FFF7DBF900BF80BDA803002077
:102B480080B500AF0548FFF791FC01F0B5F90346E1
:102B580007211846FFF7CBF900BF80BDB00300205E
:102B680080B500AF0548FFF781FC01F0AFF90346D7
:102B780000211846FFF7BBF900BF80BDB80300204D
:102B880080B500AF0548FFF771FC01F09FF90346D7
:102B980001211846FFF7ABF900BF80BDC003002034
:102BA80080B500AF0548FFF761FC01F08FF90346D7
:102BB80002211846FFF79BF900BF80BDC80300201B
:102BC80080B500AF0548FFF751FC01F07FF90346D7
:102BD80003211846FFF78BF900BF80BDD003002002
:102BE80080B500AF0548FFF741FC01F06FF90346D7
:102BF80004211846FFF77BF900BF80BDD8030020E9
:102C080080B500AF0548FFF731FC01F05FF90346D6
:102C180005211846FFF76BF900BF80BDE0030020CF
:102C280080B500AF0548FFF721FC01F04FF90346D6
:102C380006211846FFF75BF900BF80BDE8030020B6
:102C480080B500AF0548FFF711FC01F03FF90346D6
:102C580007211846FFF74BF900BF80BDF00300209D
:102C680080B500AF0248FFF701FC00BF80BD00BF80
:102C78004003002080B500AF0248FFF7F7FB00BF14
:102C880080BD00BF4803002080B500AF0248FFF7B1
:102C9800EDFB00BF80BD00BF5003002080B483B0AF
:102CA80000AF78607B689B6818460C37BD465DF8B6
:102CB800047B704780B483B000AF786039607B686C
:102CC8003A689A607B689B6818460C37BD465DF881
:102CD800047B704780B483B000AF786039607B684C
:102CE8009A683B681A447B689A607B689B681846B8
:102CF8000C37BD465DF8047B704780B483B000AFE5
:102D080078607B6800221A607B6800225A607B68C2
:102D180018460C37BD465DF8047B704780B582B015
:102D280000AF786039607B681846FFF7E6FF7B687C
:102D38003A68DA607B684FF0FF321A617B681846A0
:102D48000837BD4680BD80B483B000AF78607B682B
:102D580000221A607B6800225A607B6818460C378C
:102D6800BD465DF8047B704780B483B000AF7860DF
:102D78007B681B6818460C37BD465DF8047B7047B6
:102D880080B483B000AF78607B6800221A607B68EB
:102D980000225A607B6818460C37BD465DF8047BF4
:102DA8007047000080B483B000AF7860064A7B6843
:102DB8001A607B6800225A607B6818460C37BD464B
:102DC8005DF8047B704700BF44B0000880B582B04E
:102DD80000AF78607B681846FFF7B7FA7B6818463B
:102DE8000837BD4680BD000080B584B000AFF860EC
:102DF800B9607A603B60FB6808331846FFF7C0FF8C
:102E0800FB681846FFF7CEFF184AFB681A60FB6894
:102E180000221A61FB6800225A61FB6810331846C9
:102E2800FFF791FFFB68BA689A61FB680022DA61D4
:102E3800FB687A681A62FB683A685A62FB68BA6982
:102E48009A62FB68FA69DA62FB683A6A1A63FB6895
:102E58003433184601F044F8FB681946F869FFF75F
:102E6800E5FAFB6818461037BD4680BD38B0000843
:102E780080B582B000AF78607B689B6A1846FFF720
:102E880052F97B681B6A1846FEF774FD7B681B6A5B
:102E98001846FEF77FFD034683F00103DBB2002BE3
:102EA80000D0F3E77B681B6A1846FEF782FD00BF77
:102EB8000837BD4680BD80B483B000AF78607B68BA
:102EC8001B6818460C37BD465DF8047B704780B414
:102ED80083B000AF78607B681A687B685B685B00CA
:102EE800134418460C37BD465DF8047B704790B50F
:102EF8008DB000AF78607B68BB62BB6A0833184648
:102F080000F0FBFF03463B61BB6A0833184601F03B
:102F180013F80346FB6007F10C0207F11003114692
:102F2800184601F019F80346002B0FD007F11003DB
:102F3800184601F035F8F8610021F869FFF7BAFE84
:102F480007F11003184601F01BF8E4E77B68083323
:102F5800184600F0D2FF03467B617B6810337B6222
:102F6800786AFFF7A8FFF862786AFFF7B0FF38625F
:102F7800FA6A3B6A9A423CD0FB6A1B883B8107F19C
:102F88000803184601F018F803461C4607F1140315
:102F9800184601F005F8034621461846FFF79AFE41
:102FA80007F11403184600F0EBFF0346184601F03A
:102FB8000FF804467B680833184600F0BDFF034647
:102FC800BB6107F11803184601F002F803469C425A
:102FD8000CBF01230023DBB2002B06D07B6808332B
:102FE800184600F08AFF03467B61FB6A0233FB62E6
:102FF800BEE77B683433184600F0F6FF0346002B23
:1030080004D07B683433184600F0FEFF00BF343725
:10301800BD4690BD80B483B000AF786039607B68EE
:103028003A685A6000BF0C37BD465DF8047B7047AC
:1030380080B483B000AF78607B6800229A6000BFDC
:103048000C37BD465DF8047B704780B483B000AF91
:1030580078600B46FB70FB7803F00103D9B27A68FD
:10306800136861F38203136000BF0C37BD465DF837
:10307800047B704780B483B000AF78607A681368C7
:1030880043F00203136000BF0C37BD465DF8047BB4
:10309800704780B483B000AF78600B46FB707A68E5
:1030A8001368F97861F30003136000BF0C37BD465D
:1030B8005DF8047B704780B582B000AF78603960F6
:1030C8007B683968184600F0B5FF00BF0837BD4671
:1030D80080BD80B582B000AF786039607B683968A0
:1030E800184600F0C8FF00BF0837BD4680BD80B550
:1030F80086B000AF78607B687B617B69184601F019
:103108000CF80346FB607B69184601F025F8034676
:10311800BB6007F1080207F10C031146184601F0DD
:103128002BF80346002B10D007F10C03184601F0CA
:1031380047F838613B691B681B683869984707F18D
:103148000C03184601F02CF8E3E700BF1837BD461A
:1031580080BD80B483B000AF78607B6800221A60BD
:103168007B6800225A607B6818460C37BD465DF8BC
:10317800047B704780B582B000AF78607B681846E2
:10318800FFF7E7FF7B6818460837BD4680BD80B566
:1031980082B000AF78607B681846FFF7EBFF7B686A
:1031A80000229A607B680022DA607B6800221A613C
:1031B8007B6801225A6101F00FF80346184601F0B6
:1031C80015F87B6818460837BD4680BD80B500AF46
:1031D800024800F07BF800BF80BD00BFF803002064
:1031E80080B483B000AF78607B6800221A607B6887
:1031F80000225A607B6818460C37BD465DF8047B90
:103208007047000080B582B000AF78607B680433F7
:103218001846FFF7E5FF044A7B681A607B68184682
:103228000837BD4680BD00BF2CB0000880B582B00D
:1032380000AF78607B681846FFF7E4FF054A7B68B3
:103248001A607B6800221A737B6818460837BD46E7
:1032580080BD00BF20B0000880B582B000AF7860A4
:1032680039607B681846FFF7E1FF094A7B681A60F6
:103278007B6800221A617B6800225A613968786885
:1032880000F03AF87B6818460837BD4680BD00BF95
:1032980014B0000880B483B000AF78607B685B69C5
:1032A8005A1C7B685A6100BF0C37BD465DF8047B29
:1032B800704780B582B000AF78607B681B6818469D
:1032C800FFF715FF00BF0837BD4680BD80B582B047
:1032D80000AF78607B6808331846FFF708FF7B6803
:1032E80003F110007B685B697A68194600F0A0FF5B
:1032F80000BF0837BD4680BD80B582B000AF78609A
:1033080039607B683A681A617B68184600F064F88F
:1033180000BF0837BD4680BD80B483B000AF786079
:103328007B685A697B681B699A422CBF012300237A
:10333800DBB2002B04D07B6800225A61012300E035
:10334800002318460C37BD465DF8047B704780B5EE
:1033580082B000AF78607B6800225A617B681846AB
:1033680000F024F800BF0837BD4680BD80B483B0A4
:1033780000AF78607B685A697B681B699A422CBFEA
:1033880001230023DBB218460C37BD465DF8047BE9
:10339800704780B582B000AF78607B68184600F04F
:1033A8001BF800BF0837BD4680BD000080B582B05D
:1033B80000AF78607B681B7B002B07D07B680022FE
:1033C8001A737B6819460348FFF783FE00BF083766
:1033D800BD4680BDF803002080B582B000AF78609C
:1033E8007B681B7B83F00103DBB2002B07D07B6873
:1033F80001221A737B6819460348FFF75CFE00BF79
:103408000837BD4680BD00BFF803002080B483B0F4
:1034180000AF78607B685B781B021AB27B681B7808
:103428001BB213431BB29BB218460C37BD465DF85E
:10343800047B704780B485B000AFF860B9607A60EB
:10344800FB68BA681A60FB687A685A60FB681846B5
:103458001437BD465DF8047B704780B483B000AF75
:10346800786039607B683A681A607B6818460C3760
:10347800BD465DF8047B704780B483B000AF7860C8
:103488007B681B6818460C37BD465DF8047B70479F
:1034980080B483B000AF78607B681B6818460C372F
:1034A800BD465DF8047B704780B483B000AF786098
:1034B8007B681B6818460C37BD465DF8047B70476F
:1034C80080B483B000AF786039607B681A683B6865
:1034D8001B689A4214BF01230023DBB218460C373D
:1034E800BD465DF8047B704780B483B000AF786058
:1034F8007B681B689A1C7B681A607B6818460C37C7
:10350800BD465DF8047B704780B584B000AF786035
:103518007B681A6807F10C0311461846FFF79DFFF0
:10352800FB6818461037BD4680BD80B584B000AF33
:1035380078607B681A687B685B685B001A4407F1EF
:103548000C0311461846FFF788FFFB68184610372A
:10355800BD4680BD80B483B000AF78607B681B78BF
:10356800C3F30013DBB2002B0DD17B681B78C3F3C8
:103578004013DBB2002B06D17B681B78C3F38013A2
:10358800DBB2002B01D0012300E0002318460C37E2
:10359800BD465DF8047B704780B500AF01F09DF82B
:1035A80000BF80BD80B582B000AF786039603968EF
:1035B800786801F0D9F878680837BD4680BD000002
:1035C80080B500AF0F4B1B6803F00103002B0AD135
:1035D80001F0E2F80346052219460B48FDF73EFFC5
:1035E800084B01221A6000F009FC0346184601F056
:1035F800DDF8054B1B68184601F0E7F8024B184642
:1036080080BD00BF180400201004002080B500AF62
:103618000F4B1B6803F00103002B0AD101F0E6F8F9
:103628000346002219460B48FDF718FF084B0122F4
:103638001A6000F0E3FB0346184601F0E1F8054B79
:103648001B68184601F0EBF8024B184680BD00BF16
:10365800240400201C04002080B500AF0F4B1B6819
:1036680003F00103002B0AD101F0F0F80346092208
:1036780019460B48FDF7F2FE084B01221A6000F0CC
:10368800BDFB0346184601F0EBF8054B1B681846CE
:1036980001F0F5F8024B184680BD00BF3004002049
:1036A8002804002080B500AF0F4B1B6803F001030E
:1036B800002B0AD101F0CAF803460A2219460B4822
:1036C800FDF7CCFE084B01221A6000F097FB034679
:1036D800184601F0C5F8054B1B68184601F0E3F8D9
:1036E800024B184680BD00BF3C0400203404002073
:1036F80080B500AF0F4B1B6803F00103002B0AD104
:1037080001F0A4F803460B2219460B48FDF7A6FE64
:10371800084B01221A6000F071FB0346184601F0BD
:103728009FF8054B1B68184601F0D1F8024B184664
:1037380080BD00BF480400204004002080B400AFD2
:10374800024B1846BD465DF8047B704758030020BD
:1037580080B483B000AF78607B6818460C37BD46EC
:103768005DF8047B704780B582B000AF78607868F8
:10377800FFF7EEFF0346184601F03CF902467B6866
:10378800D3F80031134418460837BD4680BD000001
:1037980080B400AF024B1846BD465DF8047B704705
:1037A800F00300202DE9F0478EB006AF01F047F88E
:1037B8002323FB611E23BB6113237B610A233B6127
:1037C8000A23FB60684B1B6803F00103002B28D118
:1037D800FFF742FF8046FFF765FF8146FFF788FF46
:1037E800824600F04BFB044600F070FB054601F0F2
:1037F8007FF8064601F086F8786001F08DF80346F8
:1038080005930C2304937B68039302960195009417
:1038180053464A464146554801F099F8524B012211
:103828001A6000F0EBFAB860B86801F0C5F84F4BC1
:10383800D3F818311846FEF792FE03461846FEF7ED
:103848007EFE03461846FEF79AFE03461846FEF724
:10385800A6FEFFF773FF03461846FEF7D5FDB868C6
:1038680001F0B9F8414BD3F81C3101211846FEF795
:10387800D3FC04463D48FFF776FF03461946204629
:10388800FEF79CFC0446394BD3F818311846FEF76E
:1038980022FF034619462046FEF79FFC03461846BA
:1038A800FEF76CFC034600211846FEF7CBFC0346E6
:1038B80000211846FEF7DCFC03461846FEF704FD17
:1038C800FFF766FF03461846FEF79EFD274BD3F821
:1038D800203100211846FEF79FFC04462348FFF7D5
:1038E80042FF034619462046FEF768FC04461F4B74
:1038F800D3F818311846FEF7E2FE0346194620466B
:10390800FEF76BFC0346FF211846FEF775FC0346DD
:103918001846FEF733FC034600211846FEF792FCD2
:10392800034600211846FEF7A3FC03461846FEF797
:1039380035FC0E4BD3F8204101F068F803461946D0
:103948002046FEF7ABFC094BD3F81C4101F05EF8AA
:10395800034619462046FEF7A1FC044B18462037BB
:10396800BD46BDE8F08700BF780500204C04002064
:1039780080B582B000AF78607B681846FEF7E5FC3A
:103988007B6818460837BD4680BD90B583B000AF48
:1039980078607B68002B0AD07B6803F120047B6881
:1039A8009C4204D0103C2046FFF7E2FFF7E77B6813
:1039B80018460C37BD4690BD80B582B000AF786020
:1039C800064A7B681A607B68DC331846FFF7DDFF20
:1039D8007B6818460837BD4680BD00BFE4AF0008C5
:1039E80090B587B002AF0346B980FB71FFF7DAFEE6
:1039F800F860274B1B6803F00103002B14D1FFF775
:103A08009DFE0446FFF7C4FE0346F979009323465A
:103A1800FA68204801F016F81D4B01221A601E4A68
:103A28001E491C4807F095F93B7923F01F03DBB2C8
:103A3800002B19D03B7923F01F03DBB2202B11D0C8
:103A48003B7923F01F03DBB2402B09D03B7923F0ED
:103A58001F03DBB2602B01D1022306E0012304E03F
:103A6800022302E0032300E004230A4A1362094BFD
:103A78001B693A1D1146184601F052F8054B1B699F
:103A8800184601F091F8034B18461437BD4690BD0F
:103A98008C0600207C05002000000020C1390008A9
:103AA80080B483B000AF78600B46FB70FB78002BC6
:103AB80005D07B681A68137843F001031370FB780C
:103AC80083F00103DBB2002B05D07B681A681378FA
:103AD8006FF30003137000BF0C37BD465DF8047B1D
:103AE800704780B483B000AF78600B46FB70FB78FA
:103AF800002B04D07B681B68012283F82620FB7802
:103B080083F00103DBB2002B04D07B681B68002222
:103B180083F8262000BF0C37BD465DF8047B70474C
:103B280080B400AF01231846BD465DF8047B70479A
:103B380080B500AF0F4B1B6803F00103002B0AD1BF
:103B480000F084FE0346062219460B48FDF786FC62
:103B5800084B01221A6000F051F90346184600F09C
:103B68007FFE054B1B68184601F0AEF8024B18465D
:103B780080BD00BF9806002090060020F0B587B0F1
:103B880002AF0346FB8001F08DF80523FB6001239B
:103B9800FB72214B1B6803F00103002B19D101F0C4
:103BA80089F80446FFF7C4FF0546FFF7B9FF034647
:103BB8001E4601F09DF803461A46FB8801930092C1
:103BC80033462A4621461548FDF778FE124B012256
:103BD8001A6000F013F90346184601F091F80F4BEC
:103BE8001B680621184601F09AF80346184601F0AA
:103BF800ACF803461846FDF7C6FC03461846FDF721
:103C0800B2FC40F603210648FDF79CFD034B18461D
:103C18001437BD46F0BD00BFBC0600209C0600203E
:103C2800AC06002080B582B000AF7860102000F0AC
:103C38003FFB02467B681A607B681B68184600F0E9
:103C4800E1FB02467B685A607B681B68184600F0F7
:103C580052FC02467B689A607B681B68184600F035
:103C6800C3FC02467B68DA607B6818460837BD46A5
:103C780080BD0000B0B5ADF5147D04AF5E4B07F50F
:103C880000741D460FCD0FC40FCD0FC495E8070073
:103C980084E8070007F5CA7307F50072114618464D
:103CA800FFF780FCFFF78CFCC7F83C02FFF7AEFC7F
:103CB800C7F8380297F80432B7F802121846FFF727
:103CC8008FFE0346C7F89031D7F890319433C7F880
:103CD8003432D7F83432C7F82C32D7F89031DC3385
:103CE8000021184600F091FF024607F50B731946AC
:103CF800104600F099FF07F50073C7F83032D7F87F
:103D08009031DC330121184600F07FFF024607F5A9
:103D18000C731946104600F0A6FFD7F890310A2216
:103D2800A3F87220B7F80022D7F89031A3F87420CE
:103D380097F804329AB2D7F89031A3F87820D7F8D8
:103D48009031B7F80222A3F87620D7F89031FF22F5
:103D5800A3F8B820D7F890310122A3F89820D7F813
:103D68009031FF22A3F8BA20D7F890310022A3F8A7
:103D7800A820D7F890317822A3F8CA20D7F8903134
:103D88000022A3F8AA20D7F890317822A3F8CC20F3
:103D98004FF4C870FFF7F2FE0346C7F88C3107F5F9
:103DA800BE731846FFF73EFFD7F88C2107F5BE71A2
:103DB80007F10C0007F500730293D7F8343201932A
:103DC800D7F838320093D7F83C3200F0E7FFD7F83D
:103DD800901107F10C023B1D184601F043F907F159
:103DE8000C03184601F052F93B1D184601F096FDE8
:103DF80030BF00BFF3E700BFACAD000880B400AF30
:103E0800024B1846BD465DF8047B704700380240F7
:103E180080B400AF024B1846BD465DF8047B70477E
:103E2800003C014090B589B000AF78600023FB608A
:103E380007F1100307F10C011022184601F079FE72
:103E480007F110030121184601F08DFE07F1100358
:103E5800184601F07DFE07F10C03184601F0ADFE8F
:103E680004467B6814331846FEF7E6FC03461C60DC
:103E78007B6818462437BD4690BD000080B400AF6B
:103E8800024B1846BD465DF8047B704700100140A0
:103E980080B400AF024B1846BD465DF8047B7047FE
:103EA8000044004080B400AF024B1846BD465DF8A0
:103EB800047B70470048004080B400AF024B1846AE
:103EC800BD465DF8047B70470060024080B400AFD7
:103ED800024B1846BD465DF8047B704700640240FB
:103EE80080B582B000AF78607B681846FEF71FFA8D
:103EF8007B6818460837BD4680BD80B584B000AFE2
:103F080078607B681A6807F10C031146184601F0BF
:103F18006FFEFB6818461037BD4680BD80B483B07D
:103F280000AF78607B6800221A607B6818460C37FF
:103F3800BD465DF8047B704780B584B000AF7860FB
:103F48000023FB6007F10C031846FFF7E7FFFB6847
:103F580018461037BD4680BD80B483B000AF786086
:103F680039607B681A683B681B689A4214BF012352
:103F78000023DBB218460C37BD465DF8047B70475A
:103F880080B483B000AF78607B681B685A687B6830
:103F98001A607B6818460C37BD465DF8047B70478D
:103FA80080B483B000AF78607B681B6818460C3714
:103FB800BD465DF8047B704780B483B000AF78607D
:103FC8007B681B8818460C37BD465DF8047B704734
:103FD80080B483B000AF78607B681B6818460C37E4
:103FE800BD465DF8047B704780B582B000AF78604D
:103FF8007B681846FEF7BCF9034683F00103DBB281
:1040080018460837BD4680BD80B582B000AF7860DD
:104018007B681846FEF7ACF90346002B01D006F082
:10402800A0FE7B68DB687A681046984700BF0837AF
:10403800BD4680BD80B483B000AF786039607B68CE
:104048005A683B685A607B685B68002B03D07B68C2
:104058005B683A689A607B683A685A607B681B6854
:10406800002B02D17B683A681A6000BF0C37BD4646
:104078005DF8047B704780B483B000AF7860396026
:104088003B685B68002B0ED03B689B68002B0AD00E
:104098003B685B683A6892689A603B689B683A68D4
:1040A80052685A602DE03B689B68002B0FD03B6834
:1040B8009A687B681A607B681B6800225A607B6874
:1040C8001B68002B1DD17B6800225A6019E03B68F1
:1040D8005B68002B0FD03B685A687B685A607B6826
:1040E8005B6800229A607B685B68002B09D17B685B
:1040F80000221A6005E07B6800221A607B680022B3
:104108005A603B6800225A603B6800229A6000BFF0
:104118000C37BD465DF8047B704780B584B000AFAE
:1041280078607B681A6807F10C031146184601F09D
:104138006EFDFB6818461037BD4680BD80B483B05D
:1041480000AF78607B6800221A607B6818460C37DD
:10415800BD465DF8047B704780B584B000AF7860D9
:104168000023FB6007F10C031846FFF7E7FFFB6825
:1041780018461037BD4680BD80B483B000AF786064
:1041880039607B681A683B681B689A4214BF012330
:104198000023DBB218460C37BD465DF8047B704738
:1041A80080B483B000AF78607B681B689A687B68CE
:1041B8001A607B6818460C37BD465DF8047B70476B
:1041C80080B483B000AF78607B681B6818460C37F2
:1041D800BD465DF8047B704780B400AF024B1846BB
:1041E800BD465DF8047B704710E000E080B584B000
:1041F80000AF78600D4BFB6000217868FEF749FF3F
:104208000A497868FEF706FF7868FEF711FF012172
:104218007868FEF71AFF7868FEF72CFF01217868A6
:10422800FEF737FF00BF1037BD4680BD3F90020044
:1042380080B584B000AFF860B9607A60FB681B682D
:10424800591CFA681160BA68B3FBF2F2B96801FB4D
:1042580002F29B1A002B0CBF01230023DBB2002BB8
:1042680003D03B1D1846FFF724F800BF1037BD46A2
:1042780080BD000080B400AF024B1846BD465DF813
:10428800047B7047B803002080B582B000AF786027
:10429800064A7B681A607B6834331846FEF796FD39
:1042A8007B6818460837BD4680BD00BF38B0000897
:1042B800B0B58AB004AF78601C237B61FFF7DAFFE2
:1042C8003861464B1B6803F00103002B1BD101F03A
:1042D800ADFC044601F0B4FC054601F0BBFC024607
:1042E800242302933B69019300922B462246796866
:1042F8003B48FEF779FD394B01221A60394A3A49A1
:10430800374806F026FDFFF779FD0346184601F009
:10431800ABFC334B1B6A00211846FDF76AFB0346CA
:104328001846FDF78CFB03461846FDF752FB03467B
:1043380001211846FDF793FB294B5B6A03211846B8
:10434800FDF7A9FD264B1B6A1846FDF768FBFFF72A
:1043580055FD0346184601F096FC214B1B6A18468A
:10436800FDF793FB0346FB601D4B9B6AF9681846F3
:10437800FDF733FF034600211846FDF74DFF0346BE
:1043880001211846FDF75EFF034601211846FDF797
:104398006FFF03461846FDF7F1FE03461846FDF782
:1043A80093FF03461846FDF7F9FE0D4B9B6A184626
:1043B800FDF7F4FE0A4B9C6A01F074FC03461946AB
:1043C8002046FDF76BFF064BDB6A1846FEF71CF824
:1043D800034B18461837BD46B0BD00BF0407002080
:1043E800C0060020000000209142000880B483B07D
:1043F80000AF78607B685B6818460C37BD465DF88F
:10440800047B7047B0B584B000AF786001F078FCE9
:10441800F8607B681A6A7B681B6B1946104601F0C6
:1044280089FCB860FB68BA681A617B681B6ABA685D
:10443800D1B207221846FDF734FB7B68186A7B68FF
:10444800DB695A1C7B68DA617B68DB69BA68D2B2BF
:104458001946FDF72BFC7B681A6A7B68DB691946ED
:104468001046FDF700FD7B6803F108047B680833FC
:104478001846FFF742FD05467B6808331846FFF7E4
:104488005BFD0146BB681A46284601F0C8FC034696
:10449800FA681946204601F061FC7B6803F11002B6
:1044A8007B689B691946104601F0CEFC7B689B6AC5
:1044B8001846FDF753FE04467B6810331846FEF78E
:1044C80053FC034619462046FDF778FE04467B68F0
:1044D80010331846FFF78AFF03469BB21946204659
:1044E800FDF78AFE03461846FDF71DFEFB681846D1
:1044F8001037BD46B0BDB0B584B000AF786001F0EC
:10450800F7FCF8607B681A6A7B681B6B19461046D3
:1045180001F008FDB860FB68BA681A617B681B6A1D
:10452800BA68D1B207221846FDF7BBFA7B68186A49
:104538007B68DB695A1C7B68DA617B68DB69BA686F
:10454800D2B21946FDF7B2FB7B681A6A7B68DB6951
:1045580019461046FDF787FC7B6803F108047B6861
:1045680008331846FFF7C9FC05467B680833184628
:10457800FFF7E2FC0146BB681A46284601F0E6FC54
:104588000346FA681946204601F0E8FB7B6803F108
:1045980010027B689B691946104601F055FC7B6840
:1045A8009B6A1846FDF7DAFD04467B681033184607
:1045B800FEF7DAFB034619462046FDF7FFFD0446E1
:1045C8007B6810331846FFF711FF03469BB2194664
:1045D8002046FDF711FE03461846FDF7A4FDFB68CB
:1045E80018461037BD46B0BDB0B584B000AF78608E
:1045F80001F0E6FCF8607B681A6A7B681B6B194659
:10460800104601F0F7FCB860FB68BA681A617B686D
:104618001B6ABA68D1B207221846FDF742FA7B68CE
:10462800186A7B68DB695A1C7B68DA617B68DB691E
:10463800BA68D2B21946FDF739FB7B681A6A7B68FB
:10464800DB6919461046FDF70EFC7B6803F1080488
:104658007B6808331846FFF750FC05467B6808332B
:104668001846FFF769FC0146BB681A46284601F060
:10467800D5FC0346FA681946204601F06FFB7B68B3
:1046880003F110027B689B691946104601F0DCFBB8
:104698007B689B6A1846FDF761FD04467B6810330A
:1046A8001846FEF761FB034619462046FDF786FDCE
:1046B80004467B6810331846FFF798FE03469BB202
:1046C80019462046FDF798FD03461846FDF72BFDD1
:1046D800FB6818461037BD46B0BD80B500AF01F085
:1046E800B1FC034605211846FCF726FDFFF786FBBB
:1046F80003461846FCF782FC03461846FCF78EFC76
:10470800034600211846FCF7D1FB0346052118464D
:10471800FCF7E2FB034604211846FCF7F3FB0346CB
:1047280002211846FCF704FC0346184601F094FCE5
:104738000346184601F0A1FC0346184601F0AEFCFA
:10474800034600211846FCF709FC034601211846D8
:10475800FCF71AFC03461846FCF776FC0346184695
:10476800FCF782FC00BF80BD80B582B000AF7860E6
:104778003960786801F0D2FC7B683A685A61396818
:10478800786801F035FD7B681846FEF725FE7B68E2
:1047980018460837BD4680BD80B400AF024B1846A6
:1047A800BD465DF8047B70470008024080B483B0C2
:1047B80000AF78607A68136B43F00403136300BF9B
:1047C8000C37BD465DF8047B704780B582B000AFFA
:1047D80078600121786801F0D4FD0021786801F043
:1047E800E6FD00BF0837BD4680BD000080B400AFBD
:1047F800024B1846BD465DF8047B70470004024032
:1048080080B483B000AF78607A68136B43F002031A
:10481800136300BF0C37BD465DF8047B704780B555
:1048280082B000AF78600121786801F0D6FD0021E0
:10483800786801F0E8FD00BF0837BD4680BD80B448
:1048480000AF00BFBD465DF8047B704780B400AF81
:10485800024B1846BD465DF8047B704700000240D5
:1048680080B483B000AF78607A68136B43F00103BB
:10487800136300BF0C37BD465DF8047B704780B5F5
:1048880082B000AF78600221786801F0D2FD07217C
:10489800786801F0E4FD0021786801F0F6FD00BFBA
:1048A8000837BD4680BD80B582B000AF7860022170
:1048B800786801F000FE0721786801F012FE0021F7
:1048C800786801F024FE00BF0837BD4680BD80B57A
:1048D80082B000AF78600121786801F02EFE0021D7
:1048E800786801F040FE00BF0837BD4680BD000073
:1048F80080B400AF024B1846BD465DF8047B704794
:10490800B864024080B400AF024B1846BD465DF85B
:10491800047B70474064024080B400AF0723184608
:10492800BD465DF8047B704780B483B000AF786003
:104938007B680022C3F800217B680022C3F80421A9
:104948007B6818460C37BD465DF8047B704780B518
:1049580084B000AFF860B9607A603B60FB681846C5
:10496800FFF7E2FFFB68BA68C3F80821FB687A68BA
:10497800C3F80C21FB683A68C3F81021FB68FA6990
:10498800C3F81421FB68BA69C3F81821FB683A6AAE
:10499800C3F81C21FB687A6AC3F82021FB68BA6A4D
:1049A800C3F82421FB6897F82C2083F82821FB689A
:1049B80018461037BD4680BD80B483B000AF78601C
:1049C8007A68536C43F01003536400BF0C37BD463C
:1049D8005DF8047B704780B483B000AF78607A6874
:1049E800136B43F48003136300BF0C37BD465DF8B7
:1049F800047B704780B582B000AF7860786801F0BA
:104A0800C8FD034618460837BD4680BD80B400AFD0
:104A180004231846BD465DF8047B7047B0B582B0E4
:104A280000AF78607B6801241D46002C05DB284612
:104A380001F0F8FD1035013CF7E77B6818460837A8
:104A4800BD46B0BD80B584B000AFF8607A603B6009
:104A58000B46FB72FB681846FEF7E8FB2F4AFB681B
:104A68001A60FB687A681A61FB683A685A61FB68E1
:104A7800BA699A61FB680022DA61FB6800221A624F
:104A8800FB68FA7A83F82420FB680022DA84FB6842
:104A980000221A85FB6800225A85FB68002283F8E9
:104AA8002C20FB6800221A86FB683833F968184600
:104AB80001F07CFDFB684433F968184601F094FD69
:104AC800FB685033222200211846FBF781FCFB6863
:104AD8007233242200211846FBF77AFCFB689633D0
:104AE800222200211846FBF773FCFB68B833222208
:104AF80000211846FBF76CFCFB68DC331846FFF70F
:104B08008DFFFB68FC3300221A605A609A60DA60F5
:104B18001A74FB6818461037BD4680BDE4AF00081C
:104B280080B582B000AF786039607B68D3F818012F
:104B38003B681B78C3F34213DBB219467B68D3F892
:104B480024311A46FDF7D4FD02463B681B78C3F3AF
:104B58004003DBB219461046FDF79FFC02463B684E
:104B68001B78C3F38003DBB219461046FDF7ABFC94
:104B780002463B681B78C3F3C103DBB219461046F3
:104B8800FDF7B7FC02463B681B78C3F30003DBB2B2
:104B980019461046FDF733FD03461846FDF7BFFCDE
:104BA80000BF0837BD4680BD80B582B000AF7860D1
:104BB8007B68184601F043FD7B68D3F8103100216B
:104BC8001846FCF79FFC7B68D3F81C311846FDF7A4
:104BD800C5FA7B68D3F820311846FDF7BFFA0346BB
:104BE800FF211846FDF708FB7B68D3F820311846EB
:104BF800FDF799FA7B68D3F8183101211846FDF7BB
:104C080013FD00BF0837BD4680BD80B582B000AF38
:104C1800786039607B683968184601F022FD0346E0
:104C280018460837BD4680BD80B586B000AF7860AD
:104C38003960386801F024FD024607F1080311685D
:104C4800184601F029FD07F108037968184601F0B4
:104C58004DFD07F108031846FEF78AFE7B681846E3
:104C68001837BD4680BD80B586B000AF7860396022
:104C7800386801F05CFD024607F108031168184620
:104C880001F060FD07F108037968184601F02EFD70
:104C980007F108031846FEF76BFE7B6818461837BD
:104CA800BD4680BD80B400AF00BFBD465DF8047B43
:104CB8007047000080B400AF024B1846BD465DF84F
:104CC800047B70470004004080B582B000AF786074
:104CD8000221786801F060FD0221786801F072FD18
:104CE8000021786801F084FD00BF0837BD4680BD0B
:104CF80080B400AF01231846BD465DF8047B7047B9
:104D080080B483B000AF78607A68136C43F0020314
:104D1800136400BF0C37BD465DF8047B704780B450
:104D280083B000AF78600B46FB70FB7803F0070395
:104D3800D9B27A68936961F3061393617B68184660
:104D48000C37BD465DF8047B704780B483B000AF74
:104D580078607A68936943F0080393617B68184622
:104D68000C37BD465DF8047B7047000080B582B003
:104D780000AF78607B681846FEF758FA064A7B68E9
:104D88001A607B6800221A617B6800225A617B687E
:104D980018460837BD4680BD14B0000890B585B0E8
:104DA80000AFF860B9607A603B60FB6801221A7056
:104DB800FB6800225A70FB6800229A70FB68002288
:104DC800DA70FB6803221A71FB6800225A71FB68CB
:104DD800BA689A60FB687A68DA60FB683A681A61B0
:104DE800FB683A6A5A61FB687A6A9A61FB68BA6A30
:104DF800DA61FB6803F120044FF0C8004FF00001AE
:104E0800FCF797FA034619462046FEF725FAFB6891
:104E180003F138044FF4FA704FF00001FCF789FAF7
:104E2800034619462046FEF717FAFB6803F15004BB
:104E38004FF001004FF00001FCF787FA03461946CE
:104E48002046FEF709FAFB6803F168044FF00100F9
:104E58004FF00001FCF779FA034619462046FEF7A1
:104E6800FBF9FB68803300221A605A609A60DA60A6
:104E78001A615A61FB6880331846FFF777FFFB68B1
:104E880003F198044FF032004FF00001FCF751FA9B
:104E9800034619462046FEF7DFF9FB68B0330022C7
:104EA8001A605A609A60DA601A615A61FB68B03316
:104EB8001846FFF75BFFFB6803F1C802FB68DB6974
:104EC8001B8B19461046FEF7C7F9FB68E033002232
:104ED8001A605A609A60DA601A615A61FB68E033B6
:104EE8001846FFF743FFFB68F83300221A605A6040
:104EF8009A60DA601A615A61FB68F8331846FFF75E
:104F080035FFFB6803F5887300221A605A609A60BF
:104F1800DA601A615A61FB6803F588731846FFF76F
:104F280025FFFB680022A3F82821FB680022A3F8CC
:104F38002A21FB680022A3F82C21FB680022A3F891
:104F48002E21FB680022A3F83021FB680022A3F879
:104F58003221FB680022A3F83421FB680022A3F861
:104F68003621FB680022A3F83821FB680022A3F849
:104F78003A21FB680022A3F83C21FB680022A3F831
:104F88003E214FF001004FF00001FCF7C2F9034643
:104F98009AB2FB68A3F840214FF013004FF00001CC
:104FA800FCF7B7F903469AB2FB68A3F842214FF021
:104FB80019004FF00001FCF7ACF903469AB2FB6800
:104FC800A3F84421FB68C822A3F846214FF00A0041
:104FD8004FF00001FCF791F903461AB2FB68A3F8F9
:104FE80048214FF000004FF00001FCF786F9034616
:104FF8001AB2FB68A3F84A21FB68002283F84C2107
:10500800FB68012283F84D21FB68002283F84E21BA
:10501800FB6803F5A87300221A605A609A60DA6088
:105028001A61FB68002283F86421FB682122C3F817
:105038006821FB6841F2EC32C3F86C21BB681B683D
:105048001846FDF715FF4FF005004FF00001FCF77B
:1050580070F90246FB68C3F89020FB6818461437BD
:10506800BD4690BD80B485B000AFF860B9607A6085
:10507800FB68BA681A60FB687A685A60FB68184669
:105088001437BD465DF8047B7047000090B583B0C7
:1050980000AF78607B689B691B78C3F30013DBB2B1
:1050A80019467B68B3F828217B68DB6993F82230BE
:1050B8009BB29A428CBF01230023DBB241EA030270
:1050C8007B689B69002A14BF01220022D1B21A789A
:1050D80061F304121A701B78C3F30013DBB2002BC0
:1050E80015D07B68B3F828117B68DB6993F8233007
:1050F8009BB27A68926999428CBF01230023D9B286
:10510800137861F3041313707B6806225A707B6866
:105118009B691B78C3F30003DBB2002B0CD07B68C0
:105128009B691846FEF716FA034683F00103DBB2C3
:10513800002B01D0012200E000227B6883F84C217B
:105148007B6893F84C31002B0AD07B6893F84D317B
:10515800002B05D07B68DB681846FCF7DAFB04E017
:105168007B68DB681846FCF7E4FB786801F056FBBF
:10517800786801F0D7FB7B689B689B681846FDF749
:105188008DFD03469BB21946786801F015FC03466D
:105198001A467B68A3F830217B689B68DB68184651
:1051A800FDF77CFD03469BB21946786801F056FC72
:1051B8007B68DB6993F82630002B0BD07B689B69F2
:1051C8001B78C3F34003DBB2002B14BF0123002379
:1051D800D9B200E000217B689A69137861F3410332
:1051E80013707B68DB6993F82630002B09D07B6845
:1051F800DB681846FCF7ADFB0346002B01D0012302
:1052080000E00023002B0DD07B6838331846FEF7EA
:1052180083F803461A467B681B6911461846FCF753
:1052280086F90CE07B68DB681846FCF792FB0346BE
:105238001A467B681B6911461846FCF763F97B68B8
:10524800DB691A897B68B3F84031D31A9AB27B6854
:10525800A3F842217B68DB691A897B68B3F840317F
:1052680013449AB27B68A3F844217B68DB6993F8FE
:1052780021309BB29B009AB27B68A3F846217B68D9
:105288005B78062B00F2D68101A252F823F000BF0A
:10529800B55200082D5400088154000839550008FB
:1052A800B1550008F7540008E55500087B6893F8E5
:1052B8004E31002B00F083807B68DB6993F8263041
:1052C800002B46D07B689A69137843F00203137069
:1052D8007B68DB6993F82430002B18D07B68B3F81F
:1052E80046217B68DB68183311461846FCF792FAAA
:1052F8007B68DB691A897B68DB68103311461846BE
:10530800FCF720FA0221786801F0D2FB74E07B6890
:105318000022A3F82C217B680022A3F832217B68A5
:105328000022A3F834217B68DB681833642118460F
:10533800FCF770FA7B68B3F844217B68DB681033AC
:1053480011461846FCF7FEF90121786801F0B0FB18
:1053580052E07B68DB6993F8263083F00103DBB207
:10536800002B09D07B68DB681846FCF7F2FA034685
:10537800002B01D0012300E00023002B03D0786824
:1053880001F0A9FB38E07B68DB6993F82430002B37
:105398000AD07B68DB695A8A7B68DB681033114660
:1053A8001846FCF7CFF927E07B68DB699A8A7B68A7
:1053B800DB68103311461846FCF7C4F91CE07B681B
:1053C800DB68183364211846FCF724FA7B68DB692C
:1053D8001A897B68DB68103311461846FCF7B2F966
:1053E8007B68DB681846FCF7B4FA0346002B03D049
:1053F8007B68012283F84E217B68DB6993F82830AB
:10540800002B00F00C817B68F8331846FDF79FFFEE
:105418007B6803F588731846FDF799FF7B680322BC
:105428001A71FCE07B68DB681846FCF792FA0346C1
:10543800002B11D0786801F093FB034683F0010339
:10544800DBB2002B08D07B689A6913786FF34103AD
:105458001370786801F03FFB7B68DB681846FCF73F
:1054680078FA034683F00103DBB2002B00F0D98001
:105478007B6800225A70D4E07B68B3F82A217B68E5
:10548800DB68103311461846FCF75CF97B68DB696A
:1054980093F8263083F00103DBB2002B19D07B6828
:1054A8009A6913786FF3410313707B68DB6803F123
:1054B80010027B68DC691046FCF725F90346638215
:1054C8007B68DB697A68B2F82C211A82786801F067
:1054D80002FB7B68DB6993F8243083F00103DBB2BD
:1054E800002B00F0A0807B6800225A709BE078684F
:1054F80001F00CFC0346002B09D00321786801F069
:10550800D7FA7B68DB697A68B2F83021DA837B687E
:10551800DB681846FCF71DFA034683F00103DBB28B
:10552800002B00F082800021786801F0C1FA7CE04D
:105538007B68DB6993F82730002B03D0786801F08B
:105548003FFC1BE07B68DB6993F82830002B03D015
:10555800786801F0FFFC11E07B689B695B78C3F316
:105568000003DBB2002B03D0786801F07FFD05E073
:105578007B689A6953786FF3410353707B689B6922
:105588001B78C3F30003DBB283F00103DBB2002B0B
:105598004DD00021786801F08BFA7B6800221A70E0
:1055A8007B680022DA7042E07B68B3F82A217B68C6
:1055B800DB68103311461846FCF7C4F87B68DB68D3
:1055C8001846FCF7C6F9034683F00103DBB2002B4B
:1055D8002FD00021786801F06BFA2AE07B689B697C
:1055E8001846FDF7B7FF0346002B0DD07B6838330C
:1055F8001846FDF791FE03461A467B685B6911461B
:105608001846FBF794FF15E07B685B690021184694
:10561800FBF778FF7B685A797B685A700AE000BF0D
:1056280008E000BF06E000BF04E000BF02E000BFE2
:1056380000E000BF00BF0C37BD4690BD80B483B00A
:1056480000AF78600B467B807B88102B00F25D8171
:1056580001A252F823F000BFA5560008D156000851
:10566800F7560008155700084D57000863570008FB
:1056780079570008A957000893570008BF57000832
:10568800D9570008F357000809580008235800089C
:10569800395800084F580008655800087B681B688F
:1056A8001A687B681B681B68B2F85020A3F876203C
:1056B8007B681B681B6803F176027B681B685B6864
:1056C800DB6912885A8020E17B681B681A687B684E
:1056D8001B681B68B2F85220A3F87820B3F878202A
:1056E8007B681B685B68DB69D2B21A710DE17B6865
:1056F8001B681B68B3F8543040F2B74293420CBFA2
:1057080001230023DAB2844B1A70FEE0824B1B7827
:10571800002B13D0804B00221A707B681B681A6814
:105728007B681B681B68B2F85620A3F874207A6857
:1057380012685268D269B3F874301380764B01222C
:105748001A70E2E07B681B681A687B681B685B68F4
:10575800B2F85820A3F82A21D7E07B681B681A689A
:105768007B681B685B68DB69B2F85A201A81CCE059
:105778007B681B681B68B3F85C207B681B685B68E8
:10578800DB69D2B283F82120BFE07B681B681A6806
:105798007B681B685B68DB69B2F860209A81B4E0BB
:1057A8007B681B681A687B681B685B68DB69B2F8F2
:1057B8005E205A81A9E07B681B681B68B3F86220E9
:1057C8007B681B685B68DB69D2B283F822209CE0A7
:1057D8007B681B681B68B3F864207B681B685B6880
:1057E800DB69D2B283F823208FE07B681B681A68D4
:1057F8007B681B685B68DB69B2F86620DA8284E044
:105808007B681B681B68B3F868207B681B685B684B
:10581800DB69D2B283F8202077E07B681B681A68BE
:105828007B681B685B68DB69B2F86A201A836CE0E6
:105838007B681B681A687B681B685B68DB69B2F861
:105848006C205A8361E07B681B681A687B681B6858
:105858005B68DB69B2F86E209A8356E07B681B6848
:105868001A687B681B685B68DB6992F87020C2F372
:105878008002D2B283F825207B681B681A687B688F
:105888001B685B68DB6992F87020C2F3C002D2B271
:1058980083F824207B681B681B687A681268526842
:1058A800926993F87130C3F30003D9B2537861F366
:1058B800000353707B681B681A687B681B685B6809
:1058C800DB6992F87120C2F38002D2B283F82720F4
:1058D8007B681B681A687B681B685B68DB6992F8E1
:1058E8007120C2F3C002D2B283F828207B681B68FB
:1058F8001A687B681B685B68DB6992F87120C2F3E1
:105908000012D2B283F8292000BF00BF0C37BD4671
:105918005DF8047B704700BF08070020B0B582B06F
:1059280000AF78607B685B68DA697B681B681289FE
:10593800A3F87E207B685B68DB6803F110027B6854
:105948001C681046FBF7DFFE0346A4F880307B682E
:105958005B68DA697B681B685289A3F884207B68D6
:105968005B68DA697B681B68528AA3F882207B68C7
:105978005B68DA697B681B689289A3F888207B6872
:105988005A687B681B68B2F83021A3F886207B68C8
:105998005A687B681B68B2F82821A3F88E207B68B8
:1059A8005B68DB6993F822207B681B6892B2A3F8D6
:1059B80090207B685B68DB6993F823207B681B6811
:1059C80092B2A3F892207B685A687B685B68DB69AF
:1059D800D9897B681C68104600F0EEFF0346A4F8DE
:1059E8008A307B685A687B685B68DB69198A7B68E0
:1059F8001C68104600F0E0FF0346A4F88C307B6872
:105A08005B68DB6993F821207B681B6892B2A3F876
:105A18007A207B685B68DB6818331846FBF7DAFE88
:105A280003461A467B681B68920892B2A3F87C204A
:105A38007B685B68DB697A68126893F8251092F8CE
:105A4800943061F3820382F894307B685B68DB6989
:105A58007A68126893F8241092F8943061F3C303BB
:105A680082F894307B681A6892F8943043F0800387
:105A780082F894307B685B689B697A6812681B7847
:105A8800C3F30013D9B292F8943061F3041382F887
:105A980094307B685B689B697A6812681B78C3F3EB
:105AA8004013D9B292F8943061F3451382F89430D8
:105AB8007B685B689B697A6812681B78C3F38013FC
:105AC800D9B292F8943061F3861382F894307B68E7
