:020000040800F2
:10000000000002203D3300088D3300088D330008C6
:100010008D3300088D3300088D3300080000000088
:100020000000000000000000000000008D33000808
:100030008D330008000000008D330008B512000861
:10004000850F0008F50F0008870F0008890F0008CA
:100050008B0F00088D0F00088F0F0008910F00080C
:10006000930F0008950F0008970F00086D10000807
:1000700089100008A5100008C1100008DD10000854
:10008000F910000815110008990F00089B0F0008CF
:100090009D0F00089F0F0008A10F0008A30F000884
:1000A000D70F0008D90F0008DB0F0008DD0F00088C
:1000B000DF0F0008E10F0008E30F0008A50F00089C
:1000C000A70F0008A90F0008AB0F00082D120008A9
:1000D00039120008191000083510000851100008E6
:1000E000AD0F0008AF0F0008B10F0008EB0F0008BC
:1000F000ED0F0008EF0F0008F10F000831110008A4
:10010000B30F0008B50F0008E50F000845120008FE
:10011000B70F0008B90F0008E70F0008E90F000843
:100120004D1100086911000885110008A11100088F
:10013000BD1100080000000000000000BB0F000817
:10014000BD0F0008BF0F0008C10F0008C30F000853
:10015000D9110008F511000811120008C50F000898
:10016000C70F0008C90F0008CB0F0008CD0F00080B
:10017000CF0F0008D10F00080000000000000000B1
:08018000D30F0008D50F0008A1
:1001880010B5054C237833B9044B13B10448AFF3C9
:1001980000800123237010BD04000020000000002F
:1001A8000C34000808B5034B1BB103490348AFF3EF
:1001B800008008BD00000000080000200C34000882
:1001C80081F0004102E000BF83F0004330B54FEA00
:1001D80041044FEA430594EA050F08BF90EA020F6D
:1001E8001FBF54EA000C55EA020C7FEA645C7FEA00
:1001F800655C00F0E2804FEA5454D4EB5555B8BF23
:100208006D420CDD2C4480EA020281EA030382EA93
:10021800000083EA010180EA020281EA0303362D25
:1002280088BF30BD11F0004F4FEA01314FF4801CF8
:100238004CEA113102D0404261EB410113F0004F0A
:100248004FEA03334CEA133302D0524263EB4303C1
:1002580094EA050F00F0A780A4F10104D5F1200E5F
:100268000DDB02FA0EFC22FA05F2801841F10001BA
:1002780003FA0EF2801843FA05F359410EE0A5F18E
:1002880020050EF1200E012A03FA0EFC28BF4CF0BF
:10029800020C43FA05F3C01851EBE37101F0004575
:1002A80007D54FF0000EDCF1000C7EEB00006EEB82
:1002B8000101B1F5801F1BD3B1F5001F0CD349080C
:1002C8005FEA30004FEA3C0C04F101044FEA445263
:1002D80012F5800F80F09A80BCF1004F08BF5FEAEA
:1002E800500C50F1000041EB045141EA050130BDCA
:1002F8005FEA4C0C404141EB010111F4801FA4F16D
:100308000104E9D191F0000F04BF01460020B1FAC1
:1003180081F308BF2033A3F10B03B3F120020CDAF9
:100328000C3208DD02F1140CC2F10C0201FA0CF0D7
:1003380021FA02F10CE002F11402D8BFC2F1200C3C
:1003480001FA02F120FA0CFCDCBF41EA0C019040F2
:10035800E41AA2BF01EB0451294330BD6FEA04043B
:100368001F3C1CDA0C340EDC04F11404C4F1200226
:1003780020FA04F001FA02F340EA030021FA04F338
:1003880045EA030130BDC4F10C04C4F1200220FA8F
:1003980002F001FA04F340EA0300294630BD21FACD
:1003A80004F0294630BD94F0000F83F4801306BF93
:1003B80081F480110134013D4EE77FEA645C18BF87
:1003C8007FEA655C29D094EA050F08BF90EA020F1E
:1003D80005D054EA000C04BF1946104630BD91EA16
:1003E800030F1EBF0021002030BD5FEA545C05D119
:1003F8004000494128BF41F0004130BD14F5800458
:100408003CBF01F5801130BD01F0004545F0FE41CB
:1004180041F470014FF0000030BD7FEA645C1ABF00
:10042800194610467FEA655C1CBF0B46024650EA37
:10043800013406BF52EA033591EA030F41F4002163
:1004480030BD00BF90F0000F04BF0021704730B5E9
:100458004FF4806404F132044FF000054FF00001BE
:1004680050E700BF90F0000F04BF0021704730B57F
:100478004FF4806404F1320410F0004548BF404254
:100488004FF000013EE700BF42004FEAE2014FEAA9
:1004980031014FEA02701FBF12F07F4393F07F4F84
:1004A80081F06051704732F07F4208BF704793F087
:1004B8007F4F04BF41F40021704730B54FF460749A
:1004C80001F0004521F000411CE700BF50EA01029D
:1004D80008BF704730B54FF000050AE050EA010246
:1004E80008BF704730B511F0004502D5404261EBB6
:1004F80041014FF4806404F132045FEA915C3FF4F7
:10050800D8AE4FF003025FEADC0C18BF03325FEA93
:10051800DC0C18BF033202EBDC02C2F1200300FA44
:1005280003FC20FA02F001FA03FE40EA0E0021FA69
:1005380002F11444BDE600BF70B54FF0FF0C4CF457
:10054800E06C1CEA11541DBF1CEA135594EA0C0F09
:1005580095EA0C0F00F0DEF82C4481EA030621EA44
:100568004C5123EA4C5350EA013518BF52EA03357F
:1005780041F4801143F4801338D0A0FB02CE4FF031
:100588000005E1FB02E506F00042E0FB03E54FF061
:100598000006E1FB03569CF0000F18BF4EF0010E59
:1005A800A4F1FF04B6F5007F64F5407404D25FEA55
:1005B8004E0E6D4146EB060642EAC62141EA555108
:1005C8004FEAC52040EA5E504FEACE2EB4F1FD0C4A
:1005D80088BFBCF5E06F1ED8BEF1004F08BF5FEAC8
:1005E800500E50F1000041EB045170BD06F000467A
:1005F80046EA010140EA020081EA0301B4EB5C0427
:10060800C2BFD4EB0C0541EA045170BD41F480111E
:100618004FF0000E013C00F3AB8014F1360FDEBF43
:10062800002001F0004170BDC4F10004203C35DA1F
:100638000C341BDC04F11404C4F1200500FA05F3A2
:1006480020FA04F001FA05F240EA020001F0004243
:1006580021F0004110EBD37021FA04F642EB0601B9
:100668005EEA430E08BF20EAD37070BDC4F10C04E3
:10067800C4F1200500FA04F320FA05F001FA04F2A7
:1006880040EA020001F0004110EBD37041F1000193
:100698005EEA430E08BF20EAD37070BDC4F120059E
:1006A80000FA05F24EEA020E20FA04F301FA05F206
:1006B80043EA020321FA04F001F0004121FA04F2AE
:1006C80020EA020000EBD3705EEA430E08BF20EA7E
:1006D800D37070BD94F0000F0FD101F000464000B8
:1006E80041EB010111F4801F08BF013CF7D041EA3A
:1006F800060195F0000F18BF704703F0004652003E
:1007080043EB030313F4801F08BF013DF7D043EA0E
:100718000603704794EA0C0F0CEA135518BF95EAC4
:100728000C0F0CD050EA410618BF52EA4306D1D14B
:1007380081EA030101F000414FF0000070BD50EA6A
:10074800410606BF1046194652EA430619D094EAF4
:100758000C0F02D150EA013613D195EA0C0F05D1DE
:1007680052EA03361CBF104619460AD181EA030132
:1007780001F0004141F0FE4141F470014FF00000EA
:1007880070BD41F0FE4141F4780170BD70B54FF085
:10079800FF0C4CF4E06C1CEA11541DBF1CEA135505
:1007A80094EA0C0F95EA0C0F00F0A7F8A4EB0504E7
:1007B80081EA030E52EA03354FEA013100F08880DE
:1007C8004FEA03334FF0805545EA131343EA1263A7
:1007D8004FEA022245EA111545EA10654FEA00265C
:1007E8000EF000419D4208BF964244F1FD0404F515
:1007F800407402D25B084FEA3202B61A65EB030571
:100808005B084FEA32024FF480104FF4002CB6EB2D
:10081800020E75EB030E22BFB61A754640EA0C00AD
:100828005B084FEA3202B6EB020E75EB030E22BFED
:10083800B61A754640EA5C005B084FEA3202B6EB2E
:10084800020E75EB030E22BFB61A754640EA9C00ED
:100858005B084FEA3202B6EB020E75EB030E22BFBD
:10086800B61A754640EADC0055EA060E18D04FEA7B
:10087800051545EA16754FEA06164FEAC30343EA1B
:1008880052734FEAC2025FEA1C1CC0D111F4801FE8
:100898000BD141EA00014FF000004FF0004CB6E7E1
:1008A80011F4801F04BF01430020B4F1FD0C88BF80
:1008B800BCF5E06F3FF6AFAEB5EB030C04BFB6EB8B
:1008C800020C5FEA500C50F1000041EB045170BD7E
:1008D8000EF0004E4EEA113114EB5C04C2BFD4EBAB
:1008E8000C0541EA045170BD41F480114FF0000E2F
:1008F800013C90E645EA060E8DE60CEA135594EAAB
:100908000C0F08BF95EA0C0F3FF43BAF94EA0C0FAD
:100918000AD150EA01347FF434AF95EA0C0F7FF422
:1009280025AF104619462CE795EA0C0F06D152EA76
:1009380003353FF4FDAE1046194622E750EA41065A
:1009480018BF52EA43067FF4C5AE50EA41047FF46B
:100958000DAF52EA43057FF4EBAE12E74A0011D21D
:1009680012F5001211D20DD56FF47873B3EB625201
:100978000ED44FEAC12343F0004343EA505323FA0D
:1009880002F070474FF00000704750EA013002D182
:100998004FF0FF3070474FF00000704742090123C5
:1009A80000F01F0003FA00F0014B43F822007047E3
:1009B80000E100E043690133436170470268097848
:1009C800137819B143F001031370704761F3000302
:1009D800FAE7012A03D0022A03D0002070470160F9
:1009E800FBE70B680360F8E70A78036802B10122A5
:1009F8009A777047012A03D0022A03D00020704753
:100A08000160FBE70B680360F8E7C3690133C36162
:100A1800704770B4816800220B4613B19A605B6816
:100A2800FBE7D0E9042302EB43050B469542144645
:100A380009D026889C6834449C605B680232002B8D
:100A480008BF0B46F2E7C36B1BB1036C70BC3430B4
:100A5800184770BC70470B1A9B10002B10DD0278EA
:100A680012B342780AB90130704782780AB9023065
:100A78007047C2780AB9033070470430013BECE78D
:100A88000B1A022B0BD0032B06D0012B0BD10378AA
:100A9800002B18BF0846704703782BB10130037844
:100AA80013B10130F3E7084670470B1A9B10002B6F
:100AB80010DD027812BB42780AB1013070478278A3
:100AC8000AB102307047C2780AB103307047043067
:100AD800013BECE70B1A022B0BD0032B06D0012BA2
:100AE8000BD10378002B08BF0846704703782BB951
:100AF8000130037813B90130F3E708467047FFF770
:100B08004DBF036813B90160704713465A68002A3D
:100B1800FBD15960704710B504462CB123682046B4
:100B28001B6898476468F8E710BD00000369002B4C
:100B3800BFBF034B436003F188334360704700BF76
:100B48002301674570B5D0E900340122186902FA1B
:100B580004F5284214BF1046002031B11E69354201
:100B68001DBF1034A2409A619D61484070BD0129A3
:100B780003D1006A00F001007047022903D1006A1E
:100B8800C0F300107047032903D1006AC0F30020A6
:100B98007047042906BF006AC0F300300020704780
:100BA800012901D142637047022901D1826370474C
:100BB800032901D1C2637047042908BF0264704742
:100BC80003888B4219D040F60223994215D9018037
:100BD8000A4BB3FBF1F143680139D8691A6849082F
:100BE8001981D1621B8B0289817A006853434FF4C3
:100BF8007A7293FBF2F2FFF7D3BF7047007A030AC9
:100C080008B50388194489B2FFF7DAFF08BD0288DE
:100C18008A4210B50B460ED04468E2898A420AD34C
:100C2800228901804A4320684FF47A7192FBF1F2DD
:100C3800A17AFFF7B5FF184610BDC3691A7F10B532
:100C48000446AAB11B8AE068A4F810311030B4F841
:100C58001011FFF7B5FFE369E0685B7F53B1B4F8A3
:100C68001A111830FFF7D3FF04236370237110BDE6
:100C78005B8AE8E764211830FFF7C9FF0523F4E72A
:100C8800817A0068FFF773BF21B9036962F3020331
:100C980003617047012903D1036962F3C503F7E7CC
:100CA800022903D1036962F38813F1E7032903D109
:100CB800036962F34B23EBE7042903D1036962F369
:100CC8000E33E5E7052903D1036962F3D133DFE782
:100CD800062903D1036962F39443D9E7072903D1AD
:100CE800036962F35753D3E7082903D1036962F311
:100CF8001A63CDE7092903D1036962F3DD63C7E706
:100D08000A2904D1C36862F30203C36070470B2940
:100D180003D1C36862F3C503F7E70C2903D1C3689D
:100D280062F38813F1E70D2903D1C36862F34B23FB
:100D3800EBE70E2903D1C36862F30E33E5E70F2909
:100D480003D1C36862F3D133DFE7102903D1C36845
:100D580062F39443D9E7112903D1C36862F3575367
:100D6800D3E71229D2D1C36862F31A63CDE7012908
:100D780004D1436B62F3040343637047022903D130
:100D8800436B62F34913F7E7032903D1436B62F31B
:100D98008E23F1E7042903D1436B62F3D333EBE7E6
:100DA800052903D1436B62F31853E5E7062903D1FC
:100DB800436B62F35D63DFE7072904D1036B62F3DA
:100DC800040303637047082903D1036B62F34913D3
:100DD800F7E7092903D1036B62F38E23F1E70A29A8
:100DE80003D1036B62F3D333EBE70B2903D1036B16
:100DF80062F31853E5E70C2903D1036B62F35D63D3
:100E0800DFE70D2904D1C36A62F30403C3627047A4
:100E18000E2903D1C36A62F34913F7E70F2903D1F7
:100E2800C36A62F38E23F1E71029F0D1C36A62F333
:100E3800D333EBE719B90068C0F3401070470129B4
:100E480003D10068C0F3C0207047022903D10068AD
:100E5800C0F340507047032903D10068C0F3C06055
:100E68007047042901D14068E6E7052901D14068A7
:100E7800E8E7062901D14068EAE7072901D1406877
:100E8800ECE70020704710B58368044613B10322CD
:100E980001469847204610BD10B5044B044640F85B
:100EA800343BFFF7F0FF204610BD00BF10380008A4
:100EB80070B50646074B46F8B83B054600F1D8041E
:100EC800A64204D0103C2046FFF7DDFFF8E728468D
:100ED80070BD00BF703400080C2A10B501D0112A6B
:100EE80015D1204B9A68C2F34232D2B1042A1AD0E3
:100EF800052A1AD01C4B1D4C062A08BF2346072971
:100F08001AD8DFE801F0141A1D202326292C0D3ADF
:100F1800032A04D8134B9A68C2F38222E5E7002318
:100F2800EDE7134BEBE7134BE9E7134BE7E74FF418
:100F38001652B3FBF2F3836010BD4FF46152F8E729
:100F48004FF49642F5E74FF4E142F2E74FF41642C8
:100F5800EFE74FF46142ECE74FF49632E9E74FF4DC
:100F6800E132E6E700380240A037A000406F4001B8
:100F7800007A030A00BD010580DE8002FEE7FEE775
:100F8800FEE7FEE7FEE7FEE7FEE7FEE7FEE7FEE731
:100F9800FEE7FEE7FEE7FEE7FEE7FEE7FEE7FEE721
:100FA800FEE7FEE7FEE7FEE7FEE7FEE7FEE7FEE711
:100FB800FEE7FEE7FEE7FEE7FEE7FEE7FEE7FEE701
:100FC800FEE7FEE7FEE7FEE7FEE7FEE7FEE7FEE7F1
:100FD800FEE7FEE7FEE7FEE7FEE7FEE7FEE7FEE7E1
:100FE800FEE7FEE7FEE7FEE7FEE7000010B5064C69
:100FF8006269D30303D5054B1868FFF78CFD4FF4DE
:101008008033636110BD00BF003C0140E404002050
:1010180008B5044B1868FFF77EFD034B1A685B6838
:1010280008BD00BF040500200010014008B5044BAE
:101038001868FFF770FD034B1A685B6808BD00BFAE
:101048000C0500200044004008B5044B1868FFF761
:1010580062FD034B1A685B6808BD00BF14050020D9
:101068000048004008B5044B1868FFF754FD034BCF
:101078003D229A6008BD00BF640400200060024061
:1010880008B5044B1868FFF746FD034B4FF474622C
:101098009A6008BD6C0400200060024008B5044B4B
:1010A8001868FFF738FD034B4FF474129A6008BDB7
:1010B800740400200060024008B5044B1868FFF76C
:1010C8002AFD034B4FF074629A6008BD7C0400202F
:1010D8000060024008B5044B1868FFF71CFD034B7D
:1010E8004FF47462DA6008BD840400200060024096
:1010F80008B5044B1868FFF70EFD034B4FF47462F4
:10110800DA6008BD8C0400200060024008B5044B7A
:101118001868FFF700FD034B4FF47412DA6008BD3E
:10112800940400200060024008B5044B1868FFF7DB
:10113800F2FC034B4FF07462DA6008BD9C04002097
:101148000060024008B5044B1868FFF7E4FC034B45
:101158003D229A6008BD00BFA4040020006402403C
:1011680008B5044B1868FFF7D6FC034B4FF47462BC
:101178009A6008BDAC0400200064024008B5044B26
:101188001868FFF7C8FC034B4FF474129A6008BD47
:10119800B40400200064024008B5044B1868FFF747
:1011A800BAFC034B4FF074629A6008BDBC0400207F
:1011B8000064024008B5044B1868FFF7ACFC034B09
:1011C8003D22DA6008BD00BFC4040020006402406C
:1011D80008B5044B1868FFF79EFC034B4FF4746284
:1011E800DA6008BDCC0400200064024008B5044B56
:1011F8001868FFF790FC034B4FF47412DA6008BDCF
:10120800D40400200064024008B5044B1868FFF7B6
:1012180082FC034B4FF07462DA6008BDDC040020E6
:1012280000640240014B1868FFF775BCEC0400200D
:10123800014B1868FFF76FBCF4040020014B1868D5
:10124800FFF769BCFC040020836A1A6842F00102B7
:101258001A601A68D107FCD5036A9A6842F001023D
:101268009A609A68D207FCD59A6842F080429A60E0
:10127800704710B504682CB1236820461B6898474E
:10128800A468F8E710BD10B504460830FFF7F1FF71
:10129800D4E90421531C2361B2FBF1F301FB1323AE
:1012A80013B92046FFF7E5FF10BD00000148FFF71E
:1012B800EABF00BF24050020426903699A424FF043
:1012C800000326BF4361012018467047037BC3B162
:1012D80000230373D0E901236AB143B193608368A3
:1012E8005A600023C0E9013370470B60F8E70549ED
:1012F80093604A60F5E70349002BF6D1C1E9003352
:10130800EFE770472405002000224261FFF7DEBFA7
:10131800037B53B901230373044B5A68426002B13B
:1013280090601A68586002B9186070472405002058
:1013380010B50023054A0361C0E901334361037313
:1013480002600161FFF7E4FF10BD00BF4C340008E4
:1013580080680269D2F818311B68DB0611D5D2F80B
:1013680020315B6800219BB2C2F80011C3F1FF0174
:10137800FF2928BFFF21FF2BC2F8041101D0FFF776
:10138800C7BF7047204B1A68052161F302021A6033
:10139800A3F580631A6842F480321A601A689203CF
:1013A800FCD59A686FF307129A609A68052161F371
:1013B8008C229A609A68042161F34F329A609A6885
:1013C800022060F301029A605A6861F305025A60CC
:1013D8005A68A82161F38E125A605A68072161F38E
:1013E8001B625A605A686FF311425A605A6842F495
:1013F80080025A601A6842F080721A60034A1368C1
:101408009B01FCD5704700BF003C024000380240F9
:101418007B487C49F8B5036813F0010F7CD17A4BFF
:101428007A4C1A6812F0010F06D1DFF8F8E10922A8
:10143800C4E900E201221A60754B1A6B42F00102FE
:101448001A6322681568022666F393451560556A83
:10145800072666F307155562D5686FF39345D5607F
:101468006C4D2A6812F0010F6B4A06D1DFF8B4C13F
:101478000A26C2E900C601262E601D6B45F001054B
:101488001D6313681D68022666F315551D605D6AA5
:10149800072666F30B255D62DD686FF31555DD6081
:1014A8005E4D2B6813F0010F5D4B05D15D4F0C2687
:1014B800C3E9007601262E60554E356B45F00105CF
:1014C80035631D682F68012666F319672F60EF687A
:1014D8006FF31967EF60C1F81031534BC1F814313D
:1014E800A3F5AA33C1F8183103F5AA33B833C1F804
:1014F8001C31783BC1F820310C230025C1F8243178
:101508000723C1F80051C1F80451C1F80841C1F8D6
:101518000C2181F8283106603D4C636C43F01003C0
:101528006364D1F81831DA6842F00802DA60DA68E0
:1015380042F00402DA605A6942F080025A615A693C
:1015480042F040025A61394B93F90400FFF7D7FA89
:10155800236B43F480032363D1F81C311A680120FC
:1015680060F387121A60D1F800210A44DA60D1F8D2
:10157800182104329A601A6842F480621A601A6864
:101588006FF34E321A601A686FF3CC221A601A6829
:1015980042F010021A60264B93F90400FFF7AFFAE5
:1015A800D1F820311A686FF387121A60D1F8002138
:1015B8000A44DA60D1F8182104329A60FF225A608E
:1015C8001A6842F480621A601A686FF34E321A6021
:1015D8001A686FF3CC221A601A6842F480721A6093
:1015E800D1F820311A68042060F35B621A60D1F8E0
:1015F8001C311A6860F35B621A600248F8BD00BFCC
:10160800EC010020F0010020340300203803002002
:1016180000380240280300202C0300201C0300206F
:10162800200300200000024000640240040500205E
:10163800DC04002070B5294E294B326812F0010FE6
:101648002ED1284A116811F0010F274905D1274DDD
:101658000624C1E9005401241460254C226B42F091
:10166800010222630A681468022565F30D341460C8
:10167800146A65F31B641462D4686FF30D34D46084
:101688001C4AD881C3E900214FF6FF7200211A8154
:1016980001229A729A8119825B611983DB61326037
:1016A800134915480A6C42F002020A641B689A69D9
:1016B800062161F306129A619A6942F008029A615A
:1016C8001A6842F080021A601A6842F001021A6031
:1016D80040F60321FFF774FA014870BDD4000020DA
:1016E800D8000020F8000020FC0000200000024084
:1016F8000038024000040040E800002038B53B4DA7
:101708003B4C2B6813F0010321D13A4A22603A4A34
:10171800226202F54072626202F5A03202F5887216
:10172800C4E90603A2623548636024222146C4E95D
:101738000233C4E90433E0622263E363FFF7E1F9AB
:1017480001232F4A2F492B60204601F01CFE2E4A08
:10175800536C43F480735364236A59686FF31961B7
:101768005960996841F002019960996841F4807163
:101778009960996841F400719960606A416841F420
:1017880040314160596841F480715960116B41F4EE
:101798008001116303F14C02A36A9A601A686FF31F
:1017A80087121A601A68012161F34E321A601A68AA
:1017B80061F3CC221A601A6842F480621A601A68CF
:1017C80042F010021A601A6842F480721A601A68AD
:1017D80042F480721A601A686FF35B621A60E36AF7
:1017E80093F90400FFF78BF9014838BD8C000020FD
:1017F800900000201038000800200140A4040020B8
:1018080000000020A10E000800380240D0F8102186
:101818000023C0F80031C0F8043110B5D2E9004106
:10182800012210318A40A261D0F81C21116863F3AB
:1018380000011160D0F82021116863F30001FF2333
:1018480011605360D0F820311A6842F001021A6022
:101858001A68D207FCD5D0F81821D36843F01003D2
:10186800D36010BD2DE9F0414A4F4B4C80460E46DF
:10187800FFF7CEFD3D6815F001054BD1474B2360BE
:10188800474B2061C4E906354648474B606104F17F
:101898003801A363C4E901552573256284F82480BF
:1018A800E5842585658584F82C502586E5632464C0
:1018B800FFF727F93D4BA069636404F14401A5646F
:1018C800E464FFF71EF91622294604F1500001F0DE
:1018D80091FD2422294604F1660001F08BFD1622B1
:1018E800294604F18A0001F085FD1622294604F1F3
:1018F800A00001F07FFD01232D4A2E49C4F8C050F5
:101908002046C4E93655C4F8D050C4F8DF503B60CF
:1019180001F039FDF3B213F0E00236D0202A36D0B8
:1019280003F0C003402B0CBF022301232362236969
:10193800C6F34211D3F82421D3F81801FFF7CCFAE3
:10194800C368C6F3400262F34923C360C368C6F3A1
:10195800800262F30C33C3600369C6F3C10262F309
:101968000D330361C36816F0010614BF43F48063A6
:1019780066F38A23C360C36843F40053C3602069D5
:10198800FFF744FF0448BDE8F0810423CEE70323B2
:10199800CCE700BF040100200801002070340008D3
:1019A800DC040020040500205834000864340008D2
:1019B80000000020B90E000808B583681A6992F87B
:1019C8002811D2F81401FFF735FA10B11869FFF79A
:1019D8001DFF08BD10B50468A14207D1516001B1CF
:1019E8000A604368026003B9426010BD41B94368A8
:1019F800136003B15A604260002CF6D10260F4E72C
:101A08000B68C2E900310A6013685A60EDE700000C
:101A180030B50468164B6CB1D3F8002154F8045D56
:101A2800043A521B9D18AC421ABF012283F80421C4
:101A3800C3F800214268114441600E4AD3F80051AE
:101A4800914294BF49004FF0FF312C1D0C44B4F56E
:101A5800807F03EB0502C3F8004107D893F80441DF
:101A680024B90AB159510432026030BD0022FBE7A3
:101A78005C030020FCFFFF3F70B52E4D2E4B2A68FB
:101A880012F0010F04461FD12C48026812F0010120
:101A980008BF2B4E2B4A02BFC2E900610121016039
:101AA8002948016B41F0010101631168086840F0A1
:101AB80003000860C8686FF30100C8600021C3E92B
:101AC8000011DA6001222A60206A00221A61036983
:101AD80043F007030361E1690131E161FFF747F969
:101AE800D4E90732D16A013B63F31751D162A16887
:101AF80004F1080021B10B69002B01DC4968F9E702
:101B08000D4AFFF767FFA16904F11000FFF780FF96
:101B1800A36A1A686FF300021A602269DA60A28A5F
:101B28005A601A6842F001021A601A68D207FCD596
:101B3800014870BD680000206C0000208000002073
:101B480000000240840000200038024038B5324DC1
:101B5800324B2A6812F0010F044620D130490A6836
:101B680012F0010F08BFDFF8C4C02E4A02BF0120DF
:101B7800C2E900C008602C48016B41F00101016313
:101B88001168086840F00C000860C8686FF38300AB
:101B9800C8600021C3E90011DA6001222A60256BC0
:101BA800206A243D012D8CBF0025012507222946E6
:101BB8001D61FFF769F8E169206A0131E1612A4690
:101BC800FFF7D5F8D4E90732D16A013B63F317511F
:101BD800D162A16804F1080021B10B699D4201DBC3
:101BE8004968F9E70D4AFFF7F5FEA16904F110000D
:101BF800FFF70EFFA36A1A686FF300021A602269E2
:101C0800DA60A28A5A601A6842F001021A601A68F9
:101C1800D207FCD5014838BD440000204800002008
:101C28005C000020600000200038024000000240F4
:101C380070B5324D324B2A6812F0010F04461FD19D
:101C480030490A6812F0010F2F4A05D12F4E0220A1
:101C5800C2E90060012008602D48016B41F00101D4
:101C680001631168086840F030000860C8686FF3C5
:101C78000510C8600021C3E90011DA6001222A605A
:101C8800226B206A243A022A34BF02250025EEB2CC
:101C9800072231461D61FEF7F7FFE169206A01312D
:101CA800E1613246FFF763F8D4E90732D16A013BB4
:101CB80063F31751D162A16804F1080021B10B69DF
:101CC8009D4201DB4968F9E70D4AFFF783FEA169E8
:101CD80004F11000FFF79CFEA36A1A686FF3000274
:101CE8001A602269DA60A28A5A601A6842F0010210
:101CF8001A601A68D207FCD5014870BD2000002080
:101D080024000020380000203C0000200000024091
:101D18000038024013B50B460446D0E900016A4674
:101D280082E8030093E8030084E8030092E80300D4
:101D380083E8030002B010BDF0B5FF23074F084E3B
:101D48001D4611F8014B5C4091423B5D83EA050357
:101D5800355DF6D105704370F0BD00BF74340008DE
:101D680074350008D0F80031D0F804219A4283BFB6
:101D78005A1CC0F80021C05C00207047D0F804311C
:101D8800FE2B9FBFC154D0F804310133C0F8043191
:101D9800704738B50C46090A0546FFF7EFFFE1B270
:101DA800FFF7ECFF284638BDD0F81031D3E9002101
:101DB80001238B409361D0F81831DA686FF304126D
:101DC800DA60D0F820311A686FF300021A60D0F890
:101DD8001C311A686FF300021A60D0F80431D0F889
:101DE8000011D0F81C215B1A02339BB25360D0F863
:101DF8001C311A6842F001021A601A68D207FCD531
:101E08007047036937B501294FF0000204460D46B3
:101E1800C3F80021C3F804210ED190F824100069FA
:101E2800FFF7ACFF94F8251041F08001FFF7A6FFFB
:101E38002946FFF7A3FF07E00229006902D194F8B9
:101E48002410EDE70329FAD02369D3F80421D3F845
:101E580000111A44194401A8FFF76EFF9DF80510F8
:101E68002069FFF78BFF9DF80410FFF787FF2069B3
:101E7800FFF79AFF03B030BD70B5D0F80031D0F845
:101E8800042101339A4204460D460ED9FFF76AFF32
:101E980006462046FFF766FF4FF0000360F307038E
:101EA80066F30F232B80204670BD0023FAE738B570
:101EB80004460D4600F126010069FFF7DDFF04F135
:101EC8002A012069FFF7D8FF638DE08C1844013898
:101ED80080B2A8424FEA4303208584F82C302CBFF7
:101EE8000020012038BD13B5044600F12601006921
:101EF800FFF7C2FFE38C012B05D902212046FFF72B
:101F080080FF02B010BD0DF106012069FFF7B4FF94
:101F1800BDF8062022B1B2F57F4F01D00321EDE7CD
:101F2800E38C04F1B8001B011844816851B1A2F593
:101F38007F414A424A41234402A9D3F8C43001F8F8
:101F4800032D984723690022C3F800210822C3F80B
:101F580004212069FFF728FFD3E7000000000000F4
:101F68002DE9F04F364BADF5057D0BAE03F120079B
:101F780034463D4618685968224603C20833BB42B6
:101F88001446F7D11BAC2F4B236000222E4B236144
:101F98002E482F4B84F85920C4E901224FF4803190
:101FA800C4E91131C4E913012273A263A287226430
:101FB800636584F8582084F85A2084F85C206661A8
:101FC800FF21A3180132202A1976FAD10DF14C0A03
:101FD8000021504601F00EFA2069FEF7A7FD23699B
:101FE8001A694FF0010969F309221A611A6942F066
:101FF80080721A6127464FF000084FF6FF7BD7E939
:10200800113103EB410199420DD01A781F2A07D8E4
:102018002244587810761A780AF802900233F2E7C8
:102028001A885A45FAD16365796C994212D1C4F875
:1020380038800837B8F1000F1AD14FF00108DEE7F1
:10204800243400081C380008003C024000000C083A
:1020580000000E08BA6C01EB4202934200F0E481E2
:10206800C4F8388021465046FEF7F5FC8442E0D19A
:10207800A26B04EBC201D1E91130616D03EB40039F
:10208800994206D12AAB012199540023A363636CBA
:10209800636521465046FEF7DEFCA042074640F045
:1020A800E78162690DF1840C0DF1A40E634603CB40
:1020B8007345106051609C4602F10802F6D1002376
:1020C80084F85A3094F83C3083B9A36B73B1D4E9DF
:1020D80011324FF6FF7003EB42018B421A4640F073
:1020E800CD81521A18BF012284F83C2094F83D3063
:1020F800BBB9A36B012B14D0D4E913234FF6FF709F
:1021080002EB43039342114600F0C081B1F800C0CE
:10211800844502F10202F5D05B1A18BF012384F846
:102128003D300DF1AA0841462AA8FEF7BEFC8045BD
:1021380018BF0323226918BF84F859301369A742CE
:1021480043F00043136109D0BA4B37461868596801
:102158003A4603C20833AB421746F7D12046FFF789
:10216800D7F8B54ADFF8FC921368DFF8FCA213F041
:10217800010301BFB149C9E9001301231360B04B42
:102188001A6B42F002021A63D9F800201068012184
:1021980061F301001060D0686FF30100D060A94AB4
:1021A800106810F0010F01BFDFF8C0C211600520F0
:1021B800CAE900C01A6B42F004021A63DAF8003068
:1021C8001A684FF0010B6BF38B221A60DA686FF311
:1021D8008B22DA6071883079FFF744FB0390039B08
:1021E800039D33AC03F18808974BC4F8008005F1D0
:1021F800B801E3602046954BA360FFF78BFDD5F847
:10220800C020A368A260D5F8C420C5F8C030E36830
:10221800E2602046C5F8C430FEF735FE039D8C4BBE
:10222800266005F1C801E36020468A4BA360FFF7EA
:1022380071FDD5F8D020A368A260D5F8D420C5F8E0
:10224800D030E368E2602046C5F8D430FEF71BFEC4
:10225800039B0A22A3F86620039B3288A3F8682010
:10226800039B3279A3F86C20039B7288A3F86A2039
:10227800039AFF23A2F8A030039AA2F88CB0039A1D
:10228800A2F8A230039B039A0025A3F89A5078235A
:10229800A2F8B030039AA2F89C50039A4FF4C87081
:1022A800A2F8B230FFF7C6F904901020FFF726FA1B
:1022B8000790FFF7E1FB07AF78603868FFF746FC47
:1022C800B8603868FFF7B4FC049BF860C8213BA8E5
:1022D800C4E90273C4E9068625706570A570E570C7
:1022E8002571C4E9049AFFF723F84FF4FA7141A85D
:1022F800FFF71EF84FF47A7147A8FFF719F8564E02
:102308004FF47A714DA8FFF713F8549555955695E3
:102318003221C4F88060C4F8905059A8C4F8945089
:10232800FFF706F8E369609561956295D98AC4F864
:10233800B060C4F8C05065A8C4F8C450FEF7F8FFF0
:102348004FF07A736C956D956E95C4F8103103F162
:10235800462303F15013C4F81431404BC4F8183124
:102368004FF42023C4F8E060C4F8F050C4F81C31DE
:1023780014222946C4F8F450C4E93E55C4F8005163
:10238800C4F80451C4F80851C4F80C51A4F82051F9
:102398000DF5F97084F8225184F823B184F824519A
:1023A80001F028F82123C4F83C31386884F83A5100
:1023B80041F2EC33C4F84031FEF746FF0323C4F87A
:1023C8009030039B264ECDE90534B046A369E569F4
:1023D8001A78B4F8FA00AF7EC2F30011874238BF0A
:1023E80041F0010161F304121A7051B1EA7E1978C3
:1023F80082422CBF0022012262F3041106221970C6
:1024080062701B78E068DF070268818905D5DD0600
:1024180003D49F0601D45D063AD5002384F82231FF
:10242800136A23EA01033CE004EB080383F83C90B9
:10243800FFE500BF243400084C03002000040240DC
:102448000038024040030020C5090008DB090008E5
:10245800F1090008FD0900084C340008A861C8000B
:10246800783600085003002044030020000802408A
:10247800A36B2AAA0121D154052321E6B2F800C092
:10248800844503F102033FF428AE2AE6194643E6E1
:10249800012384F8223194F82331002BC0D0136A29
:1024A8000B431362FEF7ECFB80B1E369B4F8022139
:1024B8005B899A420AD9A269137803F0FE0343F0B4
:1024C800400313700623637000232371A569A7686E
:1024D8002B7894F822015A062A7854BF03F0010396
:1024E800002363F30002BB682A709B6858B198B256
:1024F800FDF7B8FF0FF62823D3E90023FEF71CF8F1
:10250800FEF72CFA80B2FB68A4F802011F89642246
:102518003F094346002A0DDD511003EB810C53F8A7
:102528002100B84204D9521A0CF10403013AF1E728
:102538000A46EFE79B1B9B10A4F8FA30E3699A7FE1
:1025480072B32B78C3F34003297863F341012970F0
:1025580042B3E068FEF794FB20B341A8FEF7ACFE57
:1025680001462069FEF7EEFAE369B4F812111A89F8
:10257800A4F81421501A0A44A4F81821A4F8160142
:10258800597E62788900A4F81A11062A50D8DFE823
:1025980012F0160001018901D4010803A6011003F5
:1025A8001346D1E7E068FEF76BFB22690123D2E905
:1025B800001210B193408B61D6E71032FAE794F815
:1025C8002421E068002A00F0D1809A7F12B3A5691F
:1025D8001B7F2A7842F002022A7018305BB1FEF79E
:1025E80016FBE068B4F814111030FEF7E9FA02237C
:1025F800637023711CE0C4F804316421A4F8FE3030
:10260800FEF705FBE068B4F818111030FEF7D8FAA9
:102618000123EDE7FEF734FB38B9E369E0681A7F78
:10262800002A40F09E80598A9CE02046FEF705FB70
:10263800DDF818A0059DDAF81C70DAF80CB03B89B3
:10264800A5F87230BBF81030A5F874307B8AA5F86D
:1026580078303B8AA5F876307B89A5F87C30BAF8C3
:102668000231A5F87A30BAF8FA30A5F88230BB7E84
:10267800A5F884309AF82291FB7EA5F88630B889AF
:10268800B9F1000F00F0AE82FDF7ECFE0FF69003F3
:10269800D3E90023FDF750FFFEF760F980B2A5F8F3
:1026A8007E00F889B9F1000F0BD0FDF7DBFE0FF6BD
:1026B8007003D3E90023FDF73FFFFEF74FF91FFA38
:1026C80080F9A5F880907B7EA5F86E30BBF81830AD
:1026D8007A7F9B08A5F8703095F8883062F38203FA
:1026E8003A7F62F3C30363F07F0385F88830DAF832
:1026F800183095F888101A78C2F3001262F30411A2
:1027080085F888101A78C9B2C2F3401262F34511ED
:1027180085F888101A78C9B2C2F3801262F386115C
:1027280085F888105B7895F889202969C3F34003F8
:1027380063F3410285F88920D1F82031D1F80421CA
:102748005B68D1F800119BB2521AC3F1FF039A4299
:1027580080F04A820023EB612846FEF7B7FD30BFC0
:1027680034E6198A1030FEF72BFA61E76421183035
:10277800FEF74DFAE068B4F814111030FEF720FAAD
:10278800E068FEF77DFA00283FF452AF012384F891
:1027980024314DE7E068FEF773FA78B1A378032B8C
:1027A8000CD8DFE803F002142C584FF47A73C4F8FD
:1027B800C0305FA8FEF7ACFD0123A370E068FEF708
:1027C8005FFA00287FF434AF0023637030E7D4F851
:1027D800C420D4F8C0309A42F0D35FA8FEF794FD25
:1027E800E068B4F818110023C4F80431A4F80831DB
:1027F8001030A4F8FE30FEF7E3F90223DDE7A36802
:10280800B4F806215B689B68934284BFA4F806313C
:10281800E3683BA884BF1B8AA4F80C31FEF74CFD83
:1028280068B1E068B4F81631028A9A4283BFB4F8F6
:102838001E11494209B200211030FEF7E1F9E368A0
:102848001A8AB4F816319A42B8D1E369B4F80C215F
:102858005A820323B1E73BA8FEF72EFD70B1E0686A
:10286800E36930F8102F5B8A9A4218D383BFB4F813
:102878001E11494209B20021FEF7C2F9E268E36974
:10288800128A5B8A9A4299D1A3691A78002161F366
:102898004102A17020461A70FEF7CFF98EE7B4F90D
:1028A8001E11E9E7E068B4F8FC101030FEF788F96B
:1028B800E369987F68B9A269117860F341011170E2
:1028C800E268128A1A82B4F8FE20DA812046FEF7FE
:1028D800B4F9E3691B7F002B7FF4AAAE74E7A26802
:1028E800B4F8FE10526892688A4284BF92B2A4F883
:1028F800FE2059A888BF9A81FEF7DEFC68B1E0681F
:10290800B4F81A3130F8181F8B4294BF4FF0FF33D8
:102918000123194489B2FEF77AF9E068B4F81A314C
:10292800028B9A4222BF032363702371FEF7A8F932
:1029380000287FF47DAE00235AE6DA7F002A61D0B2
:10294800E278012A3DD00CD3022A19D0A3691B785A
:1029580013F001037FF46CAE637023712370E3708E
:1029680066E61A7F52B11A8AA4F80E219A8A1B7E4B
:1029780092FBF3F3A4F82031022320E05A8AF3E70C
:1029880065A8FEF799FC78B1E369E068998AB4F81C
:102998000E31028A03EB51039A42B4BFB4F92011F5
:1029A80000211030FEF72CF9E3681A8AE369998A46
:1029B800B4F80E3103EB51039A42C7DB0123E370ED
:1029C800C4E765A8FEF778FC88B1E169E068898A00
:1029D800B4F80E31028AA3EB51039A42C3BFB4F88C
:1029E8002011494209B200211030FEF709F9E368C5
:1029F800E1691A8A898AB4F80E31A3EB51039A4225
:102A0800BADDA3E7A269537813F0010100F0C5808D
:102A18002278032A9AD8DFE802F0022E5D949F07F5
:102A2800C3F3400192D440F6B833C4F8F0306BA831
:102A3800FEF76EFCD4F8F420D4F8F03084F82311B3
:102A48009A4283D36BA8FEF75FFC94F822210123F6
:102A580084F82331E3683AB11A689B89116A0B43F9
:102A680013620123237071E719689B890A6A22EAB5
:102A780003030B62F5E7A368B4F806215B689B685B
:102A8800934284BFA4F80631E3683BA884BF1B8A3D
:102A9800A4F80C31FEF710FC80B1E068B4F81031EE
:102AA800028A6FF495752B449342DDBFB4F81E116A
:102AB800494209B200211030FEF7A2F8E268B4F8E2
:102AC8001031128A6FF49570034493427FF73EAF3A
:102AD8000223C7E7A368B4F804215B689B689342A4
:102AE80084BFA4F80431E3683BA884BF1B8AA4F818
:102AF8000A31FEF7E1FB68B1E068B4F81031028AE8
:102B080003F22B139342ACBFB4F91E11002110300D
:102B1800FEF776F8E268B4F81031128A03F22B1344
:102B28009342BFF613AFB4F80631B4F804219A42C1
:102B38008CBFB4F80A31B4F80C31A4F80831032377
:102B480090E73BA8FEF7B8FB70B1E068B4F808312D
:102B580030F8102F9A421BD383BFB4F81E11494294
:102B680009B20021FEF74CF8E368B4F808211B8A83
:102B78009A427FF4EBAEA1694A7842F002024A70A9
:102B8800E269117F39B11382A4F81031002369E793
:102B9800B4F91E11E6E75382F6E761F34103537077
:102BA800D4E6E068B4F8FC101030FEF709F8E068E5
:102BB800BCE6A3691B78D9060CD49A060AD45B062E
:102BC80008D46369D3E900120123103293408B6162
:102BD8002379FAE541A8FEF76FFB01466069FDF726
:102BE800B1FF25E548465AE5D5E907239A42FFF69D
:102BF800B6AD00272846EF61FEF768FB2869D0F8D4
:102C08000431D0F80021991A072902D8FEF7FEFDF1
:102C1800A5E510F802C095F824108C45F6D193422A
:102C280084BF03F1FF33C0F804312A6988BFC75C49
:102C3800D2F80011D2F804318B4282BF03F1FF337E
:102C4800C2F8043112F803902B69D3F80421D3F8A1
:102C580000111A44194402A898BF4FF00009FFF761
:102C68006BF89DF80830BB4204D19DF809302869FB
:102C78004B4501D02869C9E7FFF774F82869FFF7C1
:102C880071F80528074685F8250000F042811028CC
:102C980043D0032840F0418112212846FFF707F965
:102CA80020B902212846FFF7ACF858E52B69002225
:102CB800C3F80021C3F8042195F824102869FFF708
:102CC8005DF83946FFF75AF895F82C10FFF756F8D3
:102CD8006B8D28695A1E6A854BB1EB8C5A1C05EB23
:102CE8004303EA84B3F86610FFF753F8F0E7D0F827
:102CF8000421D0F800110244014402A8FFF71CF88F
:102D08009DF809102869FFF739F89DF80810FFF7B2
:102D180035F82869FFF748F821E50B212846FFF721
:102D2800C6F80028BDD02B69D3F80021D3F80411C8
:102D3800914283BF511CC3F800119B5C002385F8A6
:102D48002C30002705F12E09698D2869BBB29942FC
:102D58002CD94946FFF790F8EB8C13FA87F3EA1859
:102D68005B0092F8D810EA8D89B12B4410B2B3F801
:102D78008A100FFA81FC604500DA31B9B3F8A01067
:102D88000FFA81FC60450DDD61B103218AE72B4410
:102D9800B3F88A108A4201D20029F6D1B3F8A010FC
:102DA8008A42F1D8A3F850200137CDE75E4A0023C4
:102DB8004FF0010E40F2B74C9FB28F4280F08D80E9
:102DC800B5F826904F44BFB20A2F10D8DFE807F0B5
:102DD80006111B26343D464F58616A00059FB7F817
:102DE8005090A7F86A90069FFF69A7F802900133F0
:102DF800E2E7059FB7F85290A7F86C90069FFF6925
:102E080087F80490F3E7059FB7F85470A7EB0C090F
:102E1800D9F1000747EB09071770E8E7177847B1BA
:102E2800059FB7F85690A7F86890069FFF69A7F81E
:102E3800009082F800E0DAE7069F0197059FB7F84F
:102E48005890019FA7F8FC90D1E7069FDDF81490F1
:102E5800FF69B9F85A90A7F80890C8E7069FD7F80D
:102E68001C90059FB7F85C7089F81970BFE7069F3A
:102E7800DDF81490FF69B9F85E90A7F80A90B6E7F4
:102E8800069FD7F81C90059FB7F8607089F81A70EC
:102E9800ADE7069FD7F81C90059FB7F8627089F8D0
:102EA8001B70A4E7DDE9057A97F86490DAF81CB09E
:102EB800C9F380098BF81D9097F86490C9F3C0098D
:102EC8008BF81C9097F865B0DAF8187097F80190AD
:102ED8006BF3000987F8019089E70023C0F80031F7
:102EE800C0F8043195F824102869FEF747FF95F8D3
:102EF8002510FEF743FFE98CFEF74BFF698DFEF7BF
:102F080048FF2B69D3F80421D3F800111A44194457
:102F1800F3E62846FEF7E7FF21E40121C2E600BFF9
:102F2800655446655446B53F5803002030B50B1A22
:102F38009B10002B15DD14780578A54203D0457841
:102F4800A54201D1013030BD8578A54201D10230BA
:102F5800F9E7C578A54201D10330F4E70430013B15
:102F6800E7E70B1A022B0ED0032B07D0012B10D149
:102F7800047813789C4218BF0846E4E7047813786D
:102F88009C42E0D00130047813789C42DBD00130B9
:102F9800EEE70846D7E700002DE9F34190F85930ED
:102FA80041690446052B1BD8DFE813F006001D0015
:102FB8004A008200B400E80090F85C30C218C95C8E
:102FC800127E914240F0F6800133DBB2202B28BFFD
:102FD800002380F85C30B3FA83F35B0980F858303B
:102FE80002B0BDE8F0810069C268C2F30042002A5D
:102FF800F6D10369002BF3DAFDF798FD2369186908
:1030080062F3410018611A6942F001021A612369EA
:103018001A69012060F309221A611A6942F0807264
:103028001A6194F85C30CA5C84F85B2094F85B10F1
:10303800626D43EA01231380022384F85930CFE7F5
:103048000369DA68D107CBD5DA6842F00102DA60A1
:103058001A6942F000421A6190F85C3090F85B20DF
:1030680003441A76426D836B0232426500EBC3005B
:10307800D0E9111501EB45018A4203D094F85A3082
:10308800DBB2DAE70122E1181344022B28BF002340
:1030980081F83C20A36304EBC3035B6C63650023E6
:1030A80084F85C3084F85920052384F85A3097E76F
:1030B8000769FD68C5F30045002D91D13B69002BD8
:1030C8008EDA02AA00F13E06012300F13C0802F85C
:1030D800013D31464046FFF729FFB042CED0A0EB74
:1030E800080020643846FDF721FD236C324AD25C83
:1030F800036965F300030361036943F00203036195
:10310800036962F3C6030361036943F4803303610F
:10311800042392E70369DA68D2077FF561AFDA68BA
:1031280042F00102DA601A6942F000421A61016C49
:1031380000EBC103D3E911234FF6FF7502EB4303FC
:103148009342104618D00688AE4202F10202F7D028
:103158001B1A214418BF012304F13E0581F83C30B5
:1031680004F13C002946FDF7A0FC854214BF03206A
:10317800002084F8590033E71846E9E790F85C30F6
:103188000133DBB21F2B11D9002380F85C3004F126
:103198003E05294604F13C00FDF787FC854214BF33
:1031A8000320002084F8590000237EE780F85C3073
:1031B800002BECD0012340E77436000808B54FF423
:1031C800847200213F4800F015F93F4A002301218D
:1031D800136011713D4A2320136010713C4A24206A
:1031E800136010713B4A3320136010713A4A25204E
:1031F80013601071394A262013601071384A27204D
:1032080013601071374A342013601071364A0B204E
:1032180013601071354A0C2013601071344A0D2068
:1032280013601071334A0E2013601071324A0F2058
:1032380013601071314A102013601071304A112048
:10324800136010712F4A2F20136010712E4A3820F6
:10325800136010712D4A3920136010712C4A3A20DE
:10326800136010712B4A3B20136010712A4A3C20CE
:1032780013601071294A442013601071284A4520B0
:1032880013601071274A462013601071264AC2E95C
:103298000033C2E90233C2E90431244A116863F3F6
:1032A80000011160224951609360136843F00403E0
:1032B8001360136843F002031360136843F00103BB
:1032C800136008BD5C030020E4040020EC04002027
:1032D800F4040020FC040020040500200C05002054
:1032E800140500201C050020640400206C04002044
:1032F800740400207C040020840400208C04002036
:10330800940400209C040020A4040020AC040020A5
:10331800B4040020BC040020C4040020CC04002015
:10332800D4040020DC0400202405002010E000E084
:103338003F900200DFF834D0002103E00C4B5B58CB
:10334800435004310B480C4B42189A42F6D30B4AAF
:1033580002E0002342F8043B094B9A42F9D3FEF7F6
:1033680011F800F023F8FEF7FBFD7047000002207B
:103378002C38000800000020040000200400002071
:103388003C050020FEE70B460146184600F000B851
:1033980010B5054C13462CB10A4601460220AFF37E
:1033A800008010BD2046FCE70000000070B50D4EFF
:1033B8000D4CA41BA4100025A54209D10B4E0C4CA2
:1033C80000F020F8A41BA4100025A54205D170BD6B
:1033D80056F8253098470135EEE756F825309847D6
:1033E8000135F2E7203800082038000820380008A6
:1033F8002838000802440346934200D1704703F876
:10340800011BF9E7F8B500BFF8BC08BC9E46704739
:0C341800F8B500BFF8BC08BC9E46704729
:103424000000E00001000000204E401F00000000EA
:10343400204E204EC800C8000250412D000000005C
:103444000000000000000000BD09000800000000AA
:1034540000000000591300080000000000000000F4
:10346400C11900080000000000000000130A000851
:1034740000C1814001C0804101C0804100C1814040
:1034840001C0804100C1814000C1814001C0804130
:1034940001C0804100C1814000C1814001C0804120
:1034A40000C1814001C0804101C0804100C1814010
:1034B40001C0804100C1814000C1814001C0804100
:1034C40000C1814001C0804101C0804100C18140F0
:1034D40000C1814001C0804101C0804100C18140E0
:1034E40001C0804100C1814000C1814001C08041D0
:1034F40001C0804100C1814000C1814001C08041C0
:1035040000C1814001C0804101C0804100C18140AF
:1035140000C1814001C0804101C0804100C181409F
:1035240001C0804100C1814000C1814001C080418F
:1035340000C1814001C0804101C0804100C181407F
:1035440001C0804100C1814000C1814001C080416F
:1035540001C0804100C1814000C1814001C080415F
:1035640000C1814001C0804101C0804100C181404F
:1035740000C0C101C30302C2C60607C705C5C4040F
:10358400CC0C0DCD0FCFCE0E0ACACB0BC90908C87F
:10359400D81819D91BDBDA1A1EDEDF1FDD1D1CDC6F
:1035A40014D4D515D71716D6D21213D311D1D010DF
:1035B400F03031F133F3F23236F6F737F53534F4CF
:1035C4003CFCFD3DFF3F3EFEFA3A3BFB39F9F8383F
:1035D40028E8E929EB2B2AEAEE2E2FEF2DEDEC2C2F
:1035E400E42425E527E7E62622E2E323E12120E09F
:1035F400A06061A163A3A26266A6A767A56564A48F
:103604006CACAD6DAF6F6EAEAA6A6BAB69A9A868FE
:1036140078B8B979BB7B7ABABE7E7FBF7DBDBC7CEE
:10362400B47475B577B7B67672B2B373B17170B05E
:10363400509091519353529296565797559594544E
:103644009C5C5D9D5F9F9E5E5A9A9B5B99595898BE
:10365400884849894B8B8A4A4E8E8F4F8D4D4C8CAE
:10366400448485458747468682424383418180401E
:103674000B0A0000FE0D0000E40D0000C90D00005F
:10368400AD0D00008F0D0000770D0000590D0000F6
:10369400390D0000190D0000F70C0000DB0C0000D0
:1036A400B80C0000950C0000700C00004B0C0000DE
:1036B4002B0C0000040C0000DC0B0000B40B000019
:1036C4008A0B0000690B00003F0B0000150B000083
:1036D400E90A0000BD0A0000980A00006C0A000014
:1036E4003F0A0000110A0000E3090000BE090000BF
:1036F400900900006109000032090000020900007D
:10370400DB080000AD0800007E0800004F08000040
:1037140020080000FA070000CD070000A007000001
:10372400730700004607000022070000F6060000A9
:10373400CB060000A006000075060000530600003A
:103744002A06000002060000DA050000B2050000A7
:10375400920500006C0500004605000022050000EB
:10376400FD040000E0040000BE0400009C0400000E
:103774007B0400005A0400004004000021040000FF
:1037840003040000E5030000C8030000B1030000C7
:10379400960300007B030000610300004703000060
:1037A400330300001B03000004030000ED020000CB
:1037B400D6020000C5020000B00200009B02000017
:1037C400870200007402000065020000530200003A
:1037D40042020000300200001F0200001302000039
:1037E40003020000F4010000E5010000D50100001F
:1037F400CB010000BD010000B0010000A3010000E6
:103804009601000000000000000000001B0A0008F0
:0C3814000000000000000000A12F0008D0
:08382000AD010008C5310008EC
:04382800890100080A
:04382C000000000098
:040000050800333D7F
:00000001FF
