:020000040800F2
:1000000000000220012A0008512A0008512A000895
:10001000512A0008512A0008512A00080000000057
:10002000000000000000000000000000512A00084D
:10003000512A000800000000512A0008210D000884
:10004000F1090008610A0008F3090008F509000831
:10005000F7090008F9090008FB090008FD09000874
:10006000FF090008010A0008030A0008D90A00086D
:10007000F50A0008110B00082D0B0008490B0008B9
:10008000650B0008810B0008050A0008070A000834
:10009000090A00080B0A00080D0A00080F0A0008E8
:1000A000430A0008450A0008470A0008490A0008F0
:1000B0004B0A00084D0A00084F0A0008110A000800
:1000C000130A0008150A0008170A0008990C00080E
:1000D000A50C0008850A0008A10A0008BD0A00084E
:1000E000190A00081B0A00081D0A0008570A000820
:1000F000590A00085B0A00085D0A00089D0B000809
:100100001F0A0008210A0008510A0008B10C000863
:10011000230A0008250A0008530A0008550A0008A7
:10012000B90B0008D50B0008F10B00080D0C0008F6
:10013000290C00080000000000000000270A000849
:10014000290A00082B0A00082D0A00082F0A0008B7
:10015000450C0008610C00087D0C0008310A0008FD
:10016000330A0008350A0008370A0008390A00086F
:100170003B0A00083D0A00080000000000000000E3
:080180003F0A0008410A0008D3
:1001880010B5054C237833B9044B13B10448AFF3C9
:1001980000800123237010BD04000020000000002F
:1001A800D02A000808B5034B1BB103490348AFF335
:1001B800008008BD0000000008000020D02A0008C8
:1001C8004209012300F01F0003FA00F0014B43F835
:1001D8002200704700E100E0436901334361704742
:1001E800012A03D0022A03D0002070470160FBE7F0
:1001F8000B680360F8E7012A03D0022A03D0002025
:1002080070470160FBE70B680360F8E7C3690133D7
:10021800C361704770B4816800220B4613B19A60BD
:100228005B68FBE7D0E9042302EB43050B469542E4
:10023800144609D026889C6834449C605B68023266
:10024800002B08BF0B46F2E7C36B1BB1036C70BCF5
:100258003430184770BC704702680978137819B1B0
:1002680043F001031370704761F30003FAE70A785B
:10027800036802B101229A7770470B1A9B10002B72
:1002880010DD02780AB342780AB9013070478278E3
:100298000AB902307047C2780AB90330704704308F
:1002A800013BECE70B1A022B08D0032B03D0012BE0
:1002B80007D00846704703783BB10130037823B173
:1002C80001300378002B18BF084670470B1A9B10A3
:1002D800002B10DD02780ABB42780AB10130704762
:1002E80082780AB102307047C2780AB10330704789
:1002F8000430013BECE70B1A022B08D0032B03D088
:10030800012B07D00846704703783BB901300378C2
:1003180023B901300378002B08BF08467047FFF760
:100328004FBF036813B90160704713465A68002A23
:10033800FBD15960704710B504462CB1236820469C
:100348001B6898476468F8E710BD00000369002B34
:10035800BFBF034B436003F188334360704700BF5E
:100368002301674570B590F8593041690446052B5B
:100378001BD8DFE813F006001B0048008000D000FF
:10038800020190F85C30C218C95C127E914240F0BC
:1003980010810133DBB2202B28BF002380F85C30AA
:1003A800B3FA83F35B0980F8583070BD0069C268FE
:1003B800C2F30042002AF8D10369002BF5DAFFF7EF
:1003C800C5FF2369186962F3410018611A6942F090
:1003D80001021A6123691A69012060F309221A616E
:1003E8001A6942F080721A6194F85C30CA5C84F829
:1003F8005B2094F85B10626D43EA012313800223AB
:1004080084F85930D1E70369DA68D007CDD5DA68BE
:1004180042F00102DA601A6942F000421A6194F867
:100428005C3094F85B2023441A76A36B626D04EB6E
:10043800C300D0E91115023201EB45018A42626519
:1004480003D094F85A30DBB2DAE70122E1181344FA
:10045800022B28BF002381F83C20A36304EBC303CD
:100468005B6C6365002384F85C3084F859200523AD
:1004780084F85A3099E70069C368D90395D40369A9
:10048800002B92DA04F13C0504F13E014A1B92105C
:100498002B46002A2ADD1E7816B95E78DEB10133B4
:1004A8009942CED05B1B2364FFF750FF236C424A6E
:1004B800D25C03696FF300030361036943F002032D
:1004C8000361036962F3C6030361036943F480337C
:1004D8000361042394E79E780EB10233E0E7DE78E7
:1004E8000EB10333DCE70433013AD2E7CA1A022A11
:1004F80009D0032A03D0012A09D00B46D0E71A787D
:10050800002ACDD101331A78002AC9D101331A78CB
:10051800002A96D0C4E70369DA68D2077FF545AFA9
:10052800DA6842F00102DA601A6942F000421A61A0
:10053800016C00EBC102D2E911324FF6FF7503EBF3
:1005480042029A42184604D00688AE4203F10203DA
:10055800F7D0121A214418BF012204F13E0581F890
:100568003C2004F13C002946FFF7B0FE854214BF49
:100578000320002084F8590017E790F85C30013315
:10058800DBB21F2B11D9002380F85C3004F13E0543
:10059800294604F13C00FFF799FE854214BF032069
:1005A800002084F85900002362E780F85C30002BB3
:1005B800ECD0012324E700BF382D000870B5D0E93E
:1005C80000340122186902FA04F5284214BF1046C3
:1005D800002031B11E6935421DBF1034A2409A6116
:1005E8009D61484070BD012903D1006A00F00100F7
:1005F8007047022903D1006AC0F30010704703292D
:1006080003D1006AC0F300207047042906BF006ABE
:10061800C0F3003000207047012901D142637047C0
:10062800022901D182637047032901D1C26370474F
:10063800042908BF0264704703888B4219D040F62A
:100648000223994215D901800A4BB3FBF1F14368A3
:100658000139D8691A6849081981D1621B8B028946
:10066800817A006853434FF47A72B3FBF2F2FFF7D2
:10067800D3BF7047007A030A08B50388194489B2C2
:10068800FFF7DAFF08BD02888A4210B50B460ED084
:100698004468E2898A420AD3228901804A43206851
:1006A8004FF47A71B2FBF1F2A17AFFF7B5FF184661
:1006B80010BDC3691A7F10B504469AB1198AE0685B
:1006C800A4F810111030FFF7B7FFE369E0685B7F0B
:1006D80053B1B4F81A111830FFF7D5FF042363702B
:1006E800237110BD598AEAE764211830FFF7CBFF60
:1006F8000523F4E7817A0068FFF775BF21B903691C
:1007080062F3020303617047012903D1036962F3AD
:10071800C503F7E7022903D1036962F38813F1E7F8
:10072800032903D1036962F34B23EBE7042903D1BF
:10073800036962F30E33E5E7052903D1036962F320
:10074800D133DFE7062903D1036962F39443D9E77C
:10075800072903D1036962F35753D3E7082903D163
:10076800036962F31A63CDE7092903D1036962F3C8
:10077800DD63C7E70A2904D1C36862F30203C360D3
:1007880070470B2903D1C36862F3C503F7E70C2947
:1007980003D1C36862F38813F1E70D2903D1C36855
:1007A80062F34B23EBE70E2903D1C36862F30E33E0
:1007B800E5E70F2903D1C36862F3D133DFE71029D6
:1007C80003D1C36862F39443D9E7112903D1C368FD
:1007D80062F35753D3E71229D2D1C36862F31A637D
:1007E800CDE7012904D1436B62F3040343637047E7
:1007F800022903D1436B62F34913F7E7032903D1B5
:10080800436B62F38E23F1E7042903D1436B62F350
:10081800D333EBE7052903D1436B62F31853E5E7BC
:10082800062903D1436B62F35D63DFE7072904D12F
:10083800036B62F3040303637047082903D1036B56
:1008480062F34913F7E7092903D1036B62F38E2397
:10085800F1E70A2903D1036B62F3D333EBE70B29E2
:1008680003D1036B62F31853E5E70C2903D1036B3B
:1008780062F35D63DFE70D2904D1C36A62F3040301
:10088800C36270470E2903D1C36A62F34913F7E7BD
:100898000F2903D1C36A62F38E23F1E71029F0D13F
:1008A800C36A62F3D333EBE719B90068C0F34010A9
:1008B8007047012903D10068C0F3C020704702299E
:1008C80003D10068C0F340507047032903D1006882
:1008D800C0F3C0607047042901D14068E6E70529E4
:1008E80001D14068E8E7062901D14068EAE707290D
:1008F80001D14068ECE70020704710B583680446D2
:1009080013B1032201469847204610BD10B5044B89
:10091800044640F8343BFFF7F0FF204610BD00BF07
:10092800D42E000810B5064B044640F8C83BFFF724
:10093800E4FF04F1B800FFF7E0FF204610BD00BF58
:10094800342B00080C2A10B501D0112A15D1204BE0
:100958009A68C2F34232D2B1042A1AD0052A1AD0B0
:100968001C4B1D4C062A08BF234607291AD8DFE866
:1009780001F0141A1D202326292C0D3A032A04D825
:10098800134B9A68C2F38222E5E70023EDE7134B85
:10099800EBE7134BE9E7134BE7E74FF41652B3FBCA
:1009A800F2F3836010BD4FF46152F8E74FF49642BA
:1009B800F5E74FF4E142F2E74FF41642EFE74FF460
:1009C8006142ECE74FF49632E9E74FF4E132E6E7AB
:1009D80000380240A037A000406F4001007A030AA7
:1009E80000BD010580DE8002FEE7FEE7FEE7FEE7C8
:1009F800FEE7FEE7FEE7FEE7FEE7FEE7FEE7FEE7C7
:100A0800FEE7FEE7FEE7FEE7FEE7FEE7FEE7FEE7B6
:100A1800FEE7FEE7FEE7FEE7FEE7FEE7FEE7FEE7A6
:100A2800FEE7FEE7FEE7FEE7FEE7FEE7FEE7FEE796
:100A3800FEE7FEE7FEE7FEE7FEE7FEE7FEE7FEE786
:100A4800FEE7FEE7FEE7FEE7FEE7FEE7FEE7FEE776
:100A5800FEE7FEE7FEE7000010B5064C6269D30327
:100A680003D5054B1868FFF766FC4FF480336361C4
:100A780010BD00BF003C0140E404002008B5044B51
:100A88001868FFF758FC034B1A685B6808BD00BF7D
:100A9800040500200010014008B5044B1868FFF752
:100AA8004AFC034B1A685B6808BD00BF0C050020B0
:100AB8000044004008B5044B1868FFF73CFC034BA2
:100AC8001A685B6808BD00BF140500200048004094
:100AD80008B5044B1868FFF72EFC034B3D229A60BB
:100AE80008BD00BF640400200060024008B5044B44
:100AF8001868FFF720FC034B4FF474629A6008BD36
:100B08006C0400200060024008B5044B1868FFF729
:100B180012FC034B4FF474129A6008BD7404002051
:100B28000060024008B5044B1868FFF704FC034B4B
:100B38004FF074629A6008BD7C0400200060024097
:100B480008B5044B1868FFF7F6FB034B4FF47462C3
:100B5800DA6008BD840400200060024008B5044B38
:100B68001868FFF7E8FB034B4FF47462DA6008BDBE
:100B78008C0400200060024008B5044B1868FFF799
:100B8800DAFB034B4FF47412DA6008BD94040020BA
:100B98000060024008B5044B1868FFF7CCFB034B14
:100BA8004FF07462DA6008BD9C04002000600240C7
:100BB80008B5044B1868FFF7BEFB034B3D229A604B
:100BC80008BD00BFA40400200064024008B5044B1F
:100BD8001868FFF7B0FB034B4FF474629A6008BDC6
:100BE800AC0400200064024008B5044B1868FFF705
:100BF800A2FB034B4FF474129A6008BDB4040020A2
:100C08000064024008B5044B1868FFF794FB034BD7
:100C18004FF074629A6008BDBC0400200064024072
:100C280008B5044B1868FFF786FB034B3D22DA60D2
:100C380008BD00BFC40400200064024008B5044B8E
:100C48001868FFF778FB034B4FF47462DA6008BD4D
:100C5800CC0400200064024008B5044B1868FFF774
:100C68006AFB034B4FF47412DA6008BDD404002009
:100C78000064024008B5044B1868FFF75CFB034B9F
:100C88004FF07462DA6008BDDC04002000640240A2
:100C9800014B1868FFF74FBBEC040020014B1868A4
:100CA800FFF749BBF4040020014B1868FFF743BB6A
:100CB800FC040020836A1A6842F001021A601A686C
:100CC800D107FCD5036A9A6842F001029A609A68D3
:100CD800D207FCD59A6842F080429A60704710B5F6
:100CE80004682CB1236820461B689847A468F8E775
:100CF80010BD10B504460830FFF7F1FFD4E9042110
:100D0800531C2361B2FBF1F301FB132313B92046F3
:100D1800FFF7E5FF10BD00000148FFF7EABF00BF7D
:100D280024050020426903699A424FF0000326BF58
:100D38004361012018467047037BC3B10023037346
:100D4800D0E901236AB143B1936083685A600023F4
:100D5800C0E9013370470B60F8E7054993604A60C2
:100D6800F5E70349002BF6D1C1E90033EFE77047F7
:100D78002405002000224261FFF7DEBF037B53B940
:100D880001230373044B5A68426002B190601A68E9
:100D9800586002B9186070472405002010B5002378
:100DA800054A0361C0E901334361037302600161CD
:100DB800FFF7E4FF10BD00BF102B00088068026930
:100DC800D2F818311B68DB0611D5D2F820315B68E0
:100DD80000219BB2C2F80011C3F1FF01FF2928BF0F
:100DE800FF21FF2BC2F8041101D0FFF7C7BF7047DE
:100DF800204B1A68052161F302021A60A3F580638B
:100E08001A6842F480321A601A689203FCD59A680C
:100E18006FF307129A609A68052161F38C229A6031
:100E28009A68042161F34F329A609A68022060F34D
:100E380001029A605A6861F305025A605A68A8214B
:100E480061F38E125A605A68072161F31B625A6077
:100E58005A686FF311425A605A6842F480025A6025
:100E68001A6842F080721A60034A13689B01FCD525
:100E7800704700BF003C02400038024079487A4978
:100E8800F8B5036813F0010F78D1784B784C1A68DD
:100E980012F0010F06D1DFF8F0E10922C4E900E2FF
:100EA80001221A60734B1A6B42F001021A6322681E
:100EB8001568022666F393451560556A072666F39A
:100EC80007155562D5686FF39345D5606A4D2A6852
:100ED80012F0010F694A06D1DFF8ACC10A26C2E94F
:100EE80000C601262E601D6B45F001051D631368C1
:100EF8001D68022666F315551D605D6A072666F3B0
:100F08000B255D62DD686FF31555DD605C4D2B6860
:100F180013F0010F5B4B05D15B4F0C26C3E900763C
:100F280001262E60534E356B45F0010535631D686B
:100F38002F68012666F319672F60EF686FF319674A
:100F4800EF60C1F81031514BC1F81431A3F5AA3341
:100F5800C1F8183103F5AA33B8330025C1F81C319C
:100F6800783BC1F82031C1E940550C23C1E9424220
:100F7800C1F82431072381F8283106603D4C636CA1
:100F880043F010036364D1F81831DA6842F00802BC
:100F9800DA60DA6842F00402DA605A6942F08002E4
:100FA8005A615A6942F040025A61394B93F9040078
:100FB800FFF7B5F9236B43F480032363D1F81C31A1
:100FC8001A68012060F387121A60D1F800210A44D8
:100FD800DA60D1F8182104329A601A6842F4806203
:100FE8001A601A686FF34E321A601A686FF3CC22CF
:100FF8001A601A6842F010021A60264B93F904002E
:10100800FFF78DF9D1F820311A686FF387121A604B
:10101800D1F800210A44DA60D1F8182104329A6024
:10102800FF225A601A6842F480621A601A686FF3E5
:101038004E321A601A686FF3CC221A601A6842F4AA
:1010480080721A60D1F820311A68042060F35B625C
:101058001A60D1F81C311A6860F35B621A600248A2
:10106800F8BD00BFEC010020F0010020340300208F
:101078003803002000380240280300202C030020F9
:101088001C030020200300200000024000640240EE
:1010980004050020DC04002070B5294E294B326875
:1010A80012F0010F2ED1284A116811F0010F2749BB
:1010B80005D1274D0624C1E9005401241460254CAC
:1010C800226B42F0010222630A681468022565F364
:1010D8000D341460146A65F31B641462D4686FF3EA
:1010E8000D34D4601C4AD881C3E900214FF6FF7241
:1010F80000211A8101229A729A8119825B611983EF
:10110800DB613260134915480A6C42F002020A6436
:101118001B689A69062161F306129A619A6942F07E
:1011280008029A611A6842F080021A601A6842F04E
:1011380001021A6040F60321FFF77EFA014870BDEC
:10114800D4000020D8000020F8000020FC00002077
:10115800000002400038024000040040E80000207F
:1011680038B53B4D3B4C2B6813F0010321D13A4A6B
:1011780022603A4A226202F54072626202F5A032A7
:1011880002F58872C4E90603A26235486360242226
:101198002146C4E90233C4E90433E0622263E3630D
:1011A800FFF7BFF801232F4A2F492B60204601F093
:1011B8004CFC2E4A536C43F480735364236A596879
:1011C8006FF319615960996841F002019960996853
:1011D80041F480719960996841F400719960606A7E
:1011E800416841F440314160596841F48071596067
:1011F800116B41F48001116303F14C02A36A9A60F8
:101208001A686FF387121A601A68012161F34E3267
:101218001A601A6861F3CC221A601A6842F4806274
:101228001A601A6842F010021A601A6842F4807252
:101238001A601A6842F480721A601A686FF35B6267
:101248001A60E36A93F90400FFF769F8014838BDAA
:101258008C00002090000020D42E000800200140BF
:10126800A4040020000000201509000800380240EE
:101278000023C0E94033D0F8102110B5D2E900416D
:10128800012210318A40A261D0F81C21116863F351
:1012980000011160D0F82021116863F30001FF23D9
:1012A80011605360D0F820311A6842F001021A60C8
:1012B8001A68D207FCD5D0F81821D36843F0100378
:1012C800D36010BD2DE9F041494F4A4C80460E4687
:1012D800FFF7D4FD3D6815F001054AD1464B236060
:1012E800464B2061C4E906354548464B606104F128
:1012F8003801A363C4E901552573256284F8248065
:10130800E584A56284F82C502586E5632464FFF7FC
:1013180008F83D4BA069636404F14401A564E464E2
:10132800FEF7FFFF1622294604F1500001F0C4FB26
:101338002422294604F1660001F0BEFB1622294644
:1013480004F18A0001F0B8FB1622294604F1A00036
:1013580001F0B2FB01232D4A2D49C4F8C0502046A4
:10136800C4E93655C4F8D050C4F8DF503B6001F0EA
:101378006CFBF3B213F0E00236D0202A36D003F02B
:10138800C003402B0CBF0223012323622369C6F349
:101398004211D3F82421D3F81801FFF7D3FAC36810
:1013A800C6F3400262F34923C360C368C6F38002F0
:1013B80062F30C33C3600369C6F3C10262F30D33F1
:1013C8000361C36816F0010614BF43F4806366F333
:1013D8008A23C360C36843F40053C3602069FFF7DE
:1013E80047FF0448BDE8F0810423CEE70323CCE798
:1013F8000401002008010020342B0008DC04002030
:10140800040500201C2B0008282B000800000020E1
:101418002D09000808B583681A6992F82811D2F8CE
:101428001401FFF741FA10B11869FFF721FF08BD51
:1014380010B50468A14207D1516001B10A60436840
:10144800026003B9426010BD41B94368136003B13B
:101458005A604260002CF6D10260F4E70B68C2E9DA
:1014680000310A6013685A60EDE7000030B504687F
:10147800164B6CB1D3F8002154F8045D043A521BA2
:101488009D18AC421ABF012283F80421C3F8002139
:101498004268114441600E4AD3F80041914294BF1A
:1014A80049004FF0FF31221D0A44B2F5807FC3F88E
:1014B800002108D893F804212AB91A1901D0195122
:1014C8000432026030BD0022FBE700BF5C0300204D
:1014D800FCFFFF3F70B52E4D2E4B2A6812F0010F0E
:1014E80004461FD12C48026812F0010108BF2B4E98
:1014F8002B4A02BFC2E90061012101602948016B42
:1015080041F0010101631168086840F003000860B8
:10151800C8686FF30100C8600021C3E90011DA60F0
:1015280001222A60206A00221A61036943F0070336
:101538000361E1690131E161FFF753F9D4E9073249
:10154800D16A013B63F31751D162A16804F1080025
:1015580021B10B69002B01DC4968F9E70D4AFFF757
:1015680067FFA16904F11000FFF780FFA36A1A68FA
:101578006FF300021A602269DA60A28A5A601A6858
:1015880042F001021A601A68D207FCD5014870BD02
:10159800680000206C00002080000020000002404D
:1015A800840000200038024038B5324D324B2A689A
:1015B80012F0010F044620D130490A6812F0010FD9
:1015C80008BFDFF8C4C02E4A02BF0120C2E900C02C
:1015D80008602C48016B41F001010163116808683B
:1015E80040F00C000860C8686FF38300C8600021F1
:1015F800C3E90011DA6001222A60256B206A243DC4
:10160800012D8CBF00250125072229461D61FFF702
:1016180075F8E169206A0131E1612A46FFF7E1F8CE
:10162800D4E90732D16A013B63F31751D162A1684B
:1016380004F1080021B10B699D4201DB4968F9E713
:101648000D4AFFF7F5FEA16904F11000FFF70EFF40
:10165800A36A1A686FF300021A602269DA60A28A24
:101668005A601A6842F001021A601A68D207FCD55B
:10167800014838BD44000020480000205C000020DC
:1016880060000020003802400000024070B5324D72
:10169800324B2A6812F0010F04461FD130490A68FC
:1016A80012F0010F2F4A05D12F4E0220C2E9006027
:1016B800012008602D48016B41F0010101631168A8
:1016C800086840F030000860C8686FF30510C8600B
:1016D8000021C3E90011DA6001222A60226B206A26
:1016E800243A012A8CBF00250225EEB20722314692
:1016F8001D61FFF703F8E169206A0131E1613246B3
:10170800FFF76FF8D4E90732D16A013B63F3175149
:10171800D162A16804F1080021B10B699D4201DB87
:101728004968F9E70D4AFFF783FEA16904F1100043
:10173800FFF79CFEA36A1A686FF300021A60226919
:10174800DA60A28A5A601A6842F001021A601A68BE
:10175800D207FCD5014870BD2000002024000020DD
:10176800380000203C000020000002400038024001
:1017780013B50B460246D0E900016C4684E8030025
:1017880093E8030082E8030094E8030083E8030079
:101798009868916890609960D868D168D060D9607D
:1017A80002B010BDF0B5FF23074F084E1D4611F8D3
:1017B800014B5C4091423B5D83EA0503355DF6D100
:1017C80005704370F0BD00BF382B0008382C0008A6
:1017D800D0E940329A4283BF5A1CC0F80021C05C4D
:1017E80000207047D0F80431FE2B9FBFC154D0F8B9
:1017F80004310133C0F80431704738B50C46090A82
:101808000546FFF7EFFFE1B2FFF7ECFF284638BDCA
:10181800D0F81031D3E9002101238B409361D0F82F
:101828001831DA686FF30412DA60D0F820311A68D8
:101838006FF300021A60D0F81C311A686FF30002C7
:101848001A60D0E940135B1AD0F81C2102339BB20E
:101858005360D0F81C311A6842F001021A601A6805
:10186800D207FCD57047036937B501294FF000024C
:1018780004460D46C3E940220ED190F824100069B1
:10188800FFF7B0FF94F8251041F08001FFF7AAFF99
:101898002946FFF7A7FF07E00229006902D194F85B
:1018A8002410EDE70329FAD02369D3E9401201A8EF
:1018B80019441A44FFF776FF9DF805102069FFF7D1
:1018C80091FF9DF80410FFF78DFF2069FFF7A0FF37
:1018D80003B030BD70B5D0F80031D0F80421013321
:1018E8009A4204460D460ED9FFF772FF0646204677
:1018F800FFF76EFF4FF0000360F3070366F30F2353
:101908002B80204670BD0023FAE738B504460D4603
:1019180000F126010069FFF7DDFF04F12A012069C3
:10192800FFF7D8FF638DE08C1844013880B2A842D5
:101938004FEA4303208584F82C302CBF0020012077
:1019480038BD13B5044600F126010069FFF7C2FF50
:10195800E38C012B05D902212046FFF784FF02B052
:1019680010BD0DF106012069FFF7B4FFBDF8062090
:1019780022B1B2F57F4F01D00321EDE7E38C04F1EA
:10198800B8001B011844816869B1A2F57F4CDCF1ED
:101998000002234442EB0C028DF80520D3F8C43032
:1019A8000DF105019847236900210822C3E9401277
:1019B8002069FFF72DFFD2E72DE9F04F394BADF540
:1019C800037D09AE03F1200534462F46186859688F
:1019D800224603C20833AB421446F7D119AC324A47
:1019E800324822604FF48031314A22610023314A63
:1019F80084F85930C4E91301C4E901332373A3639C
:101A0800A387236484F8583084F85A3084F85C300B
:101A18001FABC4E91121626566614FF0200A99463F
:101A2800FF22BAF1010A03F8012BFAD10DF1440B98
:101A380020225146584601F03FF82069FEF786FCFF
:101A480023691A694FF0010868F309221A611A69B3
:101A580042F080721A6123464FF6FF72D3E91150A3
:101A680005EB4000A8420FD029781F2909D8214446
:101A780095F801C081F818C029780BF80180023563
:101A8800F0E729889142FAD16565596CA94213D1CA
:101A9800C4F838A00833BAF1000F1FD14FF0010A7B
:101AA800DCE700BFE82A0008E02E000800000C0868
:101AB800003C024000000E08986C01EB40018D428A
:101AC80000F0B381C4F838A0214658460193FEF7C8
:101AD800D4FB8442019B4FF6FF72DBD1A26B04EB6F
:101AE800C201D1E9113003EB40039D4206D128AB76
:101AF800012199540023A363636C6365214658460A
:101B0800FEF7BBFBA042054640F09481D4F814C010
:101B18004A460DF19C0E134603CB7345CCF80000E2
:101B2800CCF804101A460CF1080CF4D1002384F800
:101B38005A3094F83C308BB9A36B7BB1D4E91123AC
:101B48004FF6FF7002EB43018A42134640F078815A
:101B58000B465B1A18BF012384F83C3094F83D30DB
:101B6800B3B9A36B012B13D0D4E913324FF6FF702E
:101B780003EB42029A42194605D0B1F800C08445E9
:101B880003F10203F6D0521A18BF012284F83D204F
:101B98000DF1A208414628A8FEF798FB804518BF1A
:101BA8000323226918BF84F859301369A54243F00A
:101BB8000043136109D0A64B3546186859682A4670
:101BC80003C20833BB421546F7D12046FFF7D6F8C3
:101BD800A04ADFF8A8821368DFF8A49213F0010383
:101BE80001BF9D49C8E90013012313609B4B1A6B81
:101BF80042F002021A63D8F800201068012161F34C
:101C080001001060D0686FF30100D060944A10683A
:101C180010F0010F01BFDFF86CA211600520C9E9BF
:101C280000A01A6B42F004021A63D9F800301A684F
:101C3800012464F38B221A60DA686FF38B22DA606E
:101C480071883079FFF73EFB0390039F0399854B1A
:101C58003493B831844B3393883731A83197FFF7E1
:101C680087FD31A8FEF749FE0399804B3493C831AC
:101C78007F4B339331A83196FFF77AFD31A8FEF7F1
:101C88003CFE039B0A22A3F86620039B3288A3F834
:101C98006820039B3279A3F86C20039B7288A3F811
:101CA8006A20039AFF23A2F8A030039AA2F88C4076
:101CB800039AA2F8A230039B039A0024A3F89A403F
:101CC8007823A2F8B030039AA2F89C40039A4FF404
:101CD800C870A2F8B230FFF7DFF904901020FFF7C0
:101CE8003FFA0590FFF7F6FB05AD68602868FFF737
:101CF8005BFCA8602868FFF7C9FC049BE860C82162
:101D080039A8CDE9335331948DF8C840CDE93776F9
:101D1800CDE93589FFF742F84FF4FA713FA8FFF78C
:101D28003DF84FF47A7145A8FFF738F84FF47A7107
:101D38004BA8FFF733F84F4E5594322157A8CDE9F9
:101D48005244549456945196FFF728F8389B61945E
:101D5800D98A609463A8CDE95E4462945D96FFF7E2
:101D68001DF84FF07A73759303F14623DFF818C115
:101D78006D9403F1501376934FF42023CDE977C384
:101D880021464FF0807314220DF5F570CDE96A44B1
:101D98006C946E94CDE96F44CDE97144CDE97344F8
:101DA80079938DF8E841699600F086FE41F2EC33AC
:101DB8004FF0210E28688DF8FE41CDE980E3FEF74B
:101DC80079FF03235593039C2B4D3799389E0A7846
:101DD800BDF8BE01B77EC2F30013874238BF43F097
:101DE8000103DBB263F304120A705BB1F37E834232
:101DF8002CBF00230123D2B263F3041206230A7016
:101E08008DF8C530349A136890890A78D70705D5B4
:101E1800D60603D4910601D4520637D500228DF890
:101E2800E6211A6A22EA000239E004EB0A0181F885
:101E38003C802FE6A36B28AA0121D154052376E61E
:101E4800B3F800C0844502F102023FF47DAE80E69B
:101E5800E82A00084C030020000402400038024031
:101E68004003002061020008E90100087702000829
:101E7800FF010008102B0008580300205003002021
:101E88004403002000080240A861C80001228DF820
:101E9800E6219DF8E721002AC3D01A6A02431A6294
:101EA8003498FEF727FC90B1389BBDF8C6215B89B2
:101EB8009A420CD9379A137823F0410343F0400330
:101EC800137006238DF8C53000238DF8C830379974
:101ED8000B780A785F0654BF03F00103002363F30D
:101EE80000020A70339A936898689DF8E6310BB13E
:101EF800C0F34E03ADF8C631D3681E89AB4B360923
:101F080064209C46421003EB820E53F82270B742BD
:101F180003D9821A0EF10403013A002A01DD1046A2
:101F2800F0E7A3EB0C039B10ADF8BE31389B9A7F0A
:101F38007AB30B78C3F34003087863F34100087061
:101F48004AB33498FEF7D6FB28B33FA8FEF7EAFE5B
:101F580001463598FEF732FB389BBDF8D6111A8931
:101F6800ADF8D821501A0A44ADF8DC21ADF8DA01F1
:101F7800597E9DF8C5208900ADF8DE11062A50D893
:101F8800DFE812F01600DF006A01B701F3028701EB
:101F9800FB021346D0E73498FEF7ACFB359A0123D1
:101FA800D2E9001210B193408B61D5E71032FAE7FD
:101FB8009DF8E8213498002A00F0AF809A7F1AB380
:101FC800379E1B7F327842F00202327018306BB1B4
:101FD800FEF759FB3498BDF8D8111030FEF72CFBEA
:101FE80002238DF8C5308DF8C8301AE06421ADF8A9
:101FF800C2317293FEF747FB3498BDF8DC111030FC
:10200800FEF71AFB0123ECE7FEF774FB30B9389BA7
:1020180034981A7F002A7BD1598A7AE031A8FEF7D2
:1020280048FB389B34981A89A4F87220028AA4F8CD
:1020380074205A8AA4F878201A8AA4F876205A8933
:10204800A4F87C20BDF8C621A4F87A20BDF8BE21EA
:10205800A4F882209A7EA4F88420DA7EA4F8862048
:102068009DF8E6219989002A00F0A1824908A4F880
:102078007E10D98902B14A08A4F880205A7EA4F8B3
:102088006E20028B597F1B7F9208A4F8702094F869
:10209800882061F3820263F3C30262F07F02379BF8
:1020A80084F888201A7894F88810C2F3001262F332
:1020B800041184F888101A78C9B2C2F3401262F386
:1020C800451184F888101A78C9B2C2F3801262F3F5
:1020D800861184F888105B7894F889202169C3F305
:1020E800400363F3410284F88920D1F82031D1E913
:1020F80040125B689BB2521AC3F1FF039A4280F008
:1021080058820023E3612046FEF716FE30BF5CE6E6
:10211800198A1030FEF790FA83E764211830FEF729
:10212800B2FA3498BDF8D8111030FEF785FA349811
:10213800FEF7E0FA00283FF474AF01238DF8E83188
:102148006FE73498FEF7D6FA80B19DF8C630032BB6
:102158000CD8DFE803F002152D594FF47A735DA807
:102168006193FEF70BFE01238DF8C6303498FEF715
:10217800C1FA00287FF455AF00238DF8C53050E729
:10218800629A619B9A42F1D35DA8FEF7F3FD3498F9
:10219800BDF8DC1100231030ADF8C2317293ADF8F0
:1021A800CC31FEF749FA0223DEE700BF3C2D0008D8
:1021B800339BBDF8CA215B689B68934284BFADF826
:1021C800CA31349B39A884BF1B8AADF8D031FEF7D9
:1021D800A9FD68B13498BDF8DA31028A9A4283BF02
:1021E800BDF8E211494209B200211030FEF744FA65
:1021F800349B1A8ABDF8DA319A42B7D1389BBDF8B8
:10220800D0215A820323AFE739A8FEF78BFD70B1BE
:102218003498389B30F8102F5B8A9A4219D383BFC1
:10222800BDF8E211494209B20021FEF725FA349AB5
:10223800389B128A5B8A9A4298D1379B1A78002178
:1022480061F341028DF8C61031A81A70FEF731FA11
:102258008CE7BDF9E211E8E73498BDF8C0111030F9
:10226800FEF7EAF9389B987F68B9379A117860F3D6
:1022780041011170349A128A1A82BDF8C221DA819A
:1022880031A8FEF716FA389B1B7F002B7FF4C9AEE6
:1022980072E7339ABDF8C211526892688A4284BFC5
:1022A80092B2ADF8C22157A888BF9A81FEF73AFDCD
:1022B80068B13498BDF8DE3130F8181F8B428CBFF6
:1022C80001234FF0FF33194489B2FEF7DCF9349843
:1022D800BDF8DE31028B9A4222BF03238DF8C53048
:1022E8008DF8C830FEF706FA00287FF49AAE00236E
:1022F80077E6DA7F002A67D09DF8C720012A42D006
:1023080082B1022A1DD0379B1B78C3F30003DAB2CF
:10231800002A7FF486AE8DF8C830ADF8C4208DF859
:10232800C7307EE61A7F52B11A8AADF8D2219A8A4E
:102338001B7EB2FBF3F3ADF8E431022320E05A8AA6
:10234800F3E763A8FEF7EEFC78B1389B3498998AD6
:10235800BDF8D231028A03EB51039A42B4BFBDF9EA
:10236800E41100211030FEF787F9349B1A8A389B54
:10237800998ABDF8D23103EB51039A42C3DB01239A
:102388008DF8C730BFE763A8FEF7CCFC88B1389951
:102398003498898ABDF8D231028AA3EB51039A4254
:1023A800C3BFBDF8E411494209B200211030FEF75D
:1023B80063F9349B38991A8A898ABDF8D231A3EB1C
:1023C80051039A429FDCB8E7379A537813F001011A
:1023D80000F0C7809DF8C420032A94D8DFE802F0F3
:1023E800022E5D94C3F3400111F0FF0F8BD140F62C
:1023F800B83369A86D93FEF7C1FC6E9A6D9B8DF892
:10240800E7119A42FFF47FAF69A8FEF7B3FC9DF885
:10241800E62101238DF8E731349B42B11A689B8984
:10242800116A0B43136201238DF8C4306BE71968F6
:102438009B890A6A22EA03030B62F4E7339BBDF81F
:10244800CA215B689B68934284BFADF8CA31349B4C
:1024580039A884BF1B8AADF8D031FEF763FC80B180
:102468003498BDF8D431028A6FF495763344934298
:10247800DDBFBDF8E211494209B200211030FEF774
:10248800FBF8349ABDF8D431128A6FF4957003447E
:1024980093427FF738AF0223C6E7339BBDF8C821C4
:1024A8005B689B68934284BFADF8C831349B39A8F8
:1024B80084BF1B8AADF8CE31FEF734FC68B134987E
:1024C800BDF8D431028A03F22B139342ACBFBDF995
:1024D800E21100211030FEF7CFF8349ABDF8D4315C
:1024E800128A03F22B139342BFF60DAFBDF8CA311F
:1024F800BDF8C8219A428CBFBDF8CE31BDF8D031A5
:10250800ADF8CC3103238FE739A8FEF70BFC70B187
:102518003498BDF8CC3130F8102F9A421CD383BFC1
:10252800BDF8E211494209B20021FEF7A5F8349A34
:10253800BDF8CC31128A9A427FF4E5AE37994A78D1
:1025480042F002024A70389A117F41B11382ADF805
:10255800D4310023729367E7BDF9E211E5E75382AE
:10256800F5E761F341035370CDE63498BDF8C01127
:102578001030FEF761F83498B4E6379B1B78D9061B
:102588000DD49A060BD45B0609D4369BD3E9001206
:102598000123103293408B619DF8C830EDE53FA8C8
:1025A800FEF7C0FB01463698FEF708F839E51146F4
:1025B8005DE5D4E907239A42FFF6A8AD0026204638
:1025C800E661FEF7B9FB2069D0E94023991A07298B
:1025D80002D8FEF74DFE99E5875C94F824108F42E7
:1025E800F7D1934284BF03F1FF33C0F80431226965
:1025F80088BFC65CD2E940138B4282BF03F1FF3328
:10260800C2F80431D75C2369D3E9401202A81A44FE
:10261800194498BF0027FFF7C5F89DF80830B34262
:1026280004D19DF809302069BB4201D02069D0E768
:10263800FFF7CEF82069FFF7CBF80528064684F89F
:10264800250000F0178110283FD0032840F016819C
:1026580012212046FFF759F920B902212046FFF739
:1026680002F953E523690022C3E9402294F82410B3
:102678002069FFF7B7F83146FFF7B4F894F82C1043
:10268800FFF7B0F8638D20695A1E62854BB1E38C61
:102698005A1C04EB4303E284B3F86610FFF7ADF865
:1026A800F0E7D0E940120244014402A8FFF77AF8A3
:1026B8009DF809102069FFF795F89DF80810FFF7B5
:1026C80091F82069FFF7A4F820E50B212046FFF7D1
:1026D8001CF90028C1D02369D3E94021914283BF66
:1026E800511CC3F800119B5C002384F82C30002691
:1026F80004F12E07618D2069B3B299422CD939466D
:10270800FFF7E8F8E38C13FA86F3E2185B0092F817
:10271800D810E28D89B1234410B2B3F88A100FFAA9
:1027280081FC604500DA31B9B3F8A0100FFA81FCDA
:1027380060450DDD61B1032190E72344B3F88A10A9
:102748008A4201D20029F6D1B3F8A0108A42F1D802
:10275800A3F850200136CDE70022012640F2B74702
:1027680093B299426ED9B4F826C063449BB20A2B3F
:102778000ED8DFE803F0060F17212C31373D434907
:102788004F00389BB4F850C0A4F86AC0A3F802C040
:102798000132E5E7389BB4F852C0A4F86CC083F85E
:1027A80004C0F5E7B4F85430A3EB070CDCF10003E0
:1027B80043EB0C032B70EBE72B7833B1389BB4F861
:1027C80056C0A4F868C0A3F800C02E70E0E7B4F8BB
:1027D8005830ADF8C031DBE7389BB4F85AC0A3F8DD
:1027E80008C0D5E7389BB4F85CC083F819C0CFE7B8
:1027F800389BB4F85EC0A3F80AC0C9E7389BB4F8A0
:1028080060C083F81AC0C3E7389BB4F862C083F885
:102818001BC0BDE794F86430DDF8E0C094F865E0CB
:10282800C3F380038CF81D3094F86430C3F3C003FD
:102838008CF81C30379B93F801C06EF3000C83F8BA
:1028480001C0A5E70023C0E9403394F824102069AB
:10285800FEF7C8FF94F82510FEF7C4FFE18CFEF7D9
:10286800CCFF618DFEF7C9FF2369D3E940121A44F2
:1028780019441AE72046FFF764F847E40121EDE61A
:1028880008B54FF4847200213F4800F015F93F4A1B
:1028980000230121136011713D4A23201360107138
:1028A8003C4A2420136010713B4A33201360107196
:1028B8003A4A252013601071394A26201360107196
:1028C800384A272013601071374A3420136010717A
:1028D800364A0B2013601071354A0C2013601071B2
:1028E800344A0D2013601071334A0E2013601071A2
:1028F800324A0F2013601071314A10201360107192
:10290800304A1120136010712F4A2F201360107164
:102918002E4A3820136010712D4A39201360107127
:102928002C4A3A20136010712B4A3B201360107117
:102938002A4A3C2013601071294A44201360107100
:10294800284A452013601071274A462013601071E9
:10295800264AC2E90033C2E90233C2E90431244AF3
:10296800116863F300011160224951609360136894
:1029780043F004031360136843F002031360136801
:1029880043F00103136008BD5C030020E404002049
:10299800EC040020F4040020FC04002004050020BE
:1029A8000C050020140500201C05002064040020EC
:1029B8006C040020740400207C040020840400209F
:1029C8008C040020940400209C040020A40400200F
:1029D800AC040020B4040020BC040020C40400207F
:1029E800CC040020D4040020DC04002024050020AE
:1029F80010E000E03F900200DFF834D0002103E04F
:102A08000C4B5B58435004310B480C4B42189A420C
:102A1800F6D30B4A02E0002342F8043B094B9A42E2
:102A2800F9D3FEF7E5F900F023F8FEF7C5FF704784
:102A380000000220F02E0008000000200400002002
:102A4800040000203C050020FEE70B46014618461E
:102A580000F000B810B5054C13462CB10A460146E3
:102A68000220AFF3008010BD2046FCE70000000004
:102A780070B50D4D0D4C641BA4100026A64209D15B
:102A88000B4D0C4C00F020F8641BA4100026A64245
:102A980005D170BD55F8043B98470136EEE755F867
:102AA800043B98470136F2E7E42E0008E42E0008BC
:102AB800E42E0008EC2E000802440346934200D19D
:102AC800704703F8011BF9E7F8B500BFF8BC08BC6C
:102AD8009E467047F8B500BFF8BC08BC9E467047D4
:102AE8000000E00001000000204E401F0000000030
:102AF800204E204EC800C8000250412D00000000A2
:102B08000000000000000000E101000800000000D3
:102B180000000000C50D00080000000000000000D3
:102B28001D14000800000000000000001502000845
:102B380000C1814001C0804101C0804100C1814085
:102B480001C0804100C1814000C1814001C0804175
:102B580001C0804100C1814000C1814001C0804165
:102B680000C1814001C0804101C0804100C1814055
:102B780001C0804100C1814000C1814001C0804145
:102B880000C1814001C0804101C0804100C1814035
:102B980000C1814001C0804101C0804100C1814025
:102BA80001C0804100C1814000C1814001C0804115
:102BB80001C0804100C1814000C1814001C0804105
:102BC80000C1814001C0804101C0804100C18140F5
:102BD80000C1814001C0804101C0804100C18140E5
:102BE80001C0804100C1814000C1814001C08041D5
:102BF80000C1814001C0804101C0804100C18140C5
:102C080001C0804100C1814000C1814001C08041B4
:102C180001C0804100C1814000C1814001C08041A4
:102C280000C1814001C0804101C0804100C1814094
:102C380000C0C101C30302C2C60607C705C5C40454
:102C4800CC0C0DCD0FCFCE0E0ACACB0BC90908C8C4
:102C5800D81819D91BDBDA1A1EDEDF1FDD1D1CDCB4
:102C680014D4D515D71716D6D21213D311D1D01024
:102C7800F03031F133F3F23236F6F737F53534F414
:102C88003CFCFD3DFF3F3EFEFA3A3BFB39F9F83884
:102C980028E8E929EB2B2AEAEE2E2FEF2DEDEC2C74
:102CA800E42425E527E7E62622E2E323E12120E0E4
:102CB800A06061A163A3A26266A6A767A56564A4D4
:102CC8006CACAD6DAF6F6EAEAA6A6BAB69A9A86844
:102CD80078B8B979BB7B7ABABE7E7FBF7DBDBC7C34
:102CE800B47475B577B7B67672B2B373B17170B0A4
:102CF8005090915193535292965657975595945494
:102D08009C5C5D9D5F9F9E5E5A9A9B5B9959589803
:102D1800884849894B8B8A4A4E8E8F4F8D4D4C8CF3
:102D28004484854587474686824243834181804063
:102D38000B0A0000FE0D0000E40D0000C90D0000A4
:102D4800AD0D00008F0D0000770D0000590D00003B
:102D5800390D0000190D0000F70C0000DB0C000015
:102D6800B80C0000950C0000700C00004B0C000023
:102D78002B0C0000040C0000DC0B0000B40B00005E
:102D88008A0B0000690B00003F0B0000150B0000C8
:102D9800E90A0000BD0A0000980A00006C0A000059
:102DA8003F0A0000110A0000E3090000BE09000004
:102DB80090090000610900003209000002090000C2
:102DC800DB080000AD0800007E0800004F08000086
:102DD80020080000FA070000CD070000A007000047
:102DE800730700004607000022070000F6060000EF
:102DF800CB060000A0060000750600005306000080
:102E08002A06000002060000DA050000B2050000EC
:102E1800920500006C050000460500002205000030
:102E2800FD040000E0040000BE0400009C04000053
:102E38007B0400005A040000400400002104000044
:102E480003040000E5030000C8030000B10300000C
:102E5800960300007B0300006103000047030000A5
:102E6800330300001B03000004030000ED02000010
:102E7800D6020000C5020000B00200009B0200005C
:102E8800870200007402000065020000530200007F
:102E980042020000300200001F020000130200007E
:102EA80003020000F4010000E5010000D501000064
:102EB800CB010000BD010000B0010000A30100002B
:102EC8009601000000000000000000001D0200083C
:0C2ED80000000000000000006D03000876
:082EE400AD0100088928000877
:042EEC008901000850
:042EF00000000000DE
:0400000508002A01C4
:00000001FF
