:020000040800F2
:1000000000000220F934000849350008493500088D
:10001000493500084935000849350008000000004E
:10002000000000000000000000000000493500084A
:10003000493500080000000049350008B9120008E1
:10004000890F0008F90F00088B0F00088D0F0008BA
:100050008F0F0008910F0008930F0008950F0008FC
:10006000970F0008990F00089B0F000871100008F7
:100070008D100008A9100008C5100008E110000844
:10008000FD100008191100089D0F00089F0F0008BF
:10009000A10F0008A30F0008A50F0008A70F000874
:1000A000DB0F0008DD0F0008DF0F0008E10F00087C
:1000B000E30F0008E50F0008E70F0008A90F00088C
:1000C000AB0F0008AD0F0008AF0F00083112000899
:1000D0003D1200081D1000083910000855100008D6
:1000E000B10F0008B30F0008B50F0008EF0F0008AC
:1000F000F10F0008F30F0008F50F00083511000894
:10010000B70F0008B90F0008E90F000849120008EE
:10011000BB0F0008BD0F0008EB0F0008ED0F000833
:10012000511100086D11000889110008A51100087F
:10013000C11100080000000000000000BF0F00080F
:10014000C10F0008C30F0008C50F0008C70F000843
:10015000DD110008F911000815120008C90F000888
:10016000CB0F0008CD0F0008CF0F0008D10F0008FB
:10017000D30F0008D50F00080000000000000000A9
:08018000D70F0008D90F000899
:1001880010B5054C237833B9044B13B10448AFF3C9
:1001980000800123237010BD04000020000000002F
:1001A800C835000808B5034B1BB103490348AFF332
:1001B800008008BD0000000008000020C8350008C5
:1001C80081F0004102E000BF83F0004330B54FEA00
:1001D80041044FEA430594EA050F08BF90EA020F6D
:1001E8001FBF54EA000C55EA020C7FEA645C7FEA00
:1001F800655C00F0E2804FEA5454D4EB5555B8BF23
:100208006D420CDD2C4480EA020281EA030382EA93
:10021800000083EA010180EA020281EA0303362D25
:1002280088BF30BD11F0004F4FEA01314FF4801CF8
:100238004CEA113102D0404261EB410113F0004F0A
:100248004FEA03334CEA133302D0524263EB4303C1
:1002580094EA050F00F0A780A4F10104D5F1200E5F
:100268000DDB02FA0EFC22FA05F2801841F10001BA
:1002780003FA0EF2801843FA05F359410EE0A5F18E
:1002880020050EF1200E012A03FA0EFC28BF4CF0BF
:10029800020C43FA05F3C01851EBE37101F0004575
:1002A80007D54FF0000EDCF1000C7EEB00006EEB82
:1002B8000101B1F5801F1BD3B1F5001F0CD349080C
:1002C8005FEA30004FEA3C0C04F101044FEA445263
:1002D80012F5800F80F09A80BCF1004F08BF5FEAEA
:1002E800500C50F1000041EB045141EA050130BDCA
:1002F8005FEA4C0C404141EB010111F4801FA4F16D
:100308000104E9D191F0000F04BF01460020B1FAC1
:1003180081F308BF2033A3F10B03B3F120020CDAF9
:100328000C3208DD02F1140CC2F10C0201FA0CF0D7
:1003380021FA02F10CE002F11402D8BFC2F1200C3C
:1003480001FA02F120FA0CFCDCBF41EA0C019040F2
:10035800E41AA2BF01EB0451294330BD6FEA04043B
:100368001F3C1CDA0C340EDC04F11404C4F1200226
:1003780020FA04F001FA02F340EA030021FA04F338
:1003880045EA030130BDC4F10C04C4F1200220FA8F
:1003980002F001FA04F340EA0300294630BD21FACD
:1003A80004F0294630BD94F0000F83F4801306BF93
:1003B80081F480110134013D4EE77FEA645C18BF87
:1003C8007FEA655C29D094EA050F08BF90EA020F1E
:1003D80005D054EA000C04BF1946104630BD91EA16
:1003E800030F1EBF0021002030BD5FEA545C05D119
:1003F8004000494128BF41F0004130BD14F5800458
:100408003CBF01F5801130BD01F0004545F0FE41CB
:1004180041F470014FF0000030BD7FEA645C1ABF00
:10042800194610467FEA655C1CBF0B46024650EA37
:10043800013406BF52EA033591EA030F41F4002163
:1004480030BD00BF90F0000F04BF0021704730B5E9
:100458004FF4806404F132044FF000054FF00001BE
:1004680050E700BF90F0000F04BF0021704730B57F
:100478004FF4806404F1320410F0004548BF404254
:100488004FF000013EE700BF42004FEAE2014FEAA9
:1004980031014FEA02701FBF12F07F4393F07F4F84
:1004A80081F06051704732F07F4208BF704793F087
:1004B8007F4F04BF41F40021704730B54FF460749A
:1004C80001F0004521F000411CE700BF50EA01029D
:1004D80008BF704730B54FF000050AE050EA010246
:1004E80008BF704730B511F0004502D5404261EBB6
:1004F80041014FF4806404F132045FEA915C3FF4F7
:10050800D8AE4FF003025FEADC0C18BF03325FEA93
:10051800DC0C18BF033202EBDC02C2F1200300FA44
:1005280003FC20FA02F001FA03FE40EA0E0021FA69
:1005380002F11444BDE600BF70B54FF0FF0C4CF457
:10054800E06C1CEA11541DBF1CEA135594EA0C0F09
:1005580095EA0C0F00F0DEF82C4481EA030621EA44
:100568004C5123EA4C5350EA013518BF52EA03357F
:1005780041F4801143F4801338D0A0FB02CE4FF031
:100588000005E1FB02E506F00042E0FB03E54FF061
:100598000006E1FB03569CF0000F18BF4EF0010E59
:1005A800A4F1FF04B6F5007F64F5407404D25FEA55
:1005B8004E0E6D4146EB060642EAC62141EA555108
:1005C8004FEAC52040EA5E504FEACE2EB4F1FD0C4A
:1005D80088BFBCF5E06F1ED8BEF1004F08BF5FEAC8
:1005E800500E50F1000041EB045170BD06F000467A
:1005F80046EA010140EA020081EA0301B4EB5C0427
:10060800C2BFD4EB0C0541EA045170BD41F480111E
:100618004FF0000E013C00F3AB8014F1360FDEBF43
:10062800002001F0004170BDC4F10004203C35DA1F
:100638000C341BDC04F11404C4F1200500FA05F3A2
:1006480020FA04F001FA05F240EA020001F0004243
:1006580021F0004110EBD37021FA04F642EB0601B9
:100668005EEA430E08BF20EAD37070BDC4F10C04E3
:10067800C4F1200500FA04F320FA05F001FA04F2A7
:1006880040EA020001F0004110EBD37041F1000193
:100698005EEA430E08BF20EAD37070BDC4F120059E
:1006A80000FA05F24EEA020E20FA04F301FA05F206
:1006B80043EA020321FA04F001F0004121FA04F2AE
:1006C80020EA020000EBD3705EEA430E08BF20EA7E
:1006D800D37070BD94F0000F0FD101F000464000B8
:1006E80041EB010111F4801F08BF013CF7D041EA3A
:1006F800060195F0000F18BF704703F0004652003E
:1007080043EB030313F4801F08BF013DF7D043EA0E
:100718000603704794EA0C0F0CEA135518BF95EAC4
:100728000C0F0CD050EA410618BF52EA4306D1D14B
:1007380081EA030101F000414FF0000070BD50EA6A
:10074800410606BF1046194652EA430619D094EAF4
:100758000C0F02D150EA013613D195EA0C0F05D1DE
:1007680052EA03361CBF104619460AD181EA030132
:1007780001F0004141F0FE4141F470014FF00000EA
:1007880070BD41F0FE4141F4780170BD70B54FF085
:10079800FF0C4CF4E06C1CEA11541DBF1CEA135505
:1007A80094EA0C0F95EA0C0F00F0A7F8A4EB0504E7
:1007B80081EA030E52EA03354FEA013100F08880DE
:1007C8004FEA03334FF0805545EA131343EA1263A7
:1007D8004FEA022245EA111545EA10654FEA00265C
:1007E8000EF000419D4208BF964244F1FD0404F515
:1007F800407402D25B084FEA3202B61A65EB030571
:100808005B084FEA32024FF480104FF4002CB6EB2D
:10081800020E75EB030E22BFB61A754640EA0C00AD
:100828005B084FEA3202B6EB020E75EB030E22BFED
:10083800B61A754640EA5C005B084FEA3202B6EB2E
:10084800020E75EB030E22BFB61A754640EA9C00ED
:100858005B084FEA3202B6EB020E75EB030E22BFBD
:10086800B61A754640EADC0055EA060E18D04FEA7B
:10087800051545EA16754FEA06164FEAC30343EA1B
:1008880052734FEAC2025FEA1C1CC0D111F4801FE8
:100898000BD141EA00014FF000004FF0004CB6E7E1
:1008A80011F4801F04BF01430020B4F1FD0C88BF80
:1008B800BCF5E06F3FF6AFAEB5EB030C04BFB6EB8B
:1008C800020C5FEA500C50F1000041EB045170BD7E
:1008D8000EF0004E4EEA113114EB5C04C2BFD4EBAB
:1008E8000C0541EA045170BD41F480114FF0000E2F
:1008F800013C90E645EA060E8DE60CEA135594EAAB
:100908000C0F08BF95EA0C0F3FF43BAF94EA0C0FAD
:100918000AD150EA01347FF434AF95EA0C0F7FF422
:1009280025AF104619462CE795EA0C0F06D152EA76
:1009380003353FF4FDAE1046194622E750EA41065A
:1009480018BF52EA43067FF4C5AE50EA41047FF46B
:100958000DAF52EA43057FF4EBAE12E74A0011D21D
:1009680012F5001211D20DD56FF47873B3EB625201
:100978000ED44FEAC12343F0004343EA505323FA0D
:1009880002F070474FF00000704750EA013002D182
:100998004FF0FF3070474FF00000704742090123C5
:1009A80000F01F0003FA00F0014B43F822007047E3
:1009B80000E100E043690133436170470268097848
:1009C800137819B143F001031370704761F3000302
:1009D800FAE7012A03D0022A03D0002070470160F9
:1009E800FBE70B680360F8E70A78036802B10122A5
:1009F80083F822207047012A03D0022A03D000205E
:100A080070470160FBE70B680360F8E7C3690133CF
:100A1800C361704770B4816800220B4613B19A60B5
:100A28005B68FBE7D0E9042302EB43050B469542DC
:100A3800144609D026889C6834449C605B6802325E
:100A4800002B08BF0B46F2E7C36B1BB1036C70BCED
:100A58003430184770BC70470B1A9B10002B10DD00
:100A6800027812B342780AB90130704782780AB91D
:100A780002307047C2780AB9033070470430013B2E
:100A8800ECE70B1A022B0BD0032B06D0012B0BD152
:100A98000378002B18BF0846704703782BB1013044
:100AA800037813B10130F3E7084670470B1A9B101F
:100AB800002B10DD027812BB42780AB10130704772
:100AC80082780AB102307047C2780AB103307047A1
:100AD8000430013BECE70B1A022B0BD0032B06D09A
:100AE800012B0BD10378002B08BF08467047037809
:100AF8002BB90130037813B90130F3E70846704782
:100B0800FFF74CBF036813B90160704713465A6872
:100B1800002AFBD15960704710B504462CB12368F0
:100B280020461B6898476468F8E710BD0369002BE6
:100B3800BFBF034B436003F188334360704700BF76
:100B48002301674570B5D0E900340122186902FA1B
:100B580004F5284214BF1046002031B11E69354201
:100B68001DBF1034A2409A619D61484070BD0129A3
:100B780003D1006A00F001007047022903D1006A1E
:100B8800C0F300107047032903D1006AC0F30020A6
:100B98007047042906BF006AC0F300300020704780
:100BA800012901D142637047022901D1826370474C
:100BB800032901D1C2637047042908BF0264704742
:100BC80003888B4219D040F60223994215D9018037
:100BD8000A4BB3FBF1F143680139D8691A6849082F
:100BE8001981D1621B8B0289817A006853434FF4C3
:100BF8007A7293FBF2F2FFF7D3BF7047007A030AC9
:100C080008B50388194489B2FFF7DAFF08BD0288DE
:100C18008A4210B50B460ED04468E2898A420AD34C
:100C2800228901804A4320684FF47A7192FBF1F2DD
:100C3800A17AFFF7B5FF184610BDC36993F82020C5
:100C480010B50446B2B11B8AE068A4F840311030F0
:100C5800B4F84011FFF7B4FFE369E06893F8213076
:100C680053B1B4F84A111830FFF7D1FF0423637069
:100C7800637110BD5B8AE7E764211830FFF7C7FF8F
:100C88000523F4E7817A0068FFF771BF21B903698A
:100C980062F3020303617047012903D1036962F318
:100CA800C503F7E7022903D1036962F38813F1E763
:100CB800032903D1036962F34B23EBE7042903D12A
:100CC800036962F30E33E5E7052903D1036962F38B
:100CD800D133DFE7062903D1036962F39443D9E7E7
:100CE800072903D1036962F35753D3E7082903D1CE
:100CF800036962F31A63CDE7092903D1036962F333
:100D0800DD63C7E70A2904D1C36862F30203C3603D
:100D180070470B2903D1C36862F3C503F7E70C29B1
:100D280003D1C36862F38813F1E70D2903D1C368BF
:100D380062F34B23EBE70E2903D1C36862F30E334A
:100D4800E5E70F2903D1C36862F3D133DFE7102940
:100D580003D1C36862F39443D9E7112903D1C36867
:100D680062F35753D3E71229D2D1C36862F31A63E7
:100D7800CDE7012904D1436B62F304034363704751
:100D8800022903D1436B62F34913F7E7032903D11F
:100D9800436B62F38E23F1E7042903D1436B62F3BB
:100DA800D333EBE7052903D1436B62F31853E5E727
:100DB800062903D1436B62F35D63DFE7072904D19A
:100DC800036B62F3040303637047082903D1036BC1
:100DD80062F34913F7E7092903D1036B62F38E2302
:100DE800F1E70A2903D1036B62F3D333EBE70B294D
:100DF80003D1036B62F31853E5E70C2903D1036BA6
:100E080062F35D63DFE70D2904D1C36A62F304036B
:100E1800C36270470E2903D1C36A62F34913F7E727
:100E28000F2903D1C36A62F38E23F1E71029F0D1A9
:100E3800C36A62F3D333EBE719B90068C0F3401013
:100E48007047012903D10068C0F3C0207047022908
:100E580003D10068C0F340507047032903D10068EC
:100E6800C0F3C0607047042901D14068E6E705294E
:100E780001D14068E8E7062901D14068EAE7072977
:100E880001D14068ECE70020704710B5836804463C
:100E980013B1032201469847204610BD10B5044BF4
:100EA800044640F8343BFFF7F0FF204610BD00BF72
:100EB800D439000870B50646074B46F8D43B0546BA
:100EC80000F1F404A64204D0103C2046FFF7DDFFF1
:100ED800F8E7284670BD00BF343600080C2A10B564
:100EE80001D0112A15D1204B9A68C2F34232D2B1EF
:100EF800042A1AD0052A1AD01C4B1D4C062A08BFF2
:100F0800234607291AD8DFE801F0141A1D202326E2
:100F1800292C0D3A032A04D8134B9A68C2F382226B
:100F2800E5E70023EDE7134BEBE7134BE9E7134B3A
:100F3800E7E74FF41652B3FBF2F3836010BD4FF4AA
:100F48006152F8E74FF49642F5E74FF4E142F2E7D1
:100F58004FF41642EFE74FF46142ECE74FF4963254
:100F6800E9E74FF4E132E6E700380240A037A00095
:100F7800406F4001007A030A00BD010580DE80024F
:100F8800FEE7FEE7FEE7FEE7FEE7FEE7FEE7FEE731
:100F9800FEE7FEE7FEE7FEE7FEE7FEE7FEE7FEE721
:100FA800FEE7FEE7FEE7FEE7FEE7FEE7FEE7FEE711
:100FB800FEE7FEE7FEE7FEE7FEE7FEE7FEE7FEE701
:100FC800FEE7FEE7FEE7FEE7FEE7FEE7FEE7FEE7F1
:100FD800FEE7FEE7FEE7FEE7FEE7FEE7FEE7FEE7E1
:100FE800FEE7FEE7FEE7FEE7FEE7FEE7FEE70000B6
:100FF80010B5064C6269D30303D5054B1868FFF793
:101008008BFD4FF48033636110BD00BF003C01408D
:101018000405002008B5044B1868FFF77DFD034B55
:101028001A685B6808BD00BF240500200010014055
:1010380008B5044B1868FFF76FFD034B1A685B6827
:1010480008BD00BF2C0500200044004008B5044B33
:101058001868FFF761FD034B1A685B6808BD00BF9D
:10106800340500200048004008B5044B1868FFF715
:1010780053FD034B3D229A6008BD00BF8404002045
:101088000060024008B5044B1868FFF745FD034BA4
:101098004FF474629A6008BD8C040020006002401E
:1010A80008B5044B1868FFF737FD034B4FF474126B
:1010B8009A6008BD940400200060024008B5044B03
:1010C8001868FFF729FD034B4FF074629A6008BD5A
:1010D8009C0400200060024008B5044B1868FFF724
:1010E8001BFD034B4FF47462DA6008BDA4040020B2
:1010F8000060024008B5044B1868FFF70DFD034B6C
:101108004FF47462DA6008BDAC040020006002404D
:1011180008B5044B1868FFF7FFFC034B4FF4741233
:10112800DA6008BDB40400200060024008B5044B32
:101138001868FFF7F1FC034B4FF07462DA6008BDE2
:10114800BC0400200060024008B5044B1868FFF793
:10115800E3FC034B3D229A6008BD00BFC404002095
:101168000064024008B5044B1868FFF7D5FC034B30
:101178004FF474629A6008BDCC04002000640240F9
:1011880008B5044B1868FFF7C7FC034B4FF47412FB
:101198009A6008BDD40400200064024008B5044BDE
:1011A8001868FFF7B9FC034B4FF074629A6008BDEA
:1011B800DC0400200064024008B5044B1868FFF7FF
:1011C800ABFC034B3D22DA6008BD00BFE4040020FD
:1011D8000064024008B5044B1868FFF79DFC034BF8
:1011E8004FF47462DA6008BDEC0400200064024029
:1011F80008B5044B1868FFF78FFC034B4FF47412C3
:10120800DA6008BDF40400200064024008B5044B0D
:101218001868FFF781FC034B4FF07462DA6008BD71
:10122800FC04002000640240014B1868FFF774BCFE
:101238000C050020014B1868FFF76EBC1405002050
:10124800014B1868FFF768BC1C050020836A1A6800
:1012580042F001021A601A68D107FCD5036A9A683D
:1012680042F001029A609A68D207FCD59A6842F067
:1012780080429A60704710B504682CB123682046F4
:101288001B689847A468F8E710BD10B504460830F5
:10129800FFF7F1FFD4E90421531C2361B2FBF1F3FA
:1012A80001FB132313B92046FFF7E5FF10BD00002B
:1012B8000148FFF7EABF00BF4405002042690369FF
:1012C8009A424FF0000326BF436101201846704739
:1012D800037BC3B100230373D0E901236AB143B18F
:1012E800936083685A600023C0E9013370470B603C
:1012F800F8E7054993604A60F5E70349002BF6D102
:10130800C1E90033EFE7704744050020002242613D
:10131800FFF7DEBF037B53B901230373044B5A68FD
:10132800426002B190601A68586002B9186070474C
:101338004405002010B50023054A0361C0E90133C4
:101348004361037302600161FFF7E4FF10BD00BF52
:101358001036000880680269D2F818311B68DB066D
:1013680011D5D2F820315B6800219BB2C2F8001178
:10137800C3F1FF01FF2928BFFF21FF2BC2F8041189
:1013880001D0FFF7C7BF7047204B1A68052161F3EA
:1013980002021A60A3F580631A6842F480321A6068
:1013A8001A689203FCD59A686FF307129A609A68D4
:1013B800052161F38C229A609A68042161F34F3207
:1013C8009A609A68022060F301029A605A6861F391
:1013D80005025A605A68A82161F38E125A605A6849
:1013E800072161F31B625A605A686FF311425A6011
:1013F8005A6842F480025A601A6842F080721A6091
:10140800034A13689B01FCD5704700BF003C0240AB
:10141800003802407B487C49F8B5036813F0010F97
:101428007CD17A4B7A4C1A6812F0010F06D1DFF89A
:10143800F8E10922C4E900E201221A60754B1A6B2F
:1014480042F001021A6322681568022666F3934582
:101458001560556A072666F307155562D5686FF358
:101468009345D5606C4D2A6812F0010F6B4A06D17E
:10147800DFF8B4C10A26C2E900C601262E601D6B3A
:1014880045F001051D6313681D68022666F31555AE
:101498001D605D6A072666F30B255D62DD686FF3E4
:1014A8001555DD605E4D2B6813F0010F5D4B05D1BE
:1014B8005D4F0B26C3E9007601262E60554E356B2D
:1014C80045F0010535631D682F68012666F39757B7
:1014D8002F60EF686FF39757EF60C1F81031534BE7
:1014E800C1F81431A3F5AA33C1F8183103F5AA33AA
:1014F800B833C1F81C31783BC1F820310C230025E2
:10150800C1F824310723C1F80051C1F80451C1F8CA
:101518000841C1F80C2181F8283106603D4C636C04
:1015280043F010036364D1F81831DA6842F0080216
:10153800DA60DA6842F00402DA605A6942F080023E
:101548005A615A6942F040025A61394B93F90400D2
:10155800FFF7D6FA236B43F480032363D1F81C31D9
:101568001A68012060F387121A60D1F800210A4432
:10157800DA60D1F8182104329A601A6842F480625D
:101588001A601A686FF34E321A601A686FF3CC2229
:101598001A601A6842F010021A60264B93F9040088
:1015A800FFF7AEFAD1F820311A686FF387121A6084
:1015B800D1F800210A44DA60D1F8182104329A607F
:1015C800FF225A601A6842F480621A601A686FF340
:1015D8004E321A601A686FF3CC221A601A6842F405
:1015E80080721A60D1F820311A68042060F35B62B7
:1015F8001A60D1F81C311A6860F35B621A600248FD
:10160800F8BD00BF0C020020100200205403002087
:101618005803002000380240480300204C030020F3
:101628003C03002040030020000002400064024008
:1016380024050020FC04002070B5294E294B32688F
:1016480012F0010F2ED1284A116811F0010F274915
:1016580005D1274D0624C1E9005401241460254C06
:10166800226B42F0010222630A681468022565F3BE
:101678000D341460146A65F31B641462D4686FF344
:101688000D34D4601C4AD881C3E900214FF6FF729B
:1016980000211A8101229A729A8119825B61198349
:1016A800DB613260134915480A6C42F002020A6491
:1016B8001B689A69062161F306129A619A6942F0D9
:1016C80008029A611A6842F080021A601A6842F0A9
:1016D80001021A6040F60321FFF772FA014870BD53
:1016E800D4000020D8000020F8000020FC000020D2
:1016F800000002400038024000040040E8000020DA
:1017080038B53B4D3B4C2B6813F0010321D13A4AC5
:1017180022603A4A226202F54072626202F5A03201
:1017280002F58872C4E90603A26235486360242280
:101738002146C4E90233C4E90433E0622263E36367
:10174800FFF7E0F901232F4A2F492B60204601F0CB
:10175800F8FE2E4A536C43F480735364236A596825
:101768006FF319615960996841F0020199609968AD
:1017780041F480719960996841F400719960606AD8
:10178800416841F440314160596841F480715960C1
:10179800116B41F48001116303F14C02A36A9A6052
:1017A8001A686FF387121A601A68012161F34E32C2
:1017B8001A601A6861F3CC221A601A6842F48062CF
:1017C8001A601A6842F010021A601A6842F48072AD
:1017D8001A601A6842F480721A601A686FF35B62C2
:1017E8001A60E36A93F90400FFF78AF9014838BDE3
:1017F8008C00002090000020D4390008002001400F
:10180800C404002000000020A50E00080038024093
:10181800D0F810210023C0F80031C0F8043110B509
:10182800D2E90041012210318A40A261D0F81C217E
:10183800116863F300011160D0F82021116863F387
:101848000001FF2311605360D0F820311A6842F07C
:1018580001021A601A68D207FCD5D0F81821D3689B
:1018680043F01003D36010BD2DE9F0414B4F4C4CB1
:1018780080460E46FFF7CEFD3D6815F001054DD1B7
:10188800484B2360484B2061C4E906354748484B1C
:10189800606104F13801A363C4E901552573256229
:1018A80084F82480E5842585658584F82C50258670
:1018B800E5632464FFF726F93E4BA069636404F1ED
:1018C8004401A564E464FFF71DF92022294604F1C8
:1018D800500001F06DFE2422294604F1700001F049
:1018E80067FE2022294604F1940001F061FE2022BF
:1018F800294604F1B40001F05BFE1022294604F1E8
:10190800F400C4F8DC50C4F8EC5001F051FE012397
:10191800294A2A493B60204601F013FEF3B213F02E
:10192800E00236D0202A36D003F0C003402B0CBF8B
:101938000223012323622369C6F34211D3F8242129
:10194800D3F81801FFF7CAFAC368C6F3400262F376
:101958004923C360C368C6F3800262F30C33C360D3
:101968000369C6F3C10262F30D330361C36816F05D
:10197800010614BF43F4806366F38A23C360C36817
:1019880043F40053C3602069FFF742FF0448BDE8F1
:10199800F0810423CEE70323CCE700BF0401002035
:1019A8000801002034360008FC040020240500202B
:1019B8001C3600082836000800000020BD0E00086C
:1019C80008B583681A6992F82811D2F81401FFF74C
:1019D80033FA10B11869FFF71BFF08BD10B504688A
:1019E800A14207D1516001B10A604368026003B99E
:1019F800426010BD41B94368136003B15A60426048
:101A0800002CF6D10260F4E70B68C2E900310A60E5
:101A180013685A60EDE7000030B50468164B6CB1E6
:101A2800D3F8002154F8045D043A521B9D18AC42C7
:101A38001ABF012283F80421C3F800214268114427
:101A480041600E4AD3F80051914294BF49004FF0CB
:101A5800FF312C1D0C44B4F5807F03EB0502C3F85D
:101A6800004107D893F8044124B90AB15951043206
:101A7800026030BD0022FBE77C030020FCFFFF3F33
:101A880070B52E4D2E4B2A6812F0010F04461FD157
:101A98002C48026812F0010108BF2B4E2B4A02BFE6
:101AA800C2E90061012101602948016B41F001018F
:101AB80001631168086840F003000860C8686FF3A4
:101AC8000100C8600021C3E90011DA6001222A6020
:101AD800206A00221A61036943F007030361E16980
:101AE8000131E161FFF745F9D4E90732D16A013BD9
:101AF80063F31751D162A16804F1080021B10B69A1
:101B0800002B01DC4968F9E70D4AFFF767FFA16977
:101B180004F11000FFF780FFA36A1A686FF3000250
:101B28001A602269DA60A28A5A601A6842F00102D1
:101B38001A601A68D207FCD5014870BD68000020F9
:101B48006C0000208000002000000240840000207B
:101B58000038024038B5324D324B2A6812F0010F76
:101B6800044620D130490A6812F0010F08BFDFF897
:101B7800C4C02E4A02BF0120C2E900C008602C4838
:101B8800016B41F0010101631168086840F00C0025
:101B98000860C8686FF38300C8600021C3E90011BA
:101BA800DA6001222A60256B206A243D012D8CBF52
:101BB80000250125072229461D61FFF767F8E1691D
:101BC800206A0131E1612A46FFF7D3F8D4E90732E8
:101BD800D16A013B63F31751D162A16804F108008F
:101BE80021B10B699D4201DB4968F9E70D4AFFF70E
:101BF800F5FEA16904F11000FFF70EFFA36A1A6849
:101C08006FF300021A602269DA60A28A5A601A68C1
:101C180042F001021A601A68D207FCD5014838BDA3
:101C280044000020480000205C00002060000020E4
:101C3800003802400000024070B5324D324B2A682D
:101C480012F0010F04461FD130490A6812F0010F43
:101C58002F4A05D12F4E0220C2E9006001200860FA
:101C68002D48016B41F0010101631168086840F0DB
:101C780030000860C8686FF30510C8600021C3E928
:101C88000011DA6001222A60226B206A243A022AB3
:101C980034BF02250025EEB2072231461D61FEF74A
:101CA800F5FFE169206A0131E1613246FFF761F829
:101CB800D4E90732D16A013B63F31751D162A168B5
:101CC80004F1080021B10B699D4201DB4968F9E77D
:101CD8000D4AFFF783FEA16904F11000FFF79CFE8F
:101CE800A36A1A686FF300021A602269DA60A28A8E
:101CF8005A601A6842F001021A601A68D207FCD5C5
:101D0800014870BD20000020240000203800002079
:101D18003C000020000002400038024013B50B468A
:101D28000446D0E900016A4682E8030093E803000C
:101D380084E8030092E8030083E8030002B010BDC2
:101D4800F0B5FF23074F084E1D4611F8014B5C40C4
:101D580091423B5D83EA0503355DF6D1057043701A
:101D6800F0BD00BF3836000838370008D0F8003119
:101D7800D0F804219A4283BF5A1CC0F80021C05CE5
:101D880000207047D0F80431FE2B9FBFC154D0F813
:101D980004310133C0F80431704738B50C46090ADC
:101DA8000546FFF7EFFFE1B2FFF7ECFF284638BD25
:101DB800D0F81031D3E9002101238B409361D0F88A
:101DC8001831DA686FF30412DA60D0F820311A6833
:101DD8006FF300021A60D0F81C311A686FF3000222
:101DE8001A60D0F80431D0F80011D0F81C215B1A21
:101DF80002339BB25360D0F81C311A6842F00102DA
:101E08001A601A68D207FCD57047036937B50129EB
:101E18004FF0000204460D46C3F80021C3F8042120
:101E28000ED190F824100069FFF7ACFF94F8251044
:101E380041F08001FFF7A6FF2946FFF7A3FF07E05F
:101E48000229006902D194F82410EDE70329FAD099
:101E58002369D3F80421D3F800111A44194401A8BE
:101E6800FFF76EFF9DF805102069FFF78BFF9DF8BF
:101E78000410FFF787FF2069FFF79AFF03B030BD12
:101E880070B5D0F80031D0F8042101339A420446E5
:101E98000D460ED9FFF76AFF06462046FFF766FF94
:101EA8004FF0000360F3070366F30F232B802046EF
:101EB80070BD0023FAE738B504460D4600F1260147
:101EC8000069FFF7DDFF04F12A012069FFF7D8FF59
:101ED800638DE08C1844013880B2A8424FEA43036E
:101EE800208584F82C302CBF0020012038BD13B584
:101EF800044600F126010069FFF7C2FFE38C012BBD
:101F080005D902212046FFF780FF02B010BD0DF170
:101F180006012069FFF7B4FFBDF8062022B1B2F52B
:101F28007F4F01D00321EDE7E38C04F1D4001B01BE
:101F38001844816851B1A2F57F414A424A4123447D
:101F480002A9D3F8E03001F8032D9847236900224D
:101F5800C3F800210822C3F804212069FFF728FFED
:101F6800D3E70000000000002DE9F04F394BADF534
:101F7800177D0BAE03F1200732463C4618685968B6
:101F8800154603C50833BB422A46F7D118689B8813
:101F9800AB80314B286000221F93304B239330488D
:101FA800304B8DF8DD20CDE920224FF48031CDE98A
:101FB8003231CDE934018DF888202F92ADF8C02058
:101FC800319236938DF8DC208DF8DE208DF8E020F4
:101FD8002496FF211FAB13440132262A1976F9D122
:101FE8000DF154090021484601F0E2FA2398FEF762
:101FF8009DFD239B1A694FF0010868F309221A61B5
:102008001A6942F080721A611FAD00274FF6FF7BF4
:102018000DF17A0AD5E9133103EB410199420FD04A
:102028001A78252A09D80DF17C0C62445878107664
:102038001A7809F802800233F0E71A885A45FAD16B
:102048003693E96C99420FD12F970835CFB90127FC
:10205800E0E700BFE0350008E0390008003C024036
:1020680000000A0800000C082A6D01EB42029342A6
:1020780000F02582514648462F97FEF7EDFC824531
:10208800E3D12F9A1FAB03EBC201D1E91330369984
:1020980003EB4003994206D130AB01219954002348
:1020A8002F93329B36930DF17A0529464846FEF761
:1020B800D3FCA842074640F00782249B25AA0DF1CD
:1020C800B40E9446BCE80300F445186059606246B3
:1020D80003F10803F5D1DCF800001860BCF804200F
:1020E8009A8000238DF8DE309DF8C03083B92F9B8D
:1020F80073B1DDE932324FF6FF7003EB42018B42D8
:102108001A4640F0E781521A18BF01228DF8C02004
:102118009DF8C130BBB92F9B012B14D0DDE93423C6
:102128004FF6FF7002EB43039342114600F0DA8149
:10213800B1F800C0844502F10202F5D05B1A18BF5D
:1021480001238DF8C1300DF1C208414630A8FEF7D1
:10215800ADFC804518BF0323239A18BF8DF8DD30E6
:102168001369AF4243F0004313610DD0BB4B3246B5
:1021780018685968154603C50833A3422A46F7D19B
:1021880018689B882860AB801FA8FFF7C3F8B44A7B
:10219800DFF8F8921368DFF8F88213F0010301BF43
:1021A800B049C9E9001301231360AF4B1A6B42F021
:1021B80002021A63D9F800201068012161F30100B6
:1021C8001060D0686FF30100D060A84A106810F062
:1021D800010F01BFDFF8BCC211600520C8E900C0CB
:1021E8001A6B42F004021A63D8F800301A684FF0EC
:1021F800010A6AF38B221A60DA686FF38B22DA60BD
:1022080071883079FFF730FB0390039B039D984A50
:102218003C9239AC92332360964A019305F1D4017C
:102228002046A260FFF77AFDD5F8DC10A268A1600D
:10223800D5F8E010C5F8DC20E268E1602046C5F872
:10224800E020FEF722FE039D8B4A266005F1E4019B
:10225800E2602046894AA260FFF760FDD5F8EC10DD
:10226800A268A160D5F8F010C5F8EC20E268E1603A
:102278002046C5F8F020FEF708FE039A0A21A2F8C6
:102288007010039A3188A2F87210039A3179A2F873
:102298007610039A7188A2F874100399FF22A1F8A6
:1022A800B4200399A1F896A00399A1F8B620039A3F
:1022B80003990025A2F8A4507822A1F8C420039914
:1022C800A1F8A65003994FF4C870A1F8C620FFF7EB
:1022D800B3F904901020FFF713FA0790FFF7D0FB2B
:1022E80007AF78603868FFF735FCB8603868FFF7E3
:1022F800A3FC049A019BF8604FF0030BC82141A886
:10230800C4E90272C4E9063625706570A570E570E7
:1023180084F804B06571C4E90498FFF70BF84FF42A
:10232800FA7147A8FFF706F84FF47A714DA8544E92
:10233800FFF700F84FF47A7153A8FEF7FBFF5A95A0
:102348005B955C953221C4F88060C4F890505FA812
:10235800C4F89450FEF7EEFFE369669567956895B3
:10236800D98AC4F8B060C4F8C0506BA8C4F8C45087
:10237800FEF7E0FF4FF07A73729573957495C4F881
:10238800F050C4F8E060C4F8F450789579957A95DF
:10239800C4F80851C4F8F860C4F80C517E957F95CC
:1023A8008095C4F8403103F1462303F15013C4F873
:1023B8004431344BC4F848314FF42023C4F8106139
:1023C800C4F82051C4F84C3114222946C4F82451C9
:1023D800C4F82851C4F82C51C4F83051C4F8345109
:1023E800C4F83851C4F83C51A4F850510DF23A20C1
:1023F80084F8525184F853A184F8545101F0D8F864
:102408002123C4F86C31386884F86A5141F2EC33FE
:10241800C4F87031FEF71AFFC4F890B0039B1A4E47
:10242800CDE90534A369E5691A78B4F82A01AF7FC4
:10243800C2F30011874238BF41F0010161F3041271
:102448001A7049B3EA7F197882422CBF0022012210
:1024580062F304110622197062701DE0E03500086D
:102468006C03002000040240003802406003002092
:10247800C5090008DB090008F1090008FF09000880
:1024880010360008A861C8003C3800087003002016
:1024980064030020000802401B78E068DF07026838
:1024A800818905D5DD0603D49F0601D45D061BD5B9
:1024B800002384F85231136A23EA01031DE01FAB9D
:1024C8003B4483F84480C0E52F9B30AA0121D154B6
:1024D800052307E6B2F800C0844503F102033FF480
:1024E8000EAE10E6194629E6012384F8523194F815
:1024F8005331002BDFD0136A0B431362FEF7C2FB84
:1025080088B1E3695A89B4F83231B3EBD20F0AD9EA
:10251800A269137803F0FE0343F040031370062307
:10252800637000236371A569A7682B7894F852013A
:102538005A062A7854BF03F00103002363F300020C
:10254800BB682A709B6850B198B2FDF78BFFC2A395
:10255800D3E90023FDF7F0FFFEF700FA80B2FB682D
:10256800A4F832011F89BE4B3F096422002A0DDD01
:10257800511003EB810C53F82100B84204D9521AC8
:102588000CF10403013AF1E70A46EFE79B1B9B10A5
:10259800A4F82A31E36993F8222072B32B78C3F3A5
:1025A8004003297863F34101297042B3E068FEF7DC
:1025B80069FB20B347A8FEF781FE01462069FEF7B4
:1025C800C1FAE369B4F842111A89A4F84421501AEF
:1025D8000A44A4F84821A4F84601597F6278890082
:1025E800A4F84A11062A44D8DFE812F016001801A8
:1025F800A701F6018303C6018B031346D1E7E06800
:10260800FEF740FB22690123D2E9001210B1934082
:102618008B61D6E71032FAE794F85421E068002A73
:1026280000F0E88093F82220002A00F0D080A56905
:1026380093F820302A7842F002022A701830002BD2
:1026480000F0B680FEF7E3FAE068B4F84411103001
:10265800FEF7B6FA022363706371E36993F82430D6
:102668003BB177A8FEF752FE7DA8FEF74FFE032385
:102678002371DDF81890059DD9F81C70D9F80CA0C5
:102688003B89A5F87C30BAF81030A5F87E307B8AF3
:10269800A5F882303B8AA5F880307B89A5F886307A
:1026A800B9F83231A5F88430B9F82A31A5F88C3058
:1026B800BB7FA5F88E3099F85281FB7FA5F8903042
:1026C800B889B8F1000F00F03583FDF7CBFE62A39F
:1026D800D3E90023FDF730FFFEF740F980B2A5F8F3
:1026E8008800F889B8F1000F0AD0FDF7BBFE5AA39D
:1026F800D3E90023FDF720FFFEF730F91FFA80F831
:10270800A5F88A807B7FA5F87830BAF8183097F852
:1027180021209B08A5F87A3095F8923062F382035D
:1027280097F8202062F3C30363F07F0385F89230A3
:10273800D9F8183095F892101A78C2F3001262F39B
:10274800041185F892101A78C9B2C2F3401262F3E4
:10275800451185F892101A78C9B2C2F3801262F353
:10276800861185F892105A7895F893302969C2F342
:10277800400262F3410385F8933097F8232062F30F
:10278800820385F89330D1F82031D1F804215B68B1
:10279800D1F800119BB2521AC3F1FF039A4280F09C
:1027A800CB820023EB612846FEF792FD30BF39E665
:1027B800C4F834316421A4F82E31FEF728FAE06811
:1027C800B4F848111030FEF7FBF9012343E7FEF790
:1027D80059FA30B9E369E06893F820202AB9598A90
:1027E80004E02046FEF729FA37E7198A1030FEF789
:1027F800E7F932E764211830FEF709FAE068B4F81F
:1028080044111030FEF7DCF9E068FEF73BFA0028C7
:102818003FF423AF012384F854311EE7E068FEF744
:1028280031FA78B1A378032B0CD8DFE803F0021B48
:10283800335F4FF47A73C4F8C03065A8FEF76AFDB9
:102848000123A370E068FEF71DFA00287FF411AF9A
:10285800002363700DE700BF655446655446B53FD5
:102868003C380008D4F8C420D4F8C0309A42E9D3E0
:1028780065A8FEF74BFDE068B4F848110023C4F8DA
:102888003431A4F838311030A4F82E31FEF798F915
:102898000223D6E7A368B4F836215B689B689342A5
:1028A80084BFA4F83631E36841A884BF1B8AA4F822
:1028B8003C31FEF703FD68B1E068B4F84631028A9E
:1028C8009A4283BFB4F84E11494209B20021103030
:1028D800FEF796F9E3681A8AB4F846319A42B1D1FC
:1028E800E369B4F83C215A820323AAE741A8FEF71A
:1028F800E5FC70B1E068E36930F8102F5B8A9A4212
:1029080018D383BFB4F84E11494209B20021FEF72B
:1029180077F9E268E369128A5B8A9A4292D1A369DD
:102928001A78002161F34102A17020461A70FEF75F
:1029380084F987E7B4F94E11E9E7E068B4F82C1197
:102948001030FEF73DF9E36993F8220068B9A269EF
:10295800117860F341011170E268128A1A82B4F8A2
:102968002E21DA812046FEF768F9E36993F82030D2
:10297800002B7FF47EAE6BE7A268B4F82E11526884
:1029880092688A4284BF92B2A4F82E215FA888BFB9
:102998009A81FEF793FC68B1E068B4F84A3130F8E0
:1029A800181F8B4294BF4FF0FF330123194489B29B
:1029B800FEF72DF9E068B4F84A31028B9A4222BF3B
:1029C800032363706371FEF75DF900287FF451AE4D
:1029D8000023637063714CE693F82320002A62D0C9
:1029E800E278012A3ED00CD3022A1AD0A3691B78B8
:1029F80013F001037FF43DAE637063712370E370DD
:102A080037E693F8202052B11A8AA4F83E219A8A10
:102A18001B7F92FBF3F3A4F85031022320E05A8A7B
:102A2800F3E76BA8FEF74AFC78B1E369E068998A96
:102A3800B4F83E31028A03EB51039A42B4BFB4F9A9
:102A4800501100211030FEF7DBF8E3681A8AE369B9
:102A5800998AB4F83E3103EB51039A42C6DB01234D
:102A6800E370C3E76BA8FEF729FC88B1E169E06869
:102A7800898AB4F83E31028AA3EB51039A42C3BF54
:102A8800B4F85011494209B200211030FEF7B8F8E5
:102A9800E368E1691A8A898AB4F83E31A3EB5103E5
:102AA8009A42BADDA2E793F82420002A4CD0227972
:102AB800032A9BD8DFE802F0021129401B8BC4F8D7
:102AC800083177A8FEF726FCE068B4F84A1101231C
:102AD80018302371FEF79BF888E7D4F80C21D4F856
:102AE80008319A4282D3E06864211830FEF78FF8E3
:102AF80077A8FEF70BFCE3695B8BC4F820317DA84F
:102B0800FEF708FC0223237170E7D4F82421D4F8D7
:102B180020319A42FFF46AAFE0681830FEF777F880
:102B28007DA8FEF7F3FBE3691B8BC4F8083177A88F
:102B3800FEF7F0FB0123E6E777A8FEF7E7FB7DA8A1
:102B4800FEF7E4FB0023DEE7A269537813F00101E6
:102B580000F0CB802278032A3FF648AFDFE802F086
:102B680002305F969F07C3F340013FF53FAF40F641
:102B7800B833C4F8F03071A8FEF7CCFBD4F8F420D1
:102B8800D4F8F03084F853119A42FFF42FAF71A8AB
:102B9800FEF7BCFB94F85221012384F85331E36813
:102BA8003AB11A689B89116A0B4313620123237097
:102BB8001CE719689B890A6A22EA03030B62F5E796
:102BC800A368B4F836215B689B68934284BFA4F875
:102BD8003631E36841A884BF1B8AA4F83C31FEF76C
:102BE8006DFB80B1E068B4F84031028A6FF49575E6
:102BF8002B449342DDBFB4F84E11494209B200217B
:102C08001030FDF7FDFFE268B4F84031128A6FF426
:102C18009570034493427FF7E9AE0223C7E7A368A0
:102C2800B4F834215B689B68934284BFA4F83431BC
:102C3800E36841A884BF1B8AA4F83A31FEF73EFB3B
:102C480068B1E068B4F84031028A03F22B1393426A
:102C5800ACBFB4F94E1100211030FDF7D1FFE26886
:102C6800B4F84031128A03F22B139342BFF6BEAE7A
:102C7800B4F83631B4F834219A428CBFB4F83A31FA
:102C8800B4F83C31A4F83831032390E741A8FEF7A3
:102C980015FB70B1E068B4F8383130F8102F9A425B
:102CA8001ED383BFB4F84E11494209B20021FDF783
:102CB800A7FFE368B4F838211B8A9A427FF496AEDE
:102CC800A1694A7842F002024A70E26992F820103B
:102CD80049B11382A4F840310023C4F8343166E7BF
:102CE800B4F94E11E3E75382F4E761F341035370FB
:102CF8007CE6E068B4F82C111030FDF761FFE0685D
:102D080061E6A3691B78D9060CD49A060AD45B0637
:102D180008D46369D3E900120123103293408B6110
:102D2800637996E547A8FEF7C9FA01466069FDF799
:102D380009FF9EE44046D2E4D5E907239A42FFF60C
:102D480035AD00272846EF61FEF7C2FA2869D0F8AA
:102D58000431D0F80021991A072902D8FEF758FD46
:102D680024E510F802C095F824108C45F6D193425A
:102D780084BF03F1FF33C0F804312A6988BFC75CF8
:102D8800D2F80011D2F804318B4282BF03F1FF332D
:102D9800C2F8043112F803802B69D3F80421D3F860
:102DA80000111A44194402A898BF4FF00008FEF712
:102DB800C7FF9DF80830BB4204D19DF80930286947
:102DC800434501D02869C9E7FEF7D0FF2869FEF717
:102DD800CDFF0528074685F8250000F07C811028DE
:102DE80042D0032840F07C8112212846FFF763F87F
:102DF80020B902212846FFF708F8D7E42B690022FA
:102E0800C3F80021C3F8042195F824102869FEF7B7
:102E1800B9FF3946FEF7B6FF95F82C10FEF7B2FF5A
:102E28006B8D28695A1E6A8543B1EB8C5A1C38335E
:102E3800EA8435F81310FEF7B0FFF1E7D0F8042163
:102E4800D0F800110244014402A8FEF779FF9DF86A
:102E580009102869FEF796FF9DF80810FEF792FF03
:102E68002869FEF7A5FFA1E401462846FFF723F8E5
:102E78000028BED02B69D3F80021D3F80411914261
:102E880083BF511CC3F800119B5C002385F82C30CC
:102E9800002705F12E08698D2869BBB299422CD903
:102EA8004146FEF7EDFFEB8C13FA87F3EA185B0057
:102EB80092F8F410EA8D89B12B4410B2B3F894104B
:102EC8000FFA81FC604500DA31B9B3F8B4100FFA93
:102ED80081FC60450DDD61B103218BE72B44B3F81C
:102EE80094108A4201D20029F6D1B3F8B4108A426C
:102EF800F1D8A3F850200137CDE77A4A00234FF0E4
:102F0800010E40F2B74C9FB28F4280F0C880B5F8EE
:102F180026804744BFB20F2F12D8DFE807F0081306
:102F28001D28363F48515A636C757E879099059FD6
:102F3800B7F85080A7F87480069FFF69A7F8028049
:102F48000133E0E7059FB7F85280A7F87680069F1F
:102F5800FF6987F80480F3E7059FB7F85470A7EB7B
:102F68000C08D8F1000747EB08071770E8E717784F
:102F780047B1059FB7F85680A7F87280069FFF698A
:102F8800A7F8008082F800E0DAE7069F0197059F1E
:102F9800B7F85880019FA7F82C81D1E7069FDDF884
:102FA8001480FF69B8F85A80A7F80880C8E7069F18
:102FB800D7F81C80059FB7F85C7088F81D70BFE7CC
:102FC800069FDDF81480FF69B8F85E80A7F80A80CC
:102FD800B6E7069FD7F81C80059FB7F8607088F899
:102FE8001E70ADE7069FD7F81C80059FB7F8627082
:102FF80088F81F70A4E7069FDDF81480FF69B8F809
:103008006480A7F814809BE7069FD7F81C80059F6B
:10301800B7F8667088F81C7092E7069FDDF8148090
:10302800FF69B8F86880A7F8168089E7069FDDF879
:103038001480FF69B8F86A80A7F8188080E7069FAF
:10304800DDF81480FF69B8F86C80A7F81A8077E774
:10305800DDE9057997F86EA0D9F81C80D9F81890A1
:1030680097F86FB0CAF3800A88F821A097F86EA085
:10307800CAF3C00A88F820A099F801A06BF3000AE7
:1030880089F801A097F86F9097F86F70C9F38009D5
:10309800C7F3C00788F8239088F8247050E7002306
:1030A800C0F80031C0F8043195F824102869FEF7FB
:1030B80069FE95F82510FEF765FEE98CFEF76DFEB2
:1030C800698DFEF76AFE2B69D3F80421D3F8001145
:1030D8001A441944B8E62846FEF709FFFFF766BB0D
:1030E800012187E67803002030B50B1A9B10002BCE
:1030F80015DD14780578A54203D04578A54201D19D
:10310800013030BD8578A54201D10230F9E7C57894
:10311800A54201D10330F4E70430013BE7E70B1A7D
:10312800022B0ED0032B07D0012B10D10478137873
:103138009C4218BF0846E4E7047813789C42E0D024
:103148000130047813789C42DBD00130EEE7084662
:10315800D7E700002DE9F34190F861304169044652
:10316800052B1BD8DFE813F006001D004A0082007B
:10317800B400E80090F86430C218C95C127E91422D
:1031880040F0F6800133DBB2262B28BF002380F8FD
:103198006430B3FA83F35B0980F8603002B0BDE8AD
:1031A800F0810069C268C2F30042002AF6D10369BF
:1031B800002BF3DAFDF7BAFC2369186962F34100C2
:1031C80018611A6942F001021A6123691A6901201B
:1031D80060F309221A611A6942F080721A6194F840
:1031E8006430CA5C84F8632094F86310E26D43EAA3
:1031F80001231380022384F86130CFE70369DA687A
:10320800D107CBD5DA6842F00102DA601A6942F0D8
:1032180000421A6190F8643090F8632003441A76EB
:10322800C26D036C0232C26500EBC300D0E913150E
:1032380001EB45018A4203D094F86230DBB2DAE749
:103248000122E1181344022B28BF002381F84420EF
:10325800236404EBC303DB6CE365002384F8643068
:1032680084F86120052384F8623097E70769FD68D0
:10327800C5F30045002D91D13B69002B8EDA02AAD7
:1032880000F14606012300F1440802F8013D3146E9
:103298004046FFF729FFB042CED0A0EB0800A0645B
:1032A8003846FDF743FCA36C324AD25C036965F3E8
:1032B80000030361036943F002030361036962F3D6
:1032C800C6030361036943F480330361042392E76F
:1032D8000369DA68D2077FF561AFDA6842F0010264
:1032E800DA601A6942F000421A61816C00EBC1038E
:1032F800D3E913234FF6FF7502EB430393421046BD
:1033080018D00688AE4202F10202F7D01B1A2144F7
:1033180018BF012304F1460581F8443004F1440044
:103328002946FDF7C3FB854214BF0320002084F81B
:10333800610033E71846E9E790F864300133DBB2FF
:10334800252B11D9002380F8643004F1460529465D
:1033580004F14400FDF7AAFB854214BF03200020B6
:1033680084F8610000237EE780F86430002BECD0FD
:10337800012340E73838000808B54FF4847200216B
:103388003F4800F015F93F4A0023012113601171ED
:103398003D4A2320136010713C4A242013601071A9
:1033A8003B4A3320136010713A4A2520136010718C
:1033B800394A262013601071384A2720136010718B
:1033C800374A342013601071364A0B20136010718D
:1033D800354A0C2013601071344A0D2013601071A7
:1033E800334A0E2013601071324A0F201360107197
:1033F800314A102013601071304A11201360107187
:103408002F4A2F20136010712E4A38201360107134
:103418002D4A3920136010712C4A3A20136010711C
:103428002B4A3B20136010712A4A3C20136010710C
:10343800294A442013601071284A452013601071EE
:10344800274A462013601071264AC2E90033C2E9B0
:103458000233C2E90431244A116863F300011160A0
:10346800224951609360136843F0040313601368A2
:1034780043F002031360136843F00103136008BDAF
:103488007C030020040500200C0500201405002002
:103498001C050020240500202C05002034050020F0
:1034A8003C050020840400208C04002094040020A3
:1034B8009C040020A4040020AC040020B4040020D4
:1034C800BC040020C4040020CC040020D404002044
:1034D800DC040020E4040020EC040020F4040020B4
:1034E800FC0400204405002010E000E03F900200AA
:1034F800DFF834D0002103E00C4B5B584350043113
:103508000B480C4B42189A42F6D30B4A02E00023B0
:1035180042F8043B094B9A42F9D3FDF735FF00F016
:1035280023F8FEF721FD704700000220F03900085B
:103538000000002004000020040000205C0500209A
:10354800FEE70B460146184600F000B810B5054CDA
:1035580013462CB10A4601460220AFF3008010BD85
:103568002046FCE70000000070B50D4E0D4CA41B72
:10357800A4100025A54209D10B4E0C4C00F020F8F0
:10358800A41BA4100025A54205D170BD56F825300E
:1035980098470135EEE756F8253098470135F2E7A8
:1035A800E4390008E4390008E4390008EC39000877
:1035B80002440346934200D1704703F8011BF9E720
:1035C800F8B500BFF8BC08BC9E467047F8B500BF08
:0835D800F8BC08BC9E467047D8
:1035E0000000E00001000000204E401F000000002D
:1035F000204E204EC800C800E803E8030250412DC9
:1036000000000000000000000000000000000000BA
:10361000BD09000800000000000000005D13000864
:103620000000000000000000C919000800000000B0
:1036300000000000150A000800C1814001C080415F
:1036400001C0804100C1814001C0804100C1814072
:1036500000C1814001C0804101C0804100C1814062
:1036600000C1814001C0804100C1814001C0804152
:1036700001C0804100C1814001C0804100C1814042
:1036800000C1814001C0804100C1814001C0804132
:1036900001C0804100C1814000C1814001C0804122
:1036A00001C0804100C1814001C0804100C1814012
:1036B00000C1814001C0804101C0804100C1814002
:1036C00000C1814001C0804100C1814001C08041F2
:1036D00001C0804100C1814000C1814001C08041E2
:1036E00001C0804100C1814001C0804100C18140D2
:1036F00000C1814001C0804100C1814001C08041C2
:1037000001C0804100C1814001C0804100C18140B1
:1037100000C1814001C0804101C0804100C18140A1
:1037200000C1814001C0804100C1814001C0804191
:1037300001C0804100C1814000C0C101C30302C279
:10374000C60607C705C5C404CC0C0DCD0FCFCE0EE1
:103750000ACACB0BC90908C8D81819D91BDBDA1A51
:103760001EDEDF1FDD1D1CDC14D4D515D71716D6C1
:10377000D21213D311D1D010F03031F133F3F23231
:1037800036F6F737F53534F43CFCFD3DFF3F3EFEA1
:10379000FA3A3BFB39F9F83828E8E929EB2B2AEA11
:1037A000EE2E2FEF2DEDEC2CE42425E527E7E62681
:1037B00022E2E323E12120E0A06061A163A3A262F1
:1037C00066A6A767A56564A46CACAD6DAF6F6EAE61
:1037D000AA6A6BAB69A9A86878B8B979BB7B7ABAD1
:1037E000BE7E7FBF7DBDBC7CB47475B577B7B67641
:1037F00072B2B373B17170B05090915193535292B1
:1038000096565797559594549C5C5D9D5F9F9E5E20
:103810005A9A9B5B99595898884849894B8B8A4A90
:103820004E8E8F4F8D4D4C8C448485458747468600
:1038300082424383418180400A090000FE0D00005E
:10384000E40D0000C90D0000AD0D00008F0D00005B
:10385000770D0000590D0000390D0000190D000012
:10386000F70C0000DB0C0000B80C0000950C000009
:10387000700C00004B0C00002B0C0000040C00002E
:10388000DC0B0000B40B00008A0B0000690B000089
:103890003F0B0000150B0000E90A0000BD0A000004
:1038A000980A00006C0A00003F0A0000110A00009C
:1038B000E3090000BE090000900900006109000052
:1038C0003209000002090000DB080000AD0800001A
:1038D0007E0800004F08000020080000FA070000E2
:1038E000CD070000A0070000730700004607000096
:1038F00022070000F6060000CB060000A00600002C
:1039000075060000530600002A06000002060000AB
:10391000DA050000B2050000920500006C05000009
:103920004605000022050000FD040000E004000040
:10393000BE0400009C0400007B0400005A04000048
:10394000400400002104000003040000E50300001F
:10395000C8030000B1030000960300007B030000D1
:103960006103000047030000330300001B03000055
:1039700004030000ED020000D6020000C5020000B2
:10398000B00200009B0200008702000074020000E9
:1039900065020000530200004202000030020000F5
:1039A0001F0200001302000003020000F4010000E7
:1039B000E5010000D5010000CB010000BD010000C1
:1039C000B0010000A301000096010000000000000B
:1039D000000000001D0A00080000000000000000B8
:0439E0005D3100084D
:0839E400AD0100088133000869
:0439EC008901000845
:0439F00000000000D3
:04000005080034F9C2
:00000001FF
