:020000040800F2
:1000000000000220E13100083132000831320008DE
:10001000313200083132000831320008000000009F
:100020000000000000000000000000003132000865
:10003000313200080000000031320008A913000826
:100040009D1000089F100008A1100008A3100008D0
:10005000A5100008A7100008A9100008AB100008A0
:10006000AD100008AF100008B110000861110008C1
:100070007D11000899110008B5110008D111000880
:10008000ED11000809120008B3100008B5100008AF
:10009000B7100008B9100008BB100008BD10000818
:1000A000F1100008F3100008F5100008F710000820
:1000B000F9100008FB100008FD100008BF10000830
:1000C000C1100008C3100008C51000082113000863
:1000D0002D1300080D110008291100084511000812
:1000E000C7100008C9100008CB100008051100084F
:1000F00007110008091100080B110008251200085B
:10010000CD100008CF100008FF10000839130008B8
:10011000D1100008D31000080111000803110008D5
:10012000411200085D1200087912000895120008BB
:10013000B11200080000000000000000D510000807
:10014000D7100008D9100008DB100008DD100008E7
:10015000CD120008E912000805130008DF1000089E
:10016000E1100008E3100008E5100008E71000089F
:10017000E9100008EB10000800000000000000007B
:08018000ED100008EF1000086B
:1001880010B5054C237833B9044B13B10448AFF3C9
:1001980000800123237010BD04000020000000002F
:1001A800B032000808B5034B1BB103490348AFF34D
:1001B800008008BD0000000008000020B0320008E0
:1001C80081F0004102E000BF83F0004330B54FEA00
:1001D80041044FEA430594EA050F08BF90EA020F6D
:1001E8001FBF54EA000C55EA020C7FEA645C7FEA00
:1001F800655C00F0E2804FEA5454D4EB5555B8BF23
:100208006D420CDD2C4480EA020281EA030382EA93
:10021800000083EA010180EA020281EA0303362D25
:1002280088BF30BD11F0004F4FEA01314FF4801CF8
:100238004CEA113102D0404261EB410113F0004F0A
:100248004FEA03334CEA133302D0524263EB4303C1
:1002580094EA050F00F0A780A4F10104D5F1200E5F
:100268000DDB02FA0EFC22FA05F2801841F10001BA
:1002780003FA0EF2801843FA05F359410EE0A5F18E
:1002880020050EF1200E012A03FA0EFC28BF4CF0BF
:10029800020C43FA05F3C01851EBE37101F0004575
:1002A80007D54FF0000EDCF1000C7EEB00006EEB82
:1002B8000101B1F5801F1BD3B1F5001F0CD349080C
:1002C8005FEA30004FEA3C0C04F101044FEA445263
:1002D80012F5800F80F09A80BCF1004F08BF5FEAEA
:1002E800500C50F1000041EB045141EA050130BDCA
:1002F8005FEA4C0C404141EB010111F4801FA4F16D
:100308000104E9D191F0000F04BF01460020B1FAC1
:1003180081F308BF2033A3F10B03B3F120020CDAF9
:100328000C3208DD02F1140CC2F10C0201FA0CF0D7
:1003380021FA02F10CE002F11402D8BFC2F1200C3C
:1003480001FA02F120FA0CFCDCBF41EA0C019040F2
:10035800E41AA2BF01EB0451294330BD6FEA04043B
:100368001F3C1CDA0C340EDC04F11404C4F1200226
:1003780020FA04F001FA02F340EA030021FA04F338
:1003880045EA030130BDC4F10C04C4F1200220FA8F
:1003980002F001FA04F340EA0300294630BD21FACD
:1003A80004F0294630BD94F0000F83F4801306BF93
:1003B80081F480110134013D4EE77FEA645C18BF87
:1003C8007FEA655C29D094EA050F08BF90EA020F1E
:1003D80005D054EA000C04BF1946104630BD91EA16
:1003E800030F1EBF0021002030BD5FEA545C05D119
:1003F8004000494128BF41F0004130BD14F5800458
:100408003CBF01F5801130BD01F0004545F0FE41CB
:1004180041F470014FF0000030BD7FEA645C1ABF00
:10042800194610467FEA655C1CBF0B46024650EA37
:10043800013406BF52EA033591EA030F41F4002163
:1004480030BD00BF90F0000F04BF0021704730B5E9
:100458004FF4806404F132044FF000054FF00001BE
:1004680050E700BF90F0000F04BF0021704730B57F
:100478004FF4806404F1320410F0004548BF404254
:100488004FF000013EE700BF42004FEAE2014FEAA9
:1004980031014FEA02701FBF12F07F4393F07F4F84
:1004A80081F06051704732F07F4208BF704793F087
:1004B8007F4F04BF41F40021704730B54FF460749A
:1004C80001F0004521F000411CE700BF50EA01029D
:1004D80008BF704730B54FF000050AE050EA010246
:1004E80008BF704730B511F0004502D5404261EBB6
:1004F80041014FF4806404F132045FEA915C3FF4F7
:10050800D8AE4FF003025FEADC0C18BF03325FEA93
:10051800DC0C18BF033202EBDC02C2F1200300FA44
:1005280003FC20FA02F001FA03FE40EA0E0021FA69
:1005380002F11444BDE600BF70B54FF0FF0C4CF457
:10054800E06C1CEA11541DBF1CEA135594EA0C0F09
:1005580095EA0C0F00F0DEF82C4481EA030621EA44
:100568004C5123EA4C5350EA013518BF52EA03357F
:1005780041F4801143F4801338D0A0FB02CE4FF031
:100588000005E1FB02E506F00042E0FB03E54FF061
:100598000006E1FB03569CF0000F18BF4EF0010E59
:1005A800A4F1FF04B6F5007F64F5407404D25FEA55
:1005B8004E0E6D4146EB060642EAC62141EA555108
:1005C8004FEAC52040EA5E504FEACE2EB4F1FD0C4A
:1005D80088BFBCF5E06F1ED8BEF1004F08BF5FEAC8
:1005E800500E50F1000041EB045170BD06F000467A
:1005F80046EA010140EA020081EA0301B4EB5C0427
:10060800C2BFD4EB0C0541EA045170BD41F480111E
:100618004FF0000E013C00F3AB8014F1360FDEBF43
:10062800002001F0004170BDC4F10004203C35DA1F
:100638000C341BDC04F11404C4F1200500FA05F3A2
:1006480020FA04F001FA05F240EA020001F0004243
:1006580021F0004110EBD37021FA04F642EB0601B9
:100668005EEA430E08BF20EAD37070BDC4F10C04E3
:10067800C4F1200500FA04F320FA05F001FA04F2A7
:1006880040EA020001F0004110EBD37041F1000193
:100698005EEA430E08BF20EAD37070BDC4F120059E
:1006A80000FA05F24EEA020E20FA04F301FA05F206
:1006B80043EA020321FA04F001F0004121FA04F2AE
:1006C80020EA020000EBD3705EEA430E08BF20EA7E
:1006D800D37070BD94F0000F0FD101F000464000B8
:1006E80041EB010111F4801F08BF013CF7D041EA3A
:1006F800060195F0000F18BF704703F0004652003E
:1007080043EB030313F4801F08BF013DF7D043EA0E
:100718000603704794EA0C0F0CEA135518BF95EAC4
:100728000C0F0CD050EA410618BF52EA4306D1D14B
:1007380081EA030101F000414FF0000070BD50EA6A
:10074800410606BF1046194652EA430619D094EAF4
:100758000C0F02D150EA013613D195EA0C0F05D1DE
:1007680052EA03361CBF104619460AD181EA030132
:1007780001F0004141F0FE4141F470014FF00000EA
:1007880070BD41F0FE4141F4780170BD70B54FF085
:10079800FF0C4CF4E06C1CEA11541DBF1CEA135505
:1007A80094EA0C0F95EA0C0F00F0A7F8A4EB0504E7
:1007B80081EA030E52EA03354FEA013100F08880DE
:1007C8004FEA03334FF0805545EA131343EA1263A7
:1007D8004FEA022245EA111545EA10654FEA00265C
:1007E8000EF000419D4208BF964244F1FD0404F515
:1007F800407402D25B084FEA3202B61A65EB030571
:100808005B084FEA32024FF480104FF4002CB6EB2D
:10081800020E75EB030E22BFB61A754640EA0C00AD
:100828005B084FEA3202B6EB020E75EB030E22BFED
:10083800B61A754640EA5C005B084FEA3202B6EB2E
:10084800020E75EB030E22BFB61A754640EA9C00ED
:100858005B084FEA3202B6EB020E75EB030E22BFBD
:10086800B61A754640EADC0055EA060E18D04FEA7B
:10087800051545EA16754FEA06164FEAC30343EA1B
:1008880052734FEAC2025FEA1C1CC0D111F4801FE8
:100898000BD141EA00014FF000004FF0004CB6E7E1
:1008A80011F4801F04BF01430020B4F1FD0C88BF80
:1008B800BCF5E06F3FF6AFAEB5EB030C04BFB6EB8B
:1008C800020C5FEA500C50F1000041EB045170BD7E
:1008D8000EF0004E4EEA113114EB5C04C2BFD4EBAB
:1008E8000C0541EA045170BD41F480114FF0000E2F
:1008F800013C90E645EA060E8DE60CEA135594EAAB
:100908000C0F08BF95EA0C0F3FF43BAF94EA0C0FAD
:100918000AD150EA01347FF434AF95EA0C0F7FF422
:1009280025AF104619462CE795EA0C0F06D152EA76
:1009380003353FF4FDAE1046194622E750EA41065A
:1009480018BF52EA43067FF4C5AE50EA41047FF46B
:100958000DAF52EA43057FF4EBAE12E74FF0FF3CD0
:1009680006E000BF4FF0010C02E000BF4FF0010CA1
:100978004DF804CD4FEA410C7FEA6C5C4FEA430C1A
:1009880018BF7FEA6C5C1BD001B050EA410C0CBF69
:1009980052EA430C91EA030F02BF90EA020F0020CB
:1009A800704710F1000F91EA030F58BF994208BF32
:1009B80090422CBFD8176FEAE37040F001007047EF
:1009C8004FEA410C7FEA6C5C02D150EA013C07D146
:1009D8004FEA430C7FEA6C5CD6D152EA033CD3D091
:1009E8005DF8040B704700BF8446104662468C468B
:1009F8001946634600E000BF01B5FFF7B7FF0028BE
:100A080048BF10F1000F01BD4DF808EDFFF7F4FFE6
:100A18000CBF012000205DF808FB00BF4DF808ED71
:100A2800FFF7EAFF34BF012000205DF808FB00BF94
:100A38004DF808EDFFF7E0FF94BF012000205DF8B6
:100A480008FB00BF4DF808EDFFF7CEFF94BF01206B
:100A580000205DF808FB00BF4DF808EDFFF7C4FF64
:100A680034BF012000205DF808FB00BF4A0011D206
:100A780012F5001211D20DD56FF47873B3EB6252F0
:100A88000ED44FEAC12343F0004343EA505323FAFC
:100A980002F070474FF00000704750EA013002D171
:100AA8004FF0FF3070474FF00000704742090123B4
:100AB80000F01F0003FA00F0014B43F822007047D2
:100AC80000E100E043690133436170470268097837
:100AD800137819B143F001031370704761F30003F1
:100AE800FAE7012A03D0022A03D0002070470160E8
:100AF800FBE70B680360F8E70A78036802B1012294
:100B08009A777047012A03D0022A03D00020704741
:100B18000160FBE70B680360F8E7C3690133C36151
:100B2800704770B4816800220B4613B19A605B6805
:100B3800FBE7D0E9042302EB43050B469542144634
:100B480009D026889C6834449C605B680232002B7C
:100B580008BF0B46F2E7836B1BB1C36B70BC303028
:100B6800184770BC70470B1A9B10002B10DD0278D9
:100B780012B342780AB90130704782780AB9023054
:100B88007047C2780AB9033070470430013BECE77C
:100B98000B1A022B0BD0032B06D0012B0BD1037899
:100BA800002B18BF0846704703782BB10130037833
:100BB80013B10130F3E7084670470B1A9B10002B5E
:100BC80010DD027812BB42780AB101307047827892
:100BD8000AB102307047C2780AB103307047043056
:100BE800013BECE70B1A022B0BD0032B06D0012B91
:100BF8000BD10378002B08BF0846704703782BB940
:100C08000130037813B90130F3E708467047FFF75E
:100C18004DBF036813B90160704713465A68002A2C
:100C2800FBD15960704710B504462CB123682046A3
:100C38001B6898476468F8E710BD00000369002B3B
:100C4800BFBF034B436003F188334360704700BF65
:100C580023016745D0E900120123103293408B61CC
:100C6800704770B5D0E900340122186902FA04F51A
:100C7800284214BF1046002031B11E6935421DBFFD
:100C88001034A2409A619D61484070BD012903D18A
:100C9800006A00F001007047022903D1006AC0F31E
:100CA80000107047032903D1006AC0F30020704781
:100CB800042906BF006AC0F30030002070470129EC
:100CC80001D142637047022901D182637047032929
:100CD80001D1C2637047042908BF0264704700004D
:100CE80003888B4219D040F60223994215D9018016
:100CF80040680A4BB3FBF1F10368028B013989B2F2
:100D08000181D962C369198918684A434FF47A7115
:100D180092FBF1F2997AFFF7D2BF7047007A030A83
:100D280008B50388194489B2FFF7DAFF08BD0288BD
:100D38008A4210B50B460ED04468E2898A420AD32B
:100D4800228901804A4320684FF47A7192FBF1F2BC
:100D5800A17AFFF7B4FF184610BDC36910B51A7F12
:100D68000446C06810307AB1198AFFF7B9FFE36901
:100D7800E0685B7F18304BB1B4F80011FFF7D7FF7C
:100D880004236370237110BD598AEEE76421FFF7CD
:100D9800CEFF0523F5E7817A0068FFF777BF21B911
:100DA800036962F3020303617047012903D10369F0
:100DB80062F3C503F7E7022903D1036962F38813D5
:100DC800F1E7032903D1036962F34B23EBE7042915
:100DD80003D1036962F30E33E5E7052903D10369FB
:100DE80062F3D133DFE7062903D1036962F3944341
:100DF800D9E7072903D1036962F35753D3E70829D1
:100E080003D1036962F31A63CDE7092903D10369A2
:100E180062F3DD63C7E70A2904D1C36862F30203FA
:100E2800C36070470B2903D1C36862F3C503F7E7B2
:100E38000C2903D1C36862F38813F1E70D2903D1A4
:100E4800C36862F34B23EBE70E2903D1C36862F34F
:100E58000E33E5E70F2903D1C36862F3D133DFE727
:100E6800102903D1C36862F39443D9E7112903D148
:100E7800C36862F35753D3E71229D2D1C36862F328
:100E88001A63CDE7012904D1436B62F3040343637A
:100E98007047022903D1436B62F34913F7E703292B
:100EA80003D1436B62F38E23F1E7042903D1436B2B
:100EB80062F3D333EBE7052903D1436B62F318538D
:100EC800E5E7062903D1436B62F35D63DFE7072992
:100ED80004D1036B62F3040303637047082903D149
:100EE800036B62F34913F7E7092903D1036B62F334
:100EF8008E23F1E70A2903D1036B62F3D333EBE7BF
:100F08000B2903D1036B62F31853E5E70C2903D1CE
:100F1800036B62F35D63DFE70D2904D1C36A62F3F3
:100F28000403C36270470E2903D1C36A62F34913ED
:100F3800F7E70F2903D1C36A62F38E23F1E710297B
:100F4800F0D1C36A62F3D333EBE719B90068C0F391
:100F580040107047012903D10068C0F3C0207047D2
:100F6800022903D10068C0F340507047032903D118
:100F78000068C0F3C0607047042901D14068E6E703
:100F8800052901D14068E8E7062901D14068EAE768
:100F9800072901D14068ECE70020704710B5836845
:100FA800044613B1032201469847204610BD0000AD
:100FB80010B5044B044640F8303BFFF7EFFF2046DE
:100FC80010BD00BFB436000870B50646074B46F89A
:100FD800B83B054600F1D804A64204D0103C204690
:100FE800FFF7DCFFF8E7284670BD00BF14330008A0
:100FF8000A2A10B501D00F2A15D1204B9A68C2F3DE
:101008004232D2B1042A1AD0052A1AD01C4B1D4CE0
:10101800062A08BF234607291AD8DFE801F0141A60
:101028001D202326292C0B3A032A04D8134B9A682F
:10103800C2F38222E5E70023EDE7134BEBE7134BFE
:10104800E9E7134BE7E74FF41652B3FBF2F383607B
:1010580010BD4FF46152F8E74FF49642F5E74FF4AC
:10106800E142F2E74FF41642EFE74FF46142ECE752
:101078004FF49632E9E74FF4E132E6E700380240F0
:10108800A037A000406F4001007A030A00BD0105A7
:1010980080DE8002FEE7FEE7FEE7FEE7FEE7FEE70A
:1010A800FEE7FEE7FEE7FEE7FEE7FEE7FEE7FEE710
:1010B800FEE7FEE7FEE7FEE7FEE7FEE7FEE7FEE700
:1010C800FEE7FEE7FEE7FEE7FEE7FEE7FEE7FEE7F0
:1010D800FEE7FEE7FEE7FEE7FEE7FEE7FEE7FEE7E0
:1010E800FEE7FEE7FEE7FEE7FEE7FEE7FEE7FEE7D0
:1010F800FEE7FEE7FEE7FEE7FEE7FEE7FEE7FEE7C0
:10110800FEE7FEE708B5044B1868FFF78CFD034BB4
:101118001A685B6808BD00BFB004002000100140D9
:1011280008B5044B1868FFF77EFD034B1A685B6827
:1011380008BD00BFB80400200044004008B5044BB7
:101148001868FFF770FD034B1A685B6808BD00BF9D
:10115800C00400200048004008B5044B1868FFF799
:1011680062FD034B3D229A6008BD00BF18040020B1
:101178000060024008B5044B1868FFF754FD034BA4
:101188004FF474629A6008BD200400200060024099
:1011980008B5044B1868FFF746FD034B4FF474126B
:1011A8009A6008BD280400200060024008B5044B7E
:1011B8001868FFF738FD034B4FF074629A6008BD5A
:1011C800300400200060024008B5044B1868FFF79F
:1011D8002AFD034B4FF47462DA6008BD380400201E
:1011E8000060024008B5044B1868FFF71CFD034B6C
:1011F8004FF47462DA6008BD4004002000600240C9
:1012080008B5044B1868FFF70EFD034B4FF4741232
:10121800DA6008BD480400200060024008B5044BAD
:101228001868FFF700FD034B4FF07462DA6008BDE1
:10123800500400200060024008B5044B1868FFF70E
:10124800F2FC034B3D229A6008BD00BF5804002001
:101258000064024008B5044B1868FFF7E4FC034B30
:101268004FF474629A6008BD600400200064024074
:1012780008B5044B1868FFF7D6FC034B4FF47412FB
:101288009A6008BD680400200064024008B5044B59
:101298001868FFF7C8FC034B4FF074629A6008BDEA
:1012A800700400200064024008B5044B1868FFF77A
:1012B800BAFC034B3D22DA6008BD00BF7804002069
:1012C8000064024008B5044B1868FFF7ACFC034BF8
:1012D8004FF47462DA6008BD8004002000640240A4
:1012E80008B5044B1868FFF79EFC034B4FF47412C3
:1012F800DA6008BD880400200064024008B5044B89
:101308001868FFF790FC034B4FF07462DA6008BD71
:101318009004002000640240014B1868FFF783BC6A
:1013280098040020014B1868FFF77DBCA00400203A
:10133800014B1868FFF777BCA8040020436A1A68B5
:1013480042F001021A601A68D107FCD5036A9A684C
:1013580042F001029A609A68D207FCD59A6842F076
:1013680080429A60704710B504682CB12368204603
:101378001B689847A468F8E710BD10B50446083004
:10138800FFF7F1FFD4E90421531C2361B2FBF1F309
:1013980001FB132313B92046FFF7E5FF10BD00003A
:1013A8000148FFF7EABF00BFD00400204269036983
:1013B8009A424FF0000326BF436101201846704748
:1013C800037BC3B100230373D0E901236AB143B19E
:1013D800936083685A600023C0E9013370470B604B
:1013E800F8E7054993604A60F5E70349002BF6D111
:1013F800C1E90033EFE77047D004002000224261C2
:10140800FFF7DEBF037B53B901230373044B5A680C
:10141800426002B190601A68586002B9186070475B
:10142800D004002010B50023054A0361C0E9013348
:101438004361037302600161FFF7E4FF10BD00BF61
:10144800F032000880680269D2F818311B68DB06A0
:1014580011D5D2F820315B6800219BB2C2F8001187
:10146800C3F1FF01FF2928BFFF21FF2BC2F8041198
:1014780001D0FFF7C7BF7047204B1A68052161F3F9
:1014880002021A60A3F580631A6842F480321A6077
:101498001A689203FCD59A686FF307129A609A68E3
:1014A800052161F38C229A609A68042161F34F3216
:1014B8009A609A68022060F301029A605A6861F3A0
:1014C80005025A605A68A82161F38E125A605A6858
:1014D800072161F31B625A605A686FF311425A6020
:1014E8005A6842F480025A601A6842F080721A60A0
:1014F800034A13689B01FCD5704700BF003C0240BB
:10150800003802407B487C49F8B5036813F0010FA6
:101518007CD17A4B7A4C1A6812F0010F06D1DFF8A9
:10152800F8E10922C4E900E201221A60754B1A6B3E
:1015380042F001021A6322681568022666F3934591
:101548001560556A072666F307155562D5686FF367
:101558009345D5606C4D2A6812F0010F6B4A06D18D
:10156800DFF8B4C10A26C2E900C601262E601D6B49
:1015780045F001051D6313681D68022666F31555BD
:101588001D605D6A072666F30B255D62DD686FF3F3
:101598001555DD605E4D2B6813F0010F5D4B05D1CD
:1015A8005D4F0C26C3E9007601262E60554E356B3B
:1015B80045F0010535631D682F68012666F3196734
:1015C8002F60EF686FF31967EF60C1F81031534B64
:1015D800C1F81431A3F5AA33C1F8183103F5AA33B9
:1015E800B833C1F81C31783BC1F820310A230025F3
:1015F800C1F824310723C1F80051C1F80451C1F8DA
:101608000841C1F80C2181F8283106603D4C636C13
:1016180043F010036364D1F81831DA6842F0080225
:10162800DA60DA6842F00402DA605A6942F080024D
:101638005A615A6942F040025A61394B93F90400E1
:10164800FFF7E5FA236B43F480032363D1F81C31D9
:101658001A68012060F387121A60D1F800210A4441
:10166800DA60D1F8182104329A601A6842F480626C
:101678001A601A686FF34E321A601A686FF3CC2238
:101688001A601A6842F010021A60264B93F9040097
:10169800FFF7BDFAD1F820311A686FF387121A6084
:1016A800D1F800210A44DA60D1F8182104329A608E
:1016B800FF225A601A6842F480621A601A686FF34F
:1016C8004E321A601A686FF3CC221A601A6842F414
:1016D80080721A60D1F820311A68042060F35B62C6
:1016E8001A60D1F81C311A6860F35B621A6002480C
:1016F800F8BD00BFA0010020A4010020E8020020DE
:10170800EC02002000380240DC020020E002002049
:10171800D0020020D40200200000024000640240F1
:10172800B00400209004002070B5294E294B32687F
:1017380012F0010F2ED1284A116811F0010F274924
:1017480005D1274D0624C1E9005401241460254C15
:10175800226B42F0010222630A681468022565F3CD
:101768000D341460146A65F31B641462D4686FF353
:101778000D34D4601C4AD881C3E900214FF6FF72AA
:1017880000211A8101229A729A8119825B61198358
:10179800DB613260134915480A6C42F002020A64A0
:1017A8001B689A69062161F306129A619A6942F0E8
:1017B80008029A611A6842F080021A601A6842F0B8
:1017C80001021A6040F60321FFF78AFA014870BD4A
:1017D800880000208C000020AC000020B000002011
:1017E8000000024000380240000400409C00002035
:1017F80038B5374D374C2B6813F001031DD1364AE5
:101808002260364A226202F5A2321032C4E9060387
:1018180062623348636022222146C4E90233C4E984
:101828000433A062E262A363FFF7F3F901232D4AB0
:101838002D492B60204601F0F8FC2C4A536C43F4E8
:1018480080735364236A59686FF319615960996802
:1018580041F002019960996841F480719960996832
:1018680041F400719960596841F480715960116BB5
:1018780041F48001116303F14C02636A9A601A68AB
:101888006FF387121A601A68012161F34E321A60E9
:101898001A6861F3CC221A601A6842F480621A60EE
:1018A8001A6842F010021A601A6842F480721A60CC
:1018B8001A6842F480721A601A686FF35B621A60E1
:1018C800A36A93F90400FFF7A2F9024838BD00BFE4
:1018D8004400002048000020B436000800200140E1
:1018E8005804002000000020B90F0008003802400A
:1018F800F8B504465148524D026812F0010F1FD145
:10190800504A136813F0010F4F4B05D14F4F022176
:10191800C3E90071012111604D490A6B42F00102CF
:101928000A631A68116841F030011160D1686FF3D9
:101938000511D1600022C5E90022EB600123036094
:10194800E36A206A223B012B8CBF00260226F7B2ED
:10195800072239462E61FFF722FAE169206A013130
:10196800E1613A46FFF78EFAD4E90732D16A013BC2
:1019780063F31751D162A2681346002B55D0196939
:101988008E424DDB5B68F8E76A60E368A56003B9DF
:10199800E5602069A2692F4B68B1D3F8001150F8AF
:1019A800045D0439491B5D18A8421ABF012183F858
:1019B8000411C3F8001161690A4462612649D3F829
:1019C80000518A4294BF52004FF0FF32281D104444
:1019D800B0F5807F03EB0501C3F800011ED893F82A
:1019E8000401D8B909B15A510431636A21611A68EE
:1019F8006FF300021A60A28AD9605A601A6842F02E
:101A080001021A601A68D207FCD50D48F8BD1A6899
:101A1800C5E900231D602B685D60BAE70021E4E793
:101A28009A42F4D16A601560AFE7002AACD0E36847
:101A38002B60002BACD05D60AAE700BF200000201F
:101A480024000020380000203C0000200000024054
:101A58000038024010030020FCFFFF3F38B5044661
:101A68000025C0F80051C0F80451D0F81001FFF764
:101A7800F1F8D4F81C311A6865F300021A60D4F83A
:101A880020311A6865F300021A60FF225A60D4F800
:101A980020311A6842F001021A601A68D207FCD590
:101AA800D4F81821D36843F01003D36038BD000080
:101AB8002DE9F0414A4F4B4C80460E46FFF722FD78
:101AC8003D6815F001054BD1474B2360474B20611A
:101AD800C4E906354648474B606104F13801A36301
:101AE800C4E901552573256284F82480E584258599
:101AF800658584F82C502586E5632464FFF789F80A
:101B08003D4BA069636404F14401A564E464FFF7F4
:101B180080F81622294604F1500001F0BDFB24226A
:101B2800294604F1660001F0B7FB1622294604F1A4
:101B38008A0001F0B1FB1622294604F1A00001F049
:101B4800ABFB01232D4A2E49C4F8C0502046C4E9F6
:101B58003655C4F8D050C4F8DF503B6001F065FB3F
:101B6800F3B213F0E00236D0202A36D003F0C003D7
:101B7800402B0CBF0223012323622369C6F34211C1
:101B8800D3F82421D3F81801FFF732FAC368C6F353
:101B9800400262F34923C360C368C6F3800262F35C
:101BA8000C33C3600369C6F3C10262F30D330361EA
:101BB800C36816F0010614BF43F4806366F38A23F2
:101BC800C360C36843F40053C3602069FFF746FF4E
:101BD8000448BDE8F0810423CEE70323CCE700BF27
:101BE800B8000020BC000020143300089004002036
:101BF800B0040020FC320008083300080000002070
:101C0800D10F000808B583681A6992F82811D2F82C
:101C18001401FFF79AF910B11869FFF71FFF08BD03
:101C280013B50B460446D0E900016A4682E8030072
:101C380093E8030084E8030092E8030083E80300C4
:101C480002B010BDF0B5FF23074F084E1D4611F82E
:101C5800014B5C4091423B5D83EA0503355DF6D15B
:101C680005704370F0BD00BF183300081834000831
:101C7800D0F80031D0F804219A4283BF5A1CC0F82A
:101C88000021C05C00207047D0F80431FE2B9FBFB4
:101C9800C154D0F804310133C0F80431704738B565
:101CA8000C46090A0546FFF7EFFFE1B2FFF7ECFF24
:101CB800284638BDD0F81031D3E9002101238B40E4
:101CC8009361D0F81831DA686FF30412DA60D0F84B
:101CD80020311A686FF300021A60D0F81C311A68B4
:101CE8006FF300021A60D0F80431D0F80011D0F870
:101CF8001C215B1A02339BB25360D0F81C311A685E
:101D080042F001021A601A68D207FCD570470369CD
:101D180037B501294FF0000204460D46C3F80021EB
:101D2800C3F804210ED190F824100069FFF7ACFF26
:101D380094F8251041F08001FFF7A6FF2946FFF728
:101D4800A3FF07E00229006902D194F82410EDE707
:101D58000329FAD02369D3F80421D3F800111A44CF
:101D6800194401A8FFF76EFF9DF805102069FFF7D9
:101D78008BFF9DF80410FFF787FF2069FFF79AFF94
:101D880003B030BD70B5D0F80031D0F8042101336C
:101D98009A4204460D460ED9FFF76AFF06462046CA
:101DA800FFF766FF4FF0000360F3070366F30F23A6
:101DB8002B80204670BD0023FAE738B504460D464F
:101DC80000F126010069FFF7DDFF04F12A0120690F
:101DD800FFF7D8FF638DE08C1844013880B2A84221
:101DE8004FEA4303208584F82C302CBF00200120C3
:101DF80038BD13B5044600F126010069FFF7C2FF9C
:101E0800E38C012B05D902212046FFF780FF02B0A1
:101E180010BD0DF106012069FFF7B4FFBDF80620DB
:101E280022B1B2F57F4F01D00321EDE7E38C04F135
:101E3800B8001B011844816851B1A2F57F414A429C
:101E48004A41234402A9D3F8C43001F8032D984726
:101E580023690022C3F800210822C3F8042120695D
:101E6800FFF728FFD3E700002DE9F04F364BFDB010
:101E78000AAE03F1200734463D46186859682246E1
:101E880003C20833BB421446F7D11AAC2F4B236068
:101E980000222F4B23612F482F4B84F85920C4E987
:101EA80001224FF48031C4E91131C4E913012273CE
:101EB800A263A2872264636584F8582084F85A20B4
:101EC80084F85C206661FF21A3180132202A197664
:101ED800FAD10DF1480A0021504601F0DDF92069D8
:101EE800FEF7ACFE23691A694FF0010969F309226C
:101EF8001A611A6942F080721A6127464FF0000889
:101F08004FF6FF7BD7E9113103EB410199420DD020
:101F18001A781F2A07D82244587810761A780AF8AF
:101F280002900233F2E71A885A45FAD16365796C50
:101F3800994213D1C4F838800837B8F1000F1BD183
:101F48004FF00108DEE700BFC8320008C0360008BD
:101F5800003C02400000080800000A08BA6C01EBC7
:101F68004202934200F03782C4F838802146504636
:101F7800FEF7F9FD8442DFD1A26B04EBC201D1E97F
:101F88001130616D03EB4003994206D129AB012161
:101F980099540023A363636C636521465046FEF79A
:101FA800E2FDA042074640F01B8262690DF1800CF9
:101FB8000DF1A00E634603CB7345106051609C463B
:101FC80002F10802F6D1002384F85A3094F83C3024
:101FD80083B9A36B73B1D4E911324FF6FF7003EBE9
:101FE80042018B421A4640F00182521A18BF012260
:101FF80084F83C2094F83D30BBB9A36B012B14D076
:10200800D4E913234FF6FF7002EB430393421146C2
:1020180000F0F481B1F800C0844502F10202F5D065
:102028005B1A18BF012384F83D300DF1A60841461C
:1020380029A8FEF7C2FD804518BF0323226918BFEF
:1020480084F859301369A74243F00043136109D05B
:10205800A94B3746186859683A4603C20833AB4259
:102068001746F7D12046FFF7CDF9A44ADFF8B49216
:102078001368DFF8B48213F0010301BFA049C9E96E
:102088000013012313609F4B1A6B42F002021A637C
:10209800D9F800201068012161F301001060D068B0
:1020A8006FF30100D060984A106810F0010F01BF6B
:1020B800DFF878E211600520C8E900E01A6B42F009
:1020C80004021A63D8F800301A68012767F38B22D4
:1020D8001A60DA686FF38B22DA6071883079FFF75B
:1020E800E7FC0490049B049D32AC03F1880A874BFB
:1020F800E36005F1B801864BC4F800A02046A36050
:10210800FFF78EFDD5F8C020A368A260D5F8C420DB
:10211800C5F8C030E368E2602046C5F8C430FEF771
:102128003DFF049D7B4B266005F1C801E360204616
:10213800794BA360FFF774FDD5F8D020A368A2609F
:10214800D5F8D420C5F8D030E368E2602046C5F859
:10215800D430FEF723FF049B32884FF00A0BA3F814
:1021680066B0049BA3F86820049B3279A3F86C201E
:10217800049B7288A3F86A20049AFF23A2F8A0306F
:10218800049AA2F88C70049AA2F8A230049B049ACC
:102198000025A3F89A507823A2F8B030049AA2F840
:1021A8009C50049A4FF4F570A2F8B230FFF7BCFACD
:1021B80005901020FFF71CFB0690FFF799FB06AF70
:1021C800059B7860C8213AA8C4E90273C4E9049859
:1021D800C4E906A625706570A570E5702571FFF73E
:1021E80021F94FF4FA7140A8FFF71CF94FF47A71FE
:1021F80046A8FFF717F9494E4FF47A714CA8FFF734
:1022080011F95395549555953221C4F89050C4F856
:102218008060C4F8945058A8FFF704F9E3695F9503
:1022280060956195D98AC4F8C050C4F8B060C4F804
:10223800C45064A8FFF7F6F8DFF8F4C0384BC4F8C8
:1022480004B1C4E93EC3C823C4F8003114222946A6
:10225800C4E93855C4E93A55C4E93C550DF5E97067
:1022680084F8085184F8095101F016F82123C4F8BC
:102278002031386884F81E5141F2EC33C4F8243117
:10228800FFF75CF80323C4F89030049B0FF2600951
:10229800D9E90089CDE90834A369E5691A78B4F861
:1022A800E200AE7EC2F30011864238BF41F0010160
:1022B80061F304121A7051B1EA7E197882422CBF78
:1022C8000022012262F304110622197062701B7841
:1022D800E068DF07026881892CD5DE062AD49D06CE
:1022E80028D45F0640F18C8024E000BFAFF3008063
:1022F8000000000000FEEF40C83200080003002084
:102308000004024000380240F4020020D50A000808
:10231800EB0A0008010B00080D0B0008F03200085A
:10232800384AA86104030020F8020020000802408F
:10233800E8035046002384F80831136A23EA0103AE
:102348001362FEF728FD10B152A8FFF75BF8A569E4
:10235800D4F89430D4F890302B782A78B4F8E60082
:102368009E0654BF03F00103002363F3000294F8B0
:1023780008312A700022A4F8EA20ABB1FEF772F8FF
:10238800B9A3D3E90023FEF7D7F80022B84BFEF72C
:10239800D3F842464B46FEF7F9F9B64B0022FEF752
:1023A800CBF8FEF763FB83B2A4F8E830A368B24F1A
:1023B8005B681E89642136093B46002928DD4A10DE
:1023C80003EB820C53F82200B0421FD9891A0CF192
:1023D80004030139F1E704EB080383F83C90ABE50B
:1023E800A36B29AA0121D1540523EDE5B2F800C059
:1023F800844503F102033FF4F4ADF6E519460FE610
:10240800012384F80831136A0B4399E71146D4E78E
:10241800DB1B9B10A4F8E230E3699A7F7AB32B7830
:10242800C3F34003297863F3410129704AB3E06894
:10243800FEF7B1FC28B340A8FEF7B8FF01462069B3
:10244800FEF70FFCE369B4F8F8101A89A4F8FA202B
:10245800501A0A44A4F8FE20A4F8FC00597E6278B9
:1024680001EB8101A4F80011062A52D8DFE812F026
:1024780018001A01A001E101F902B601010313468F
:10248800D0E7E068FEF787FC236928B1D3E900218B
:1024980001238B409361D5E71846FEF7DBFBD1E7B4
:1024A80094F80921E068002A00F0E8809A7F12B3C6
:1024B800A5691B7F2A7842F002022A7018305BB1A6
:1024C800FEF735FCE068B4F8FA101030FEF708FCA7
:1024D8000223637023711CE0C4F8EC306421A4F873
:1024E800E630FEF724FCE068B4F8FE101030FEF782
:1024F800F7FB0123EDE7FEF74EFC38B9E369E06826
:102508001A7F002A40F0A980598AA7E02046FEF7E2
:1025180024FCDDF824A0089DDAF81C60DAF80CB079
:102528003389A5F87230BBF81030A5F87430738A77
:10253800A5F87830338AA5F876307389A5F87C3009
:10254800BAF8EA30A5F87A30BAF8E230A5F882305D
:10255800B37EA5F884309AF80871F37EA5F8863022
:10256800B089002F00F09A82FDF77CFF3EA3D3E9E3
:102578000023FDF7E1FF00223D4BFDF7DDFF42465A
:102588004B46FEF703F900223A4BFDF7D5FFFEF75D
:102598006DFA80B2A5F87E00F089AFB1FDF762FF51
:1025A80031A3D3E90023FDF7C7FF0022304BFDF725
:1025B800C3FF42464B46FEF7E9F800222D4BFDF7D4
:1025C800BBFFFEF753FA87B2A5F88070737EA5F8B3
:1025D8006E30BBF818300522B3FBF2F3727FA5F812
:1025E800703095F8883062F38203327F62F3C30358
:1025F80063F07F0385F88830DAF8183095F888108A
:102608001A78C2F3001262F3041185F888101A7858
:10261800C9B2C2F3401262F3451185F888101B78DD
:10262800CAB2C3F3801363F38612296985F8882038
:10263800D1F82031D1F804215B68D1F800119BB2A0
:10264800521AC3F1FF039A4280F02A820023EB61F9
:102658002846FEF7B5FE30BF1EE6198A1030FEF791
:102668003FFB56E7AFF300806666666666660A401B
:102678000000304000408F401C35000864211830AD
:10268800FEF755FBE068B4F8FA101030FEF728FBA7
:10269800E068FEF780FB00283FF43BAF012384F895
:1026A800093136E7E068FEF776FB80B1A378042BA2
:1026B8000DD8DFE803F003152D0C56004FF47A739C
:1026C800C4F8C0305EA8FEF79DFE0123A370E06841
:1026D800FEF761FB00287FF41CAF0023637018E746
:1026E800D4F8C420D4F8C0309A42F0D35EA8FEF7DC
:1026F80085FEE068B4F8FE100023C4F8EC30A4F8B6
:10270800F0301030A4F8E630FEF7EAFA0223DDE7ED
:10271800B4F8EE300B2B06D80C23A4F8EE30E3689F
:102728001B8AA4F8F4303AA8FEF740FE68B1E068C6
:10273800B4F8FC30028A9A4283BFB4F804114942C3
:1027480009B200211030FEF7EBFAE3681A8AB4F8F0
:10275800FC309A42BBD1E369B4F8F4205A820423CE
:10276800B4E73AA8FEF722FE70B1E068E36930F8F2
:10277800102F5B8A9A4218D383BFB4F804114942D8
:1027880009B20021FEF7CCFAE268E369128A5B8A93
:102798009A429CD1A3691A78002161F34102A17081
:1027A8001A702046FEF7D9FA91E7B4F90411E9E75F
:1027B800E068B4F8E4101030FEF792FAE369987F05
:1027C800002884D1A269117860F341011170E26890
:1027D800128A1A82B4F8E620DA81E2E7B4F8E62031
:1027E8000B2A9CBF0C22A4F8E62058A898BF9A810F
:1027F800FEF7DCFD68B1E068B4F8003130F8181F66
:102808008B4294BF4FF0FF330123194489B2FEF77E
:102818008EFAE068B4F80031028B9A4222BF032393
:1028280063702371FEF7B7FA00287FF472AE0023B5
:102838004FE6DA7F002A61D0E278012A3DD00CD336
:10284800022A19D0E068FEF7A6FA00287FF461AEE4
:10285800607020712070E0705BE61A7F52B11A8AAE
:10286800A4F8F6209A8A1B7E92FBF3F3A4F80631AB
:10287800022320E05A8AF3E764A8FEF797FD78B1AF
:10288800E369E068998AB4F8F630028A03EB5103E9
:102898009A42B4BFB4F9061100211030FEF740FA8D
:1028A800E3681A8AE369998AB4F8F63003EB5103AE
:1028B8009A42C7DB0123E370C4E764A8FEF776FDFC
:1028C80088B1E169E068898AB4F8F630028AA3EB36
:1028D80051039A42C3BFB4F80611494209B2002114
:1028E8001030FEF71DFAE368E1691A8A898AB4F89C
:1028F800F630A3EB51039A42BADDA3E72378032B02
:10290800A0D8DFE803F0021D498BB4F8E600FDF714
:10291800A9FDB2A3D3E90023FDF70EFE0022AE4BBA
:10292800FEF79AF800288DD0636919685B68012260
:1029380002FA03F38B610023C4F8EC30227081E7BC
:10294800B4F8EE300B2B06D80C23A4F8EE30E3686D
:102958001B8AA4F8F4303AA8FEF728FD80B1E36991
:10296800E0685B8A028A6FF495752B449342DDBF59
:10297800B4F80411494209B200211030FEF7D0F929
:10298800E3681A8AE3695B8AA3F596739A427FF42F
:1029980059AF0223237055E7B4F8EC300B2B06D857
:1029A8000C23A4F8EC30E3681B8AA4F8F2303AA8A8
:1029B800FEF7FCFC68B1E369E0685B8A028A03F20F
:1029C8002B139342ACBFB4F9041100211030FEF769
:1029D800A7F9E3681A8AE3695B8A03F596739A4252
:1029E8007FF430AFB4F8EE30B4F8EC0098428CBF06
:1029F800B4F8F220B4F8F420A4F8F020984238BFD4
:102A08001846FDF72FFD72A3D3E90023FDF794FDC7
:102A1800FEF72CF80323A4F8E600BBE73AA8FEF774
:102A2800C5FC70B1E068B4F8F03030F8102F9A4265
:102A380014D383BFB4F80411494209B20021FEF748
:102A48006FF9E3681A8AB4F8F0309A427FF4FAAE64
:102A5800002360692370FEF7FDF8F3E6B4F904116A
:102A6800EDE7E068B4F8E4101030FEF739F9E068F3
:102A7800D8E6A3691B78D90608D49A0606D45B065B
:102A880004D46069FEF7E6F8237927E640A8FEF744
:102A98008DFC01466069FEF7E4F83AE5384679E5C9
:102AA800D5E907239A42FFF6D6AD00262846EE61FF
:102AB800FEF786FC2869D0F80431D0F80021991A6D
:102AC800072902D8FEF7CAFFC5E5875C95F82410E8
:102AD8008F42F7D1934284BF03F1FF33C0F804312A
:102AE8002A6988BFC65CD2F80011D2F804318B423B
:102AF80082BF03F1FF33C2F80431D75C2B69D3F8E6
:102B08000421D3F800111A44194403A898BF0027D8
:102B1800FFF798F89DF80C30B34204D19DF80D30BA
:102B28002869BB4201D02869CCE7FFF7A1F82869DA
:102B3800FFF79EF80528064685F8250000F0448131
:102B480010284FD0032840F0438112212846FFF770
:102B580034F920B902212846FFF7D9F87BE52B691B
:102B68000022C3F80021C3F8042195F8241028692D
:102B7800FFF78AF83146FFF787F895F82C10FFF72A
:102B880083F86B8D28695A1E6A854BB1EB8C5A1CE9
:102B980005EB4303EA84B3F86610FFF780F8F0E723
:102BA800D0F80421D0F800110244014403A8FFF72B
:102BB80049F89DF80D102869FFF766F89DF80C1084
:102BC800FFF762F82869FFF775F844E5AFF300806E
:102BD800666666666666EE3F00002840CDCCCCCCC3
:102BE800CCCCEC3F0B212846FFF7E7F80028B1D002
:102BF8002B69D3F80021D3F80411914283BF511CEB
:102C0800C3F800119B5C002385F82C30002605F1E1
:102C18002E07698D2869B3B299422CD93946FFF736
:102C2800B1F8EB8C13FA86F3EA185B0092F8D81027
:102C3800EA8D89B12B4410B2B3F88A100FFA81FCDF
:102C4800604500DA31B9B3F8A0100FFA81FC60458D
:102C58000DDD61B103217EE72B44B3F88A108A4267
:102C680001D20029F6D1B3F8A0108A42F1D8A3F80E
:102C780050200136CDE7574A00234FF0010C40F2AF
:102C8800B7469FB28F4280F08380B5F826E077443C
:102C9800BFB20A2F10D8DFE807F006111B26343D13
:102CA800464F58616A00089FB7F850E0A7F86AE0F5
:102CB800099FFF69A7F802E00133E2E7089FB7F828
:102CC80052E0A7F86CE0099FFF6987F804E0F3E792
:102CD800089FB7F85470A7EB060EDEF1000747EB24
:102CE8000E071770E8E7177847B1089FB7F856E05E
:102CF800A7F868E0099FFF69A7F800E082F800C01C
:102D0800DAE7099F0197089FB7F858E0019FA7F8ED
:102D1800E4E0D1E7099FDDF820E0FF69BEF85AE05A
:102D2800A7F808E0C8E7099FD7F81CE0089FB7F89C
:102D38005C708EF81970BFE7099FDDF820E0FF6925
:102D4800BEF85EE0A7F80AE0B6E7099FD7F81CE0EE
:102D5800089FB7F860708EF81A70ADE7099FD7F82A
:102D68001CE0089FB7F862708EF81B70A4E7DDE9D5
:102D780008E7D7F81CA09EF86470C7F380078AF8A4
:102D88001D709EF86470C7F3C0078AF81C7093E73B
:102D98000023C0F80031C0F8043195F824102869E0
:102DA800FEF772FF95F82510FEF76EFFE98CFEF727
:102DB80076FF698DFEF773FF2B69D3F80421D3F8EA
:102DC80000111A441944F1E62846FFF712F842E4C4
:102DD8000121C0E60C03002030B50B1A9B10002B14
:102DE80015DD14780578A54203D04578A54201D1B0
:102DF800013030BD8578A54201D10230F9E7C578A8
:102E0800A54201D10330F4E70430013BE7E70B1A90
:102E1800022B0ED0032B07D0012B10D10478137886
:102E28009C4218BF0846E4E7047813789C42E0D037
:102E38000130047813789C42DBD00130EEE7084675
:102E4800D7E700002DE9F34190F85930416904466D
:102E5800052B1BD8DFE813F006001D004A0082008E
:102E6800B400E80090F85C30C218C95C127E914248
:102E780040F0F6800133DBB2202B28BF002380F816
:102E88005C30B3FA83F35B0980F8583002B0BDE8D0
:102E9800F0810069C268C2F30042002AF6D10369D2
:102EA800002BF3DAFDF7CAFE2369186962F34100C3
:102EB80018611A6942F001021A6123691A6901202E
:102EC80060F309221A611A6942F080721A6194F853
:102ED8005C30CA5C84F85B2094F85B10626D43EA4E
:102EE80001231380022384F85930CFE70369DA6895
:102EF800D107CBD5DA6842F00102DA601A6942F0EC
:102F080000421A6190F85C3090F85B2003441A760E
:102F1800426D836B0232426500EBC300D0E91115A4
:102F280001EB45018A4203D094F85A30DBB2DAE764
:102F38000122E1181344022B28BF002381F83C200A
:102F4800A36304EBC3035B6C6365002384F85C3004
:102F580084F85920052384F85A3097E70769FD68F3
:102F6800C5F30045002D91D13B69002B8EDA02AAEA
:102F780000F13E06012300F13C0802F8013D31460C
:102F88004046FFF729FFB042CED0A0EB08002064EE
:102F98003846FDF753FE236C324AD25C036965F369
:102FA80000030361036943F002030361036962F3E9
:102FB800C6030361036943F480330361042392E782
:102FC8000369DA68D2077FF561AFDA6842F0010277
:102FD800DA601A6942F000421A61016C00EBC10321
:102FE800D3E911234FF6FF7502EB430393421046D2
:102FF80018D00688AE4202F10202F7D01B1A21440B
:1030080018BF012304F13E0581F83C3004F13C006F
:103018002946FDF7D2FD854214BF0320002084F81D
:10302800590033E71846E9E790F85C300133DBB222
:103038001F2B11D9002380F85C3004F13E05294686
:1030480004F13C00FDF7B9FD854214BF03200020C0
:1030580084F8590000237EE780F85C30002BECD020
:10306800012340E71835000808B54FF484720021A1
:103078003E4800F011F93E4A0023232113601171E4
:103088003C4A2421136011713B4A332113601171AA
:103098003A4A252113601171394A262113601171AA
:1030A800384A272113601171374A3421136011718E
:1030B800364A0B2113601171354A0C2113601171C6
:1030C800344A0D2113601171334A0E2113601171B6
:1030D800324A0F2113601171314A102113601171A6
:1030E800304A1121136011712F4A2F211360117179
:1030F8002E4A3821136011712D4A3921136011713C
:103108002C4A3A21136011712B4A3B21136011712B
:103118002A4A3C2113601171294A44211360117114
:10312800284A452113601171274A462113601171FD
:10313800264A0121C2E90033C2E902331361516111
:10314800234A116863F300011160224951609360BA
:10315800136843F004031360136843F00203136019
:10316800136843F00103136008BD00BF100300207B
:1031780098040020A0040020A8040020B004002027
:10318800B8040020C0040020C8040020180400204F
:1031980020040020280400203004002038040020E7
:1031A8004004002048040020500400205804002057
:1031B80060040020680400207004002078040020C7
:1031C800800400208804002090040020D0040020FF
:1031D80010E000E03F900200DFF834D0002103E067
:1031E8000C4B5B58435004310B480C4B42189A4225
:1031F800F6D30B4A02E0002342F8043B094B9A42FB
:10320800F9D3FEF739F900F023F8FEF72DFE7047E1
:1032180000000220D0360008000000200400002032
:1032280004000020E8040020FEE70B46014618468B
:1032380000F000B810B5054C13462CB10A460146FB
:103248000220AFF3008010BD2046FCE7000000001C
:1032580070B50D4E0D4CA41BA4100025A54209D134
:103268000B4E0C4C00F020F8A41BA4100025A5421E
:1032780005D170BD56F8253098470135EEE756F868
:10328800253098470135F2E7C4360008C4360008EF
:10329800C4360008CC36000802440346934200D1E5
:1032A800704703F8011BF9E7F8B500BFF8BC08BC84
:1032B8009E467047F8B500BFF8BC08BC9E467047EC
:1032C8000000E0000100000050460000000000007F
:1032D80050465046C800C8000264412D0000000056
:1032E8000000000000000000CD0A000800000000F7
:1032F800000000004D14000800000000000000005D
:103308000D1C00080000000000000000230B00084E
:1033180000C1814001C0804101C0804100C181409D
:1033280001C0804100C1814000C1814001C080418D
:1033380001C0804100C1814000C1814001C080417D
:1033480000C1814001C0804101C0804100C181406D
:1033580001C0804100C1814000C1814001C080415D
:1033680000C1814001C0804101C0804100C181404D
:1033780000C1814001C0804101C0804100C181403D
:1033880001C0804100C1814000C1814001C080412D
:1033980001C0804100C1814000C1814001C080411D
:1033A80000C1814001C0804101C0804100C181400D
:1033B80000C1814001C0804101C0804100C18140FD
:1033C80001C0804100C1814000C1814001C08041ED
:1033D80000C1814001C0804101C0804100C18140DD
:1033E80001C0804100C1814000C1814001C08041CD
:1033F80001C0804100C1814000C1814001C08041BD
:1034080000C1814001C0804101C0804100C18140AC
:1034180000C0C101C30302C2C60607C705C5C4046C
:10342800CC0C0DCD0FCFCE0E0ACACB0BC90908C8DC
:10343800D81819D91BDBDA1A1EDEDF1FDD1D1CDCCC
:1034480014D4D515D71716D6D21213D311D1D0103C
:10345800F03031F133F3F23236F6F737F53534F42C
:103468003CFCFD3DFF3F3EFEFA3A3BFB39F9F8389C
:1034780028E8E929EB2B2AEAEE2E2FEF2DEDEC2C8C
:10348800E42425E527E7E62622E2E323E12120E0FC
:10349800A06061A163A3A26266A6A767A56564A4EC
:1034A8006CACAD6DAF6F6EAEAA6A6BAB69A9A8685C
:1034B80078B8B979BB7B7ABABE7E7FBF7DBDBC7C4C
:1034C800B47475B577B7B67672B2B373B17170B0BC
:1034D80050909151935352929656579755959454AC
:1034E8009C5C5D9D5F9F9E5E5A9A9B5B995958981C
:1034F800884849894B8B8A4A4E8E8F4F8D4D4C8C0C
:10350800448485458747468682424383418180407B
:1035180009080000FE0D0000E40D0000C90D0000C0
:10352800AD0D00008F0D0000770D0000590D000053
:10353800390D0000190D0000F70C0000DB0C00002D
:10354800B80C0000950C0000700C00004B0C00003B
:103558002B0C0000040C0000DC0B0000B40B000076
:103568008A0B0000690B00003F0B0000150B0000E0
:10357800E90A0000BD0A0000980A00006C0A000071
:103588003F0A0000110A0000E3090000BE0900001C
:1035980090090000610900003209000002090000DA
:1035A800DB080000AD0800007E0800004F0800009E
:1035B80020080000FA070000CD070000A00700005F
:1035C800730700004607000022070000F606000007
:1035D800CB060000A0060000750600005306000098
:1035E8002A06000002060000DA050000B205000005
:1035F800920500006C050000460500002205000049
:10360800FD040000E0040000BE0400009C0400006B
:103618007B0400005A04000040040000210400005C
:1036280003040000E5030000C8030000B103000024
:10363800960300007B0300006103000047030000BD
:10364800330300001B03000004030000ED02000028
:10365800D6020000C5020000B00200009B02000074
:103668008702000074020000650200005302000097
:1036780042020000300200001F0200001302000096
:1036880003020000F4010000E5010000D50100007C
:10369800CB010000BD010000B0010000A301000043
:1036A8009601000000000000000000002B0B00083D
:0C36B80000000000000000004D2E000883
:0836C400AD010008713000089F
:0436CC008901000868
:0436D00000000000F6
:04000005080031E1DD
:00000001FF
